:1000000000000410B54E00108D0B00108F0B001077
:10001000910B0010930B0010950B001000000000D6
:10002000000000000000000000000000970B00101E
:10003000990B0010000000009B0B00109D0B00109E
:100040000101001001010010010100100101001068
:100050000101001001010010010100100101001058
:100060000101001001010010010100100101001048
:100070000101001001010010010100100101001038
:100080000101001001010010010100100101001028
:100090000101001001010010010100100101001018
:1000A0000101001001010010010100100101001008
:1000B00001010010010100100101001001010010F8
:1000C00001010010010100100101001001010010E8
:1000D00001010010010100100101001001010010D8
:1000E00001010010010100100101001001010010C8
:1000F00001010010010100100101001001010010B8
:1001000001010010010100100101001001010010A7
:100110000101001001010010010100100101001097
:100120000101001001010010010100100101001087
:100130000101001001010010010100100101001077
:100140000101001001010010010100100101001067
:100150000101001001010010010100100101001057
:100160000101001001010010010100100101001047
:100170000101001001010010010100100101001037
:100180000101001001010010010100100101001027
:100190000101001001010010010100100101001017
:1001A0000101001001010010010100100101001007
:1001B00001010010010100100101001001010010F7
:1001C00001010010010100100101001001010010E7
:1001D000010100100101001001010010A50B001029
:1001E00001010010010100100101001001010010C7
:1001F00001010010010100100101001001010010B7
:1002000001010010010100100101001001010010A6
:100210000101001001010010010100100101001096
:100220000101001001010010010100100101001086
:100230000101001001010010010100100101001076
:100240000101001001010010010100100101001066
:100250000101001001010010010100100101001056
:100260000101001001010010010100100101001046
:100270000101001001010010010100100101001036
:100280000101001001010010010100100101001026
:08029000010100100101001042
:020000041000EA
:1000000010B5054C237833B9044B13B10448AFF352
:1000100000800123237010BDB40102100000000015
:100020009C4E001008B5034B1BB103490348AFF3C6
:10003000008008BD00000000B80102109C4E0010B6
:1000400010F8012B11F8013B012A28BF9A42F7D082
:10005000D01A7047000000000000000000000000FF
:1000600001F0FF01102A2BDB10F0070F08D010F869
:10007000013B013A8B422DD010F0070F42B3F6D16D
:10008000F0B441EA012141EA014122F007047FF086
:1000900000070023F0E80256083C85EA010586EADD
:1000A000010685FA47F5A3FA87F586FA47F6A5FA19
:1000B00087F68EB9EED1F0BC01F0FF0102F0070225
:1000C00032B110F8013B013A83EA010313B1F8D1D0
:1000D0000020704701387047002D06BF35460338B1
:1000E000073815F0010F07D1013015F4807F02BFEA
:1000F000013015F4C03F0130F0BC0138704700BF3B
:10010000FEE7000003460B4A126842B1094A106834
:1001100003446A46934206D8064A13607047054A6C
:1001200005491160F2E7054B0C221A604FF0FF30D1
:10013000704700BFD0010210A00F02108C0F0210F8
:1001400001207047024B16221A604FF0FF307047B3
:100150008C0F021008B54FF0FF31FFF7F3FFFEE7F9
:1001600070B50C4616460025B54205DA14F8010BA9
:1001700000F0E4FC0135F7E7304670BD4FF0FF308A
:1001800070474FF400534B600020704701207047C8
:100190000020704770B50C4616460025B54207DAB8
:1001A000AFF30080214601F8010B01350C46F5E75D
:1001B000304670BDF8B504460D4600F0F5FD074623
:1001C00000260FE0012000E0002000F05FFF002883
:1001D00050D025B100F0E8FDC31BAB4202D900F0BE
:1001E00003F90226244B9C42EED003F580539C4237
:1001F0002AD003F580539C4228D0B4F1502F27D049
:1002000003F500539C4225D003F580539C4223D034
:1002100003F580539C4221D003F580539C421FD0AC
:1002200003F580539C421DD003F580539C421BD0A4
:1002300003F580539C4219D0104B9C4218D0104BB0
:100240009C42BFD02020C0E70020BEE70020BCE7D2
:100250000020BAE70020B8E70020B6E70020B4E7A6
:100260000020B2E70020B0E70020AEE70020ACE7B6
:100270000020AAE73046F8BD00200050004000549E
:1002800000D0005008B5274B984230D003F580537A
:10029000984231D003F5805398422FD0B0F1502FBF
:1002A0002ED003F5005398422CD003F5805398428A
:1002B0002AD003F58053984228D003F58053984202
:1002C00026D003F58053984224D003F580539842FA
:1002D00022D003F58053984220D0134B98421FD070
:1002E000124B984201D0202002E0012000E00020C3
:1002F000002100F0D9FE08BD0020F9E70020F7E753
:100300000020F5E70020F3E70020F1E70020EFE709
:100310000020EDE70020EBE70020E9E70020E7E719
:100320000020E5E7002000500040005400D00050BD
:1003300038B5044600F038FD054600F035FD0F499C
:10034000A1FB00329209A1FB0531636C4FF47A7571
:1003500005FB120289090A4803F098FFB4F8482007
:1003600040F2FF139A4228BF1A46064D2A80616C5C
:10037000054803F0DDFB0123AB7038BDD34D62109F
:10038000E44F0010D40102108C02021038B504466C
:1003900000F00AFD054600F007FD0F49A1FB003201
:1003A0009209A1FB0531636C4FF47A7505FB1202CB
:1003B00089090A4803F06AFFB4F8482040F2FF13A5
:1003C0009A4228BF1A46064DAA80616C054803F080
:1003D000AFFB0123AB7138BDD34D62102850001024
:1003E000D40102108C04021008B500F0DDFC0446B4
:1003F00000F0DAFC03460949A1FB03029209A1FBC4
:1004000004014FF47A7000FB12328909044803F0AA
:100410003DFF022000F0EEFBFEE700BFD34D62106F
:100420006C50001008B50448044B036000F014FF42
:1004300000B908BDFFF7D8FF8C0602100010004C71
:1004400030B5D3B04FF48A7200210DA803F07EFBC3
:100450003022002101A803F079FB00F01BFF4FF0D0
:10046000A042D2F8403123F0300343F02003C2F819
:10047000403107230D934FF4B0630E9301230F9384
:1004800010931022119200241294022216921793B4
:1004900003251895512119911A931B931C934FF41E
:1004A00000611E911F934FF4804021904FF4005142
:1004B00022912592269327954225289529922A93C1
:1004C0002B934FF4A0552D952E933090319134926B
:1004D0003593369222253795389211253995252561
:1004E0003A954FF080753B9541F604253C953D9338
:1004F0003F90409143924493042345936323469352
:10050000062347930823489349934A944B944C9469
:100510004E904F910DA801F02FFAF0B9FF230193EF
:1005200002220292012303930492002105910320E9
:1005300006900791089309920A930B930C9301A8D4
:1005400001F01EFD58B94FF0A042536C23F03F0359
:1005500043F01703536453B030BDFFF745FFFFF777
:1005600043FF00002DE9F043ADF5037D00F0FAFBF9
:10057000824B1B6803F00703042B58D000F014FCD7
:10058000044600F011FC804600F014FC4FEA1069AC
:1005900000F010FC070C00F00DFC794DA5FB0832B3
:1005A00092094FF47A76A5FB0431C0F3072001903D
:1005B000FFB200974B4606FB12828909714803F08F
:1005C00065FE022000F036FB022000F0F3FA4FF047
:1005D000A0434FF40062C3F8A02AFFF723FF0021D5
:1005E000012000F017FA00F0DFFB044600F0DCFB0E
:1005F000A5FB00329209A5FB043106FB1202890912
:10060000614803F043FE614803F0F6F990B100F051
:10061000CBFB044600F0C8FBB0FBF6F206FB12026F
:10062000B4FBF6F15A4803F031FEFFF7DDFEFFF7A9
:1006300007FFA3E700F0B8FB044600F0B5FB4FF45A
:100640007A71B0FBF1F201FB1202B4FBF1F15148F7
:1006500003F01CFE504803F0CFF988B100F0A4FB72
:10066000044600F0A1FB4FF47A71B0FBF1F201FBFC
:100670001202B4FBF1F1494803F008FEFFF7B4FEA3
:10068000474A0021414803F0CDF908B1FFF7ACFE1D
:10069000444A0021404803F0C5F900286CD0FFF718
:1006A000A3FE414B00229A7002AD404E0FCE0FC503
:1006B00033682B703E4B3F4A4FF4007106A803F09D
:1006C0000DFE00F1100600F06FFB054600F06CFB1C
:1006D0002B49A1FB00329209A1FB053133464FF4AF
:1006E0007A7505FB12028909334803F0CFFDB2B2D7
:1006F00002A9264803F09DF936E02B4B00229A719F
:1007000002AD2E4E0FCE0FC533682B702C4B294AED
:100710004FF4007106A803F0E1FD00F11005ADB241
:1007200000F042FB064600F03FFB1549A1FB0032FA
:100730009209A1FB06312B464FF47A7606FB120292
:1007400089091D4803F0A2FD2A4602A9124803F0B8
:1007500070F9621C1B4B9C420BD0144600F0CEF982
:10076000114B9B78002B9CD10F4B9B79002BF0D029
:10077000C3E7022000F09EFA0024EFE700000250D9
:10078000D34D621090500010EC500010180702106A
:100790003051001064510010C8060210A85100101A
:1007A000310300108D030010D4010210DC51001041
:1007B0008C020210F0510010F4510010345200105D
:1007C0008C04021020A1070008B5034B02221A6016
:1007D000012200F001FD08BDDC01021008B5012274
:1007E000024B5A6000F0F8FC08BD00BFDC010210AB
:1007F00010B51F4B012200211E4800F0BDFC40B97E
:100800001D4B012211461B4800F0B6FCC0B9002068
:1008100010BD00F0C9FA044600F0C6FA1749A1FB62
:1008200000329209A1FB0431154B4FF47A7404FB9A
:1008300012028909134803F029FD4FF0FF30E7E762
:1008400000F0B2FA044600F0AFFA0C49A1FB003206
:100850009209A1FB04310A4B4FF47A7404FB120293
:100860008909094803F012FD4FF0FF30D0E700BFBF
:10087000C90700108C060210DD070010D34D62106E
:10088000044F0010485200107052001010B504467A
:100890000C4B1B68022B06D04FF0FF30094B5B68F6
:1008A000012B07D010BD002102F0EAFA0020054B11
:1008B0001860F3E70121204602F0E2FA0020014B24
:1008C0005860EFE7DC01021038B50C4609B1012988
:1008D0000DD100222146154800F0F0FB01281DD063
:1008E00000222146114800F077FC002038BD00F0BE
:1008F0005BFA054600F058FA0D49A1FB0032920957
:10090000A1FB053123464FF47A7404FB12028909D6
:10091000084803F0BBFC4FF0FF30E7E70022214618
:10092000024800F0CBFB0128F8D0D9E78C06021072
:10093000D34D62109852001030B58BB0054600229E
:1009400009922D4907AB03C983E80300069205927B
:10095000184602F011F8294801F0E8FF044610B1EA
:1009600020460BB030BD09AA2549264801F0B4FF46
:1009700004460028F4D12449244A1160002302933C
:1009800001934FF0FF330093214B5B1A09980C3011
:1009900002F010F8099B9A6822B30C331B4A53608B
:1009A00023B305AA06A9284600F0CEF80699174BEE
:1009B0009960F1B10023029301934FF0FF3300934C
:1009C000059B0A460998443001F0F4FF099B9A6898
:1009D000012A09D944330D4AD360002BC0D14FF00E
:1009E000FF34BDE70023D9E70023F4E74FF0FF34DD
:1009F000B6E74FF0FF34B3E7144F001000000210C9
:100A0000C4520010D052001000000410E80102107F
:100A1000008004102DE9F04184B004460E46FFF733
:100A2000E7FE2046FFF788FF054618B1284604B0C8
:100A3000BDE8F081254B9A6800210291244801907D
:100A40000091DB681832FF21204602F081F904464C
:100A5000002838D002F038FA1C498868026C436BD1
:100A6000C56B806B0290019549680091002120467A
:100A700002F0EEF905460028D8D1144881684A6D85
:100A80008B6C0D6DC96C029101954168009101213B
:100A9000204602F0DDF905460028C7D10B4F07F1CB
:100AA00010080C4A0C4BD21A4FF0FF31404602F0AE
:100AB00031FECDF800807B683246214607F11C00EC
:100AC00002F0F4FBB2E74FF0FF35AFE7E8010210A8
:100AD000C9080010008004100000041010B584B094
:100AE000069C0294019300924FF0FF330A4602499C
:100AF00002F0E4FA04B010BD0402021008B5034B82
:100B0000D3F88400FFF7C2FE08BD00BFE801021061
:100B1000084B1A6840F2FE739A4202DD054B002230
:100B20001A6004490B68044AD05401330B60002159
:100B3000D1547047800202106807021010B50446B5
:100B4000FFF7E6FF204610BD8C231360014B0B60BE
:100B5000704700BF280102107047000008B5026806
:100B6000094B9A4200D008BD4FF0A0434FF4805289
:100B7000C3F8A02A00220121672000F031F9672084
:100B800000F062F9EFE700BF0010004C7047FEE78D
:100B9000FEE7FEE7FEE770477047704708B500F0D4
:100BA000F7F808BD08B5024800F0A2FA08BD00BF7A
:100BB0008C06021010B5012805D9831EDBB2012B6B
:100BC0000BD9002010BD0A4B03EB8004002233F840
:100BD0002010206900F04CFAF3E7054B03EB80048A
:100BE000012233F82010206900F042FAE9E700BF43
:100BF0001C4F001010B5012805D9831EDBB2012B54
:100C00000BD9002010BD0A4B03EB8004012233F8FE
:100C10002010206900F02CFAF3E7054B03EB800469
:100C2000002233F82010206900F022FAE9E700BF23
:100C30001C4F001030B587B0044608BB4FF0A043EE
:100C40000122C3F8A82A1A4B53F82420019201224A
:100C5000029203920322049203EB84031D69642130
:100C60002846FFF7A7FA01A9284600F011F92846FF
:100C7000FFF708FB2046FFF7BDFF002007B030BD9F
:100C8000012809D002280DD00328DCD14FF0A04361
:100C90000822C3F8A82AD6E74FF0A0430122C3F8E0
:100CA000A82AD0E74FF0A0430822C3F8A82ACAE731
:100CB0001C4F001008B5054B03EB800233F82010E1
:100CC000106900F0DBF9002008BD00BF1C4F0010C8
:100CD000704708B50220FFF7FBFF08BD08B50120EB
:100CE000FFF7F6FF08BD08B50020FFF7F1FF08BDCC
:100CF000074AD2F8883043F47003C2F88830054BB5
:100D000000221A601A611A625A605A615A62704768
:100D100000ED00E0C0D00050104B1B780BB9012053
:100D2000704710B504464FF47A70B0FBF3F30C4AE9
:100D30001068B0FBF3F000F095F868B90F2C01D9FA
:100D400001200AE0002221464FF0FF3000F048F871
:100D5000024B5C60002000E0012010BD90000210FA
:100D60008C00021010B5032000F028F800F000FEFF
:100D7000064B18600F20FFF7CFFF10B1012420466B
:100D800010BD0446FFF7E8FEF9E700BF8C00021033
:100D9000034B1B78034A11680B441360704700BF74
:100DA00090000210680F0210014B1868704700BFD6
:100DB000680F02104FF0827070470000074AD36836
:100DC00023F4E0631B041B0C000200F4E060034307
:100DD00043F0BF6343F40033D360704700ED00E09D
:100DE00030B4174BDB68C3F30223C3F10704042CB0
:100DF00028BF04241D1D062D18D9033B4FF0FF35D5
:100E000005FA04F421EA0401994005FA03F322EA01
:100E10000303194300280BDB0901C9B200F160404C
:100E200000F5614080F8001330BC70470023E5E70F
:100E300000F00F000901C9B2024B1954F4E700BFDA
:100E400000ED00E014ED00E0002807DB00F01F02D9
:100E5000400901239340024A42F82030704700BF06
:100E600000E100E00138B0F1807F0AD2064B586003
:100E7000064AF02182F823100020986007221A60A9
:100E800070470120704700BF10E000E000ED00E077
:100E900000230F2B00F2E380F0B43AE00B2200E0D5
:100EA0000022B2403A4318346D4E46F824206D4A71
:100EB0001468EA4324EA05064F6817F4803F01D01E
:100EC00045EA0406674C2660666802EA06044F6835
:100ED00017F4003F01D045EA0604624E7460604C8E
:100EE000246802EA04064F6817F4801F01D045EA1F
:100EF00004065B4C2660646822404E6816F4001FAE
:100F000001D045EA0402564C626001330F2B00F217
:100F1000A48001229A400C6804EA020532EA040423
:100F2000F3D14C68022C01D0122C10D1DE08083607
:100F300050F826C003F00704A7000F24BC402CEA99
:100F4000040C0C69BC4044EA0C0440F82640D0F87C
:100F500000C05E000324B440E7432CEA040C4C6854
:100F600004F00304B44044EA0C0404604C6804F147
:100F7000FF3CBCF1010F03D9112C01D0122C10D170
:100F8000846807EA040CCC68B44044EA0C0484602A
:100F9000446824EA02024C68C4F300149C401443E1
:100FA0004460C26817408A68B2403A43C2604A68E7
:100FB00012F0805FA9D09C0804F11806284A52F864
:100FC000267003F00302D600FF22B24027EA020790
:100FD000254A90423FF464AF02F58052904228D0F7
:100FE00002F58052904226D0B0F1502F25D002F564
:100FF0000052904223D002F58052904221D002F557
:10100000805290421FD002F5805290421DD002F5CE
:10101000805290421BD002F58052904219D002F5C6
:101020008052904217D0114A90423FF437AF1922B4
:1010300037E7012235E7022233E7032231E70422B2
:101040002FE705222DE706222BE7072229E70822B2
:1010500027E7092225E70A2223E7F0BC70477047FB
:1010600000D00050C0D0005000200050004000547C
:101070000AB18161704709048161704743690B427D
:1010800001D08162704781617047000020304FF0CD
:10109000984353F82020034B9A4201D00120704717
:1010A000002070470002008041F400714FF0984327
:1010B00043F8201070477047704700005AB90A4B38
:1010C000D86801F00F01012303FA01F1084000384C
:1010D00018BF01207047054BD86801F00F010123AC
:1010E00003FA01F10840F2E71010004C0010004C28
:1010F000F8B50746114B5E68F64306F03F03104A09
:10110000D6681E40002502E026EA040601359EB19D
:1011100005F00F0301249C402642F7D0074A53688C
:101120002343536007EB85035B68002BECD001225F
:10113000294638469847E7E7F8BD00BF1010004C35
:101140000010004C59B90B494B6800F00F004FF4E8
:10115000803202FA00F023EA000048607047054937
:101160004B6800F00F00012202FA00F023EA0000B1
:10117000486070471010004C60B370B50E4690F890
:101180003840E4B2012C01D0012070BD82B9063193
:1011900000EB81014B6006F00F014FF4803303FA3E
:1011A00001F1436B0B434363012A0DD00020ECE7B0
:1011B00000EB81014B6006F00F01012303FA01F1FE
:1011C000436B0B434363EFE711463046FFF7BAFF2B
:1011D0000020DAE70120704738B590F83830DBB2EC
:1011E000012B01D0012038BD0C460C4B996862B927
:1011F0004FF4803304F00F05AB401943074DA9604D
:10120000416B8B4303D00020EDE70123F2E7114649
:101210002046FFF797FF0020E5E700BF1010004CC5
:101220000023052B0AD800EB8302054951609A1D63
:1012300000EB8202034951600133F2E7704700BFBF
:10124000B7100010B9100010002303604FF03F13D7
:1012500043603F2383607047C0B138B5044690F8BF
:10126000383083B10A4D2846FFF7EEFF2B6843F074
:1012700001132B602046FFF7D3FF0020606301239A
:1012800084F8383038BDFFF769FCEBE70120704780
:101290001010004C024A136843F4807313607047C7
:1012A0000010005038B505464FF0A0434FF480724F
:1012B0001A61FFF779FD04464FF0A043D3F80838D0
:1012C00013F4807F06D0FFF76FFD001B6428F3D96D
:1012D000032038BD4FF0A0434FF490621A617DB3F4
:1012E000B5F5A06F19D0B5F5B06F1CD04FF0A04286
:1012F000D36843F48073D360FFF756FD04464FF084
:10130000A043D3F8083813F4807F17D1FFF74CFDC2
:10131000001B6428F3D90320DBE71A46DB6843F49B
:101320008063D360E2E74FF0A043DA6842F08002C6
:10133000DA60DA6842F48062DA60D7E70020C8E752
:101340000020C6E738B505464FF0A042D2F840313C
:1013500023F00103C2F84031FFF726FD04464FF0A9
:10136000A043D3F8403113F0040F08D0FFF71CFD61
:10137000001B41F288339842F1D9032038BD4FF069
:10138000A042D2F8403123F00A03C2F84031B5B38D
:10139000032D1CD00B2D21D04FF0A042D2F84031AC
:1013A00043F00103C2F84031FFF7FEFC04464FF062
:1013B000A043D3F8403113F0040F1ED1FFF7F4FC23
:1013C000001B41F288339842F1D90320D6E7D2F8C6
:1013D000403143F00203C2F84031DDE74FF0A04353
:1013E000D3F8402142F00802C3F84021D3F840214D
:1013F00042F00202C3F84021CEE70020BEE7002001
:10140000BCE7000038B50368002B00F01D810446DE
:101410004FF0A042126A02F00302022A28D04FF0D5
:10142000A042126A02F00302032A28D0022B2DD018
:101430004FF0A043D3F8802022F07002C3F8802040
:10144000D3F8802022F00102C3F88020FFF7ACFC23
:1014500004464FF0A043D3F8803013F0020F00F0A1
:10146000F180FFF7A1FC001B6428F2D90320ECE017
:101470004FF0A042126A002AD1DA0120E5E04FF0D5
:10148000A042126A002AD1DA0120DEE04FF0A04328
:10149000D3F8802022F07002C3F88020D3F8802097
:1014A00022F00102C3F88020FFF77EFC05464FF0D2
:1014B000A043D3F8803013F0020F06D0FFF774FC7E
:1014C000431B642BF3D90320BFE04FF0A0435B6ABA
:1014D00003F00703022B13D04FF0A042936A23F0CE
:1014E000030361680B4393624FF0A0439B6A002B98
:1014F00015DBFFF759FC401B6428F5D90320A4E055
:101500004FF0A0435B6A002BE6DA62684FF0A0431D
:101510009B6A03F003039A42E6D0012095E04FF066
:10152000A041D1F88420494B1340E268013AA068F9
:10153000013842EA00421343C1F88430D1F88830C0
:1015400023F07F1323F4FE432269013A60690138D6
:1015500042EA0022A069013842EA00421343C1F87E
:101560008830D1F88C3023F48033C1F88C30636A32
:10157000022B00D0ABBB4FF0A042D2F88C3023F44A
:101580007F4323F0F803C2F88C304FF0A042D2F82A
:101590008C3043F48033C2F88C30636A022B2ED037
:1015A0004FF0A042D2F8803023F00403C2F880301C
:1015B0004FF0A042D2F8803043F00103C2F88030EF
:1015C000FFF7F2FB04464FF0A043D3F8803013F04E
:1015D000020F2DD1FFF7E8FB001B6428F3D903208D
:1015E00033E04FF0A042D2F88C3023F47F4323F055
:1015F000F803216A43EAC103C2F88C30C5E71146FB
:10160000D2F8902002F00042A36A206B0343E06A04
:101610000343606B0343A06B43EA00431343C1F8E9
:101620009030D1F8803043F00403C1F88030BFE738
:101630004FF0A042D2F8803043F07003C2F88030FF
:10164000002002E0002000E0002038BD00FEC0FFC6
:101650000368032B47D8DFE803F002222B344FF056
:10166000A043D3F8083813F0010F3ED010B54FF067
:10167000A042136A23F0030301680B431362FFF7D0
:1016800093FB04464FF0A0431B6A002B29DBFFF7B6
:101690008BFB001BB0F57A7FF4D9032022E04FF0DA
:1016A000A043D3F8083813F4807FDFD101207047BE
:1016B0004FF0A043D3F8803013F0020FD6D10120B1
:1016C00070474FF0A043D3F8803013F0020F0ED0D4
:1016D0004FF0A042D36A23F0070341680B43D36263
:1016E000C4E7002010BD0120704701207047012091
:1016F000704738B504460368012B25D0022B2CD047
:10170000CBB14FF0A0414A6A22F0070213434B626B
:101710002368032B2AD0FFF747FB05464FF0A04371
:101720005B6A002B32DBFFF73FFB431BB3F57A7F8D
:10173000F4D9032038BD4FF0A042D2F8082812F0A7
:10174000010FDED10120F5E74FF0A042D2F80828C2
:1017500012F4807FD5D10120ECE74FF0A042D2F8FF
:10176000942012F0020FCCD10120E3E7FFF71CFB1D
:1017700005464FF0A0435B6A002B07DAFFF714FB26
:10178000431BB3F57A7FF4D90320D3E74FF0A0428F
:10179000136B23F0070361680B431363FFF704FB2C
:1017A00004464FF0A0431B6B002B07DBFFF7FCFA4E
:1017B000001BB0F57A7FF4D90320BBE70020B9E71E
:1017C00030B44FF0A042D2F8201801F00301D2F853
:1017D0008438C3F305435D1CD2F88C38C3F300434F
:1017E000D2F88C48C4F3CC0403FB04F307EE903A20
:1017F000B8EE677AD2F88438C3F30803013307EEF2
:10180000903AF8EE677A9FED3A6AC7EE066A77EE8D
:10181000A67A03293AD8DFE801F002232D374FF0EA
:10182000A043D3F8083813F0040F0FD04FF0A043B3
:101830009A6902F003022F4BD340B3FBF5F307EE96
:10184000103AB8EE477A67EE877A1FE0294BB3FB70
:10185000F5F307EE103AB8EE477A67EE877A15E0AF
:10186000254BB3FBF5F307EE103AB8EE477A67EE77
:10187000877A0BE0214BB3FBF5F307EE103AB8EE95
:10188000477A67EE877A01E0DFED1D7A4FF0A042DC
:10189000D2F8883803F07F03013307EE103AB8EE30
:1018A000477AC7EE876AFCEEE66AC0ED006AD2F8B6
:1018B0008838C3F30623013307EE103AB8EE477AAF
:1018C000C7EE876AFCEEE66AC0ED016AD2F8883896
:1018D000C3F30643013307EE103AB8EE477AC7EE7A
:1018E000876AFCEEE66AC0ED026A30BC704700BF52
:1018F00000F8FF450090D00300366E0100093D005E
:10190000000000004FF0A0439B6C03F00303032B87
:1019100003D8DFE803F00D1715040020704700B569
:1019200085B001A8FFF74CFF019805B05DF804FBF6
:101930004FF0A0439B6903F003030348D84070476E
:1019400002487047024870470090D00300093D00EC
:1019500000366E0110B54FF0A043D3F8304804F0C4
:101960000F04092C00D90924FFF7CCFFE04010BD7B
:1019700008B5FFF7EFFF08BD002800F07D8238B5FD
:101980000446036813F0010F3ED04FF0A0431B6ADA
:1019900003F00303012B00F0E6804FF0A0435B6AE5
:1019A00003F00703012B00F0F3804FF0A0439B6C82
:1019B00003F00303012B00F0F2804FF0A0439B6A79
:1019C00003F00303012B00F0F1804FF0A043D3F8A4
:1019D000203803F00303012B00F0F7804FF0A04301
:1019E000D3F8243803F00303012B07D14FF0A043B1
:1019F000D3F8943813F0020F40F0BB806068FFF713
:101A000051FC002840F02682236813F0020F00F0FA
:101A1000EF804FF0A0431B6A13F0030F04D14FF087
:101A2000A0431B6A002B47DB4FF0A0435B6A13F017
:101A3000070F04D14FF0A0435B6A002B3CDB4FF053
:101A4000A0439B6C13F0030F04D14FF0A0439B6C99
:101A5000002B31DB4FF0A0439B6A13F0030F0DD135
:101A60004FF0A043D3F8803013F0020F24D14FF091
:101A7000A043D3F8943013F0020F1DD14FF0A043D0
:101A8000D3F8203813F0030F06D14FF0A043D3F85A
:101A9000803813F0020F0FD14FF0A043D3F8243851
:101AA00013F0030F40F0DE804FF0A043D3F89438DA
:101AB00013F0020F00F0D6804FF0A043D3F808389F
:101AC00013F0010F03D0E368012B40F0D7814FF0F2
:101AD000A042936923F4FE43216943EA0123936101
:101AE000936A13F0030F09D1D2F8803013F0020F7C
:101AF00073D1D2F8943013F0020F6ED14FF0A0439F
:101B0000D3F8203813F0030F06D14FF0A043D3F8D9
:101B1000803813F0020F60D14FF0A043D3F824387F
:101B200013F0030F06D14FF0A043D3F8943813F00D
:101B3000020F52D14FF0A042936923F00303616971
:101B40000B439361FFF730F905464FF0A043D3F8FC
:101B5000083813F0040F40D1FFF726F9401B642822
:101B6000F3D9032076E14FF0A0431B6A002BBFF6A8
:101B700014AF4FF0A043D3F8083813F4807F3FF43C
:101B800043AF6368B3F5807F3FF43EAF012061E16E
:101B90004FF0A0435B6A002BBFF607AFE9E74FF0B9
:101BA000A0439B6C002BBFF608AFE2E74FF0A043C9
:101BB000D3F8803013F0020FDBD14FF0A043D3F8FD
:101BC000943013F0020FD4D1FFE64FF0A043D3F8C6
:101BD000803813F0020FCCD100E7FFF7C9FEAA4B03
:101BE0001860AA4B1868FFF797F8002840F0488162
:101BF000236813F0100F00F0A4804FF0A043D3F837
:101C0000203803F00303022B7FD04FF0A0439B6CDE
:101C100003F00303022B00F0B4804FF0A043D3F88D
:101C2000243803F00303022B00F0B280E369002B99
:101C300000F0C1804FF0A042D36843F01003D3609E
:101C4000FFF7B2F805464FF0A043D3F8083813F079
:101C5000100F40F0A680FFF7A7F8401B6428F2D9C8
:101C60000320F7E0E368002B39D04FF0A042D3689F
:101C700043F00103D360FFF797F805464FF0A04308
:101C8000D3F8083813F0010F06D1FFF78DF8401B89
:101C90006428F3D90320DDE04FF0A042936923F0DC
:101CA000030361690B439361FFF77EF805464FF02C
:101CB000A043D3F8083813F0040F06D1FFF774F8E7
:101CC000401B6428F3D90320C4E04FF0A04293697D
:101CD00023F4FE43216943EA0123936188E74FF02F
:101CE000A04301221A61FFF75FF805464FF0A043B9
:101CF000D3F8083813F0010F3FF47AAFFFF754F828
:101D0000401B6428F2D90320A4E04FF0A043D3F88D
:101D1000803813F0020F3FF478AF4FF0A043D3F8B0
:101D2000083813F0100F03D0E369102B40F0AA809D
:101D30004FF0A042D36923F4F853216A43EA012308
:101D4000D361236813F0080F63D0A369002B47D039
:101D50004FF0A042D2F8443143F00103C2F84431BD
:101D6000FFF722F805464FF0A043D3F8443113F0B3
:101D7000020F4ED1FFF718F8401B6428F3D9032057
:101D800068E04FF0A0439B6C002BBFF646AFC4E762
:101D90004FF0A043D3F8943813F0020F3FF446AF4E
:101DA000BBE74FF0A042D36923F4F853216A43EA1A
:101DB0000123D361C5E74FF0A04310221A61FEF75B
:101DC000F3FF05464FF0A043D3F8083813F0100F87
:101DD000B7D0FEF7E9FF401B6428F3D9032039E0B0
:101DE0004FF0A042D2F8443123F00103C2F844314D
:101DF000FEF7DAFF05464FF0A043D3F8443113F065
:101E0000020F06D0FEF7D0FF401B6428F3D9032051
:101E100020E0236813F0040F17D01D4A136843F421
:101E200080731360FEF7C0FF0546194B1B6813F45F
:101E3000807F06D1FEF7B8FF401B6428F5D9032048
:101E400008E0A068FFF77EFA20B904F12400FFF74C
:101E5000D9FA00B138BD04F1600000F051F9002852
:101E6000F8D104F19C0000F075FA0028F2D104F1D9
:101E7000D80000F07DFBEDE7012070470120E9E785
:101E80000120E7E70120E5E78C0002109400021032
:101E90000010005038B505460368032B0AD8DFE868
:101EA00003F0022029324FF0A042D2F8082812F0A5
:101EB000010F5ED04FF0A0418A6C22F00302134361
:101EC0008B64FEF771FF04464FF0A0439B6C002B20
:101ED00022DBFEF769FF031BB3F57A7FF4D90320F9
:101EE00038BD4FF0A042D2F8082812F4807FE1D12B
:101EF0000120F5E74FF0A042D2F8082812F0100FA9
:101F0000D8D10120ECE74FF0A042D2F8802812F09F
:101F1000020FCFD10120E3E7FFF72AFD164B18602F
:101F2000164B1868FEF7F8FE4FF0A042D2F8303892
:101F300023F00F0369680B43C2F83038FEF734FF13
:101F400004464FF0A043D3F83038002B07DBFEF7F0
:101F50002BFF001BB0F57A7FF3D90320C0E7FFF712
:101F600007FD054B1860054B1868FEF7D5FE0020ED
:101F7000B6E70120B4E700BF8C0002109400021005
:101F8000002800F0BB8038B50446036813F0010F49
:101F90001DD1236813F0020F1FD1236813F0040F23
:101FA00022D1236813F0080F25D1236813F0100FF6
:101FB00039D1236813F0200F4DD1236813F0400F5F
:101FC00064D1236813F0800F7BD1002038BD04302A
:101FD000FFF73EFB0028DCD0F8E704F10C00FFF728
:101FE00088FB0028D9D0F1E704F11400FFF752FF75
:101FF0000028D6D0EAE74FF0A042D36B23F00703C6
:10200000E1690B43D363FEF7CFFE05464FF0A043D3
:10201000DB6B002BC9DBFEF7C7FE401BB0F57A7FF8
:10202000F4D90320D2E74FF0A042136C23F007034A
:10203000216A0B431364FEF7B7FE05464FF0A04339
:102040001B6C002BB5DBFEF7AFFE401BB0F57A7FB3
:10205000F4D90320BAE74FF0A042D2F8343823F085
:102060000703616A0B43C2F83438FEF79DFE05464C
:102070004FF0A043D3F83438002B9EDBFEF794FEDC
:10208000401BB0F57A7FF3D903209FE74FF0A042C1
:10209000D2F8383823F00703A16A0B43C2F8383866
:1020A000FEF782FE05464FF0A043D3F83838002BE8
:1020B00087DBFEF779FE401BB0F57A7FF3D903206A
:1020C00084E74FF0A042D2F83C3823F00703E16ADE
:1020D0000B43C2F83C38FEF767FE04464FF0A043BE
:1020E000D3F83C38002B07DBFEF75EFE001BB0F593
:1020F0007A7FF3D9032069E7002067E70120704762
:1021000038B50368002B00F01F8104464FF0A04251
:10211000526A02F00702022A2FD0022B40F0F3800D
:102120004FF0A0439B6A13F0030F07D04FF0A0437A
:102130009B6A03F00303012B40F008814FF0A0439A
:10214000D3F8942022F07002C3F89420D3F894209E
:1021500022F00102C3F89420FEF726FE05464FF058
:10216000A043D3F8943013F0020F0DD0FEF71CFEFD
:10217000431B642BF3D90320E7E04FF0A042526ADF
:10218000002ACADA0120E0E04FF0A0431B6A03F006
:102190000303022B71D04FF0A0431B6A03F003032B
:1021A000032B79D04FF0A042936A23F003036168B8
:1021B0000B4393624FF0A041D1F89820644B134039
:1021C000E268013AA068013842EA00421343C1F8CC
:1021D0009830D1F89C3023F07F1323F4FE4322691A
:1021E000013A6069013842EA0022A069013842EAF6
:1021F00000421343C1F89C30D1F8A03023F480335F
:10220000C1F8A030636A022B01D0002B4AD14FF0F5
:10221000A042D2F8A03023F47F4323F0F803C2F8A1
:10222000A0304FF0A042D2F8A03043F48033C2F87F
:10223000A030636A022B43D04FF0A042D2F8943012
:1022400023F00403C2F894304FF0A042D2F8943047
:1022500043F00103C2F89430FEF7A6FD04464FF0A8
:10226000A043D3F8943013F0020F42D1FEF79CFD47
:10227000001B6428F3D9032067E04FF0A0431B6ADA
:10228000002B88DA62684FF0A0439B6A03F00303D7
:102290009A428FD0012058E04FF0A0431B6A002BD8
:1022A00080DAEFE74FF0A042D2F8A03023F47F436A
:1022B00023F0F803216A43EAC103C2F8A030B0E773
:1022C0001146D2F8A42002F00042A36A206B034317
:1022D000E06A0343606B0343A06B43EA004313438C
:1022E000C1F8A430D1F8943043F00403C1F894301D
:1022F000AAE74FF0A042D2F8943043F07003C2F83E
:102300009430002021E04FF0A043D3F8942022F035
:102310007002C3F89420D3F8942022F00102C3F88D
:102320009420FEF741FD04464FF0A043D3F89430CB
:1023300013F0020F06D0FEF737FD001B6428F3D917
:10234000032002E0002000E0002038BD0120FCE76F
:1023500000FEC0FF38B50368002B00F0048104467E
:102360004FF0A042926C02F00302032A21D0022B0C
:1023700026D04FF0A043D3F8802822F07002C3F893
:102380008028D3F8802822F00102C3F88028FEF7C5
:102390000BFD04464FF0A043D3F8803813F0020F32
:1023A00000F0DF80FEF700FD001B6428F2D9032057
:1023B000DAE04FF0A042926C002AD8DA0120D3E094
:1023C0004FF0A043D3F8802822F07002C3F8802891
:1023D000D3F8802822F00102C3F88028FEF7E4FC3D
:1023E00005464FF0A043D3F8803813F0020F06D013
:1023F000FEF7DAFC431B642BF3D90320B4E04FF063
:10240000A042D2F8203823F0030361680B43C2F8DE
:1024100020384FF0A043D3F82038002B06DBFEF71E
:10242000C3FC401B6428F4D903209DE04FF0A04377
:10243000D3F8842822F04072E1690A43C3F8842863
:10244000D3F88418494A0A40E1680139A068013884
:1024500041EA00410A43C3F88428D3F8882822F0CF
:102460007F1222F4FE42216901396069013841EA94
:102470000021A069013841EA00410A43C3F88828D5
:10248000D3F88C2822F48032C3F88C28636A022B9C
:1024900000D0ABBB4FF0A042D2F88C3823F47F437E
:1024A00023F0F803C2F88C384FF0A042D2F88C38F1
:1024B00043F48033C2F88C38636A022B2ED04FF07D
:1024C000A042D2F8803823F00403C2F880384FF0DD
:1024D000A042D2F8803843F00103C2F88038FEF7FA
:1024E00063FC04464FF0A043D3F8803813F0020F8A
:1024F0002DD1FEF759FC001B6428F3D9032033E0EB
:102500004FF0A042D2F88C3823F47F4323F0F80335
:10251000216A43EAC103C2F88C38C5E71146D2F8F4
:10252000902802F00042A36A206B0343E06A034351
:10253000606B0343A06B43EA00431343C1F8903838
:10254000D1F8803843F00403C1F88038BFE74FF07A
:10255000A042D2F8803843F07003C2F880380020DF
:1025600002E0002000E0002038BD00BF00FEC0FFF8
:1025700038B50368002B00F0F6800446022B1FD00C
:102580004FF0A043D3F8942822F07002C3F89428A7
:10259000D3F8942822F00102C3F89428FEF704FC33
:1025A00004464FF0A043D3F8943813F0020F00F024
:1025B000D880FEF7F9FB001B6428F2D90320D3E092
:1025C0004FF0A043D3F8942822F07002C3F8942867
:1025D000D3F8942822F00102C3F89428FEF7E4FB14
:1025E00005464FF0A043D3F8943813F0020F06D0FD
:1025F000FEF7DAFB431B642BF3D90320B4E04FF062
:10260000A042D2F8243823F0030361680B43C2F8D8
:1026100024384FF0A043D3F82438002B06DBFEF714
:10262000C3FB401B6428F4D903209DE04FF0A04376
:10263000D3F8982822F04072E1690A43C3F8982839
:10264000D3F89818494A0A40E1680139A06801386E
:1026500041EA00410A43C3F89828D3F89C2822F0A5
:102660007F1222F4FE42216901396069013841EA92
:102670000021A069013841EA00410A43C3F89C28BF
:10268000D3F8A02822F48032C3F8A028636A022B72
:1026900000D0ABBB4FF0A042D2F8A03823F47F4368
:1026A00023F0F803C2F8A0384FF0A042D2F8A038C7
:1026B00043F48033C2F8A038636A022B2ED04FF067
:1026C000A042D2F8943823F00403C2F894384FF0B3
:1026D000A042D2F8943843F00103C2F89438FEF7D0
:1026E00063FB04464FF0A043D3F8943813F0020F75
:1026F0002DD1FEF759FB001B6428F3D9032033E0EA
:102700004FF0A042D2F8A03823F47F4323F0F8031F
:10271000216A43EAC103C2F8A038C5E71146D2F8DE
:10272000A42802F00042A36A206B0343E06A03433B
:10273000606B0343A06B43EA00431343C1F8A43822
:10274000D1F8943843F00403C1F89438BFE74FF050
:10275000A042D2F8943843F07003C2F894380020B5
:1027600002E0002000E0002038BD00BF00FEC0FFF6
:10277000F8B50D4617460B4B9C690B4B9C420ED08F
:10278000A4F17C06294654F87C0CFDF759FC08B1ED
:102790002468F2E73E60304600F0CAF901E06FF0CD
:1027A0001200F8BD6C0F0210840F0210F8B5174626
:1027B000069E079D9D4206D0194606EB46029200F2
:1027C000284601F0B5F9002412E004EB440305EBC0
:1027D0008302916855F8230000F0E8F904EB440304
:1027E00005EB8301896855F8230000F0E0F9013416
:1027F000B44202DA022FF1D1E7E73046F8BD70B5F6
:102800001D46049E0024B4420ADA04EB440205EBA0
:102810008203996855F8220000F0C9F90134F2E703
:1028200070BD0000F8B505460F460C4B9C6800E0F3
:1028300024680B4B9C420DD0A4F12406294654F881
:10284000240CFDF7FDFB03460028F1D1002FEFD04B
:102850003E6001E06FF001031846F8BD6C0F0210F6
:10286000740F021020B310B50446006818B3037843
:1028700023B30021FFF7D6FF18B304F11C03236232
:10288000E36104F12402124BD968A16203F108004C
:102890006062DA600A601B78062B15D9A0F1080384
:1028A0005B689BB122680B490720984700200CE029
:1028B0006FF0150070476FF0150006E06FF015001F
:1028C00003E06FF0100000E0002010BD0020FCE7E6
:1028D0006C0F0210F0520010A8B130B583B00C4656
:1028E0001546027892B1A1B10A78AAB1BDB101A989
:1028F000FFF798FF28B9019883689BB12A462146C3
:10290000984703B030BD6FF0150070476FF01500A9
:10291000F7E76FF01500F4E76FF01500F1E76FF0DF
:102920001500EEE76FF01200EBE700000368B3B1AB
:102930001B78BBB18368022B17D810B40C4B4360D3
:1029400000F17C010B4BDA69C0F8802003F1180418
:10295000C467D961116000205DF8044B70476FF0C7
:10296000150070476FF0150070476FF01500704745
:10297000980002106C0F021038B505460C4C20224E
:102980000021204601F0E2F82B6863602A79234693
:1029900003F8082BE360A36004F110036361236173
:1029A00004F11803E361A361284600F0D9F838BDAB
:1029B0006C0F02102DE9F04389B004468846174693
:1029C0001E46109D20220021684601F0BFF8C4F881
:1029D00000806760A660E5601F2D15D94FF0FF33BA
:1029E0002361119B6361129BABB104F118061D4674
:1029F0000FCD0FC695E80F0086E80F00204600F0C7
:102A0000B7F809B0BDE8F083012303FA05F909F12D
:102A1000FF332361E5E704F118056E460FCE0FC5BD
:102A200096E80F0085E80F00E8E770B582B004680B
:102A3000B4F1FF3F11D08568A94210D20C448568DB
:102A40008D422FD95E18B54200D26B1A056A45B186
:102A500000930523A84702B070BD0024EFE70024CF
:102A6000EDE7BFF35B8F194604E014F8010B02F8A1
:102A7000010B013959B112F0030FF6D114F0030F15
:102A8000F3D104E054F8040B42F8040B0439032991
:102A9000F8DC29B114F8010B02F8010B0139F8E751
:102AA0001846D8E76FF02100D5E770B582B004680A
:102AB000B4F1FF3F11D08568A94210D20C4485685B
:102AC0008D422FD95E18B54200D26B1A456AE5B126
:102AD00000930523A84702B070BD0024EFE700244F
:102AE000EDE712F8010B04F8010B013929B114F0DC
:102AF000030FF6D112F0030FF3D1032907DD52F8CB
:102B0000040B44F8040B0439F7E71946EEE729B142
:102B100012F8010B04F8010B0139F8E7BFF35B8FE2
:102B20001846D8E76FF02100D5E70EB403B0704720
:102B300038B505460024AB68A3420FD9C4EBC400E6
:102B4000C000083028440430C4EBC40305EBC303C1
:102B50005B691BB100F00CF80134ECE7002038BDD4
:102B600008B50248FFF77EFE002008BD980002105D
:102B7000F8B506688768C7B10446C36837FA03F238
:102B800001D001279F400025A368E268D340AB42F3
:102B90000BD3616863693A4651F82510304600F05E
:102BA00007F806EB87060135EEE7F8BD704770477A
:102BB0007047704710B503890268916A99420CD931
:102BC000A2F11000D16A03EB430301EBC303C46815
:102BD000196952F8100CA04710BD034B034A1C2181
:102BE000034800F041FF00BFB05300107C4F0010BD
:102BF000CC53001010B550F80C1C103880681831F8
:102C00000368C91A836899420ED20368B3F1FF3F83
:102C10000DD0826891420CD20B4484695CB10123CF
:102C20000522A047C0B210BD4FF0FF31EDE70023F1
:102C3000F3E70023F1E72BB1BFF35B8F1878BFF305
:102C40005B8FEFE7024B034AFE21034800F00CFFC5
:102C5000745400109C4F00107854001010B550F8B8
:102C60000C1C103880680C310368C91A83689942BB
:102C70000DD20368B3F1FF3F0CD0826891420BD2B2
:102C80000B44846954B104230522A04710BD4FF0C2
:102C9000FF31EEE70023F4E70023F2E72BB1BFF3A7
:102CA0005B8F1868BFF35B8FF0E72BB1BFF35B8FCF
:102CB0001868BFF35B8FE9E7024B034AFE21034824
:102CC00000F0D2FE745400109C4F00107854001095
:102CD00038B5044650F80C1C50F8080C1031036845
:102CE000C91A8368994212D20368B3F1FF3F11D029
:102CF0008268914210D20B4485697DB1042305227C
:102D0000A84705462046FFF7A9FF284038BD4FF0E9
:102D1000FF31E9E70023EFE70023EDE72BB1BFF335
:102D20005B8F1D68BFF35B8FECE72BB1BFF35B8F4D
:102D30001D68BFF35B8FE5E7024B034AFE210348A2
:102D400000F092FE745400109C4F00107854001054
:102D50002DE9F04F85B0814602919246039392F897
:102D60001980482000F0D4FE834600286BD008EB81
:102D70004800C00000F0CCFE074600285DD0482285
:102D80000021584600F0E2FE00253D607D60BD60F8
:102D9000FD603D617D610BF1100301934E4613E030
:102DA0000024E4003434204600F0B2FE814618B11D
:102DB0002246002100F0CAFEB9F1000F38D005EB21
:102DC000450347F833900135454507D2002EE7D13A
:102DD00005EB85030AEB83035C6AE2E70F9BCBF804
:102DE0000C300E9BCBF80030CBF83C70CBF804A035
:102DF000039BCBF80830029BCBF81030CBF828604F
:102E0000109BCBF82C30CBF83880104BCBF83030FF
:102E1000019805B0BDE8F08F013444450AD204EBB7
:102E2000440357F833000028F6D000F079FEF3E7AA
:102E30000024F2E7384600F073FE584600F070FEBA
:102E400000230193E4E70190E2E700BFAC4F0010DC
:102E500010B4846A8C4210D9C06A01EB410100EBC6
:102E6000C101019848610A614B60029B8B81039B01
:102E70008B6000205DF8044B70476FF00100F9E7AC
:102E8000E8B1F8B50D46064603688B421AD0876A4A
:102E9000002403E0505800F09EFD0134BC420CD2E7
:102EA000F26A04EB4403D90002EBC3031B69AB4293
:102EB000F0D0B5F1FF3FF0D1ECE70020F8BD6FF0A6
:102EC000010070470020F9E710B5044683692BB173
:102ED0002046FFF78FFE10F0040FF9D010BD10B49C
:102EE0000446002081420AD9430954F8233000F0F7
:102EF0001F02D34013F0010F01D00130F2E78142ED
:102F00000DD9410900F01F02012303FA02F254F81F
:102F10002130134344F821305DF8044B70474FF0E3
:102F2000FF30F9E78A420BDA510902F01F02012350
:102F300003FA02F250F8213023EA020340F821306C
:102F4000704700008A4209DA530950F8230002F062
:102F50001F0220FA02F202F0010070470048704799
:102F60002DF8FFFF8A420CDA510902F01F020123FB
:102F700003FA02F250F82130134340F821300020C8
:102F800070470148704700BF2DF8FFFFA8B110B58A
:102F90000446006A626AB2F1FF3F09D104F13403CA
:102FA000616BA26B4A60616B1160A363636310BDC8
:102FB00080214830FFF7B6FFF0E7704780B130B5A9
:102FC00083B0006A70B17BB1B2F1FF3F0ED0046EE6
:102FD00074B1079D0195069D0095A04703B030BDD3
:102FE000044870470348F9E70248F7E70148F5E766
:102FF0000048F3E72DF8FFFF30B58DB004460B9184
:10300000456A0A952022014602A801F0ADF9012384
:1030100001932823009302AB352229462046FFF76F
:10302000CDFF002800DB00200DB030BD2DE9F843B6
:1030300081460F4616469846056809E0A36A43454F
:1030400013D12DE000201AE0B6F1FF3F22D02D6809
:10305000A94524D0A5F13404B6F1FF3F02D0636A3C
:10306000B3421DD0636AB342E8D0002FEAD02022D9
:103070003946204601F066F9B0FA80F04009002F89
:10308000E5D00028E3D0B8F1FF3FDDD0A36A434587
:10309000DAD105E0A36AB3F1FF3FD8D100E0002404
:1030A0002046BDE8F883086201F1340342688A6370
:1030B000486343608A6B1360704700002DE9F04756
:1030C000002879D00D4690461C460746002305F19E
:1030D00058060121BFF35B8F56E8002F9A4202D1B8
:1030E00046E800100028BFF35B8F1346EFD1B4F120
:1030F000FF3F55D005F1480A224680215046FFF790
:1031000021FF814660B1002801DD4FF00009BFF3C7
:103110005B8F00233360BFF35B8F4846BDE8F087C9
:10312000224680215046FFF71DFFB8F1000F40D026
:1031300020224146384601F017F97C62089BBB62A9
:10314000099BFB620A9B3B6339462846FFF7ABFFAE
:1031500095F86430002BDAD0BB6AB3F1FF3FD6D1CB
:10316000BFF35B8F00243460BFF35B8F214638468A
:10317000FFF742FF81460122BFF35B8F56E8003F15
:10318000A34202D146E800210029BFF35B8F1C4611
:10319000F1D1B9F1000FBAD03846FFF7F7FEB6E724
:1031A000802105F14800FFF79AFE04464FF0000920
:1031B000BBE7DFF80C80BBE7DFF80890ADE700BFA6
:1031C000E85000102DF8FFFF80B592B000AFF86016
:1031D000B9607A603B60FB681B6A7B647B6C3B6414
:1031E0003B6C5B6FFB63BB68BB637B68282B01D0C8
:1031F000002357E0BB6B1946F86B00F0D7F8014687
:1032000007F110022023F86BFFF70FFCBB6B1B6A62
:103210007B637B6C5833184600F0D2F807F110013D
:103220007B6B4FF0FF32786CFFF700FF3863BB6BAE
:103230005B6A03F00103002B17D03B6B002B03D01C
:103240003B6B4FF0FF329A627B6C5833184600F0AC
:10325000DDF83B6B002B24D03B6B1B6B002B20D08D
:103260003B6B1B6BF86898471BE03B6B002B10D146
:103270007B6C5833184600F0C9F87B6CDB6D002B73
:103280000FD07B6CDB6D07F110017A6B786C98477F
:1032900007E03B6B7A6B9A627B6C5833184600F000
:1032A000B5F8002318464837BD4680BD2DE970416A
:1032B00087B004460D4690461E466822002100F065
:1032C00045FCBFF35B8F0023A365BFF35B8FA5664F
:1032D000C4F85C806C622F4B2366A36ED3F8188011
:1032E000B8F1010F1CD0A06E036A9B689847286153
:1032F00000236B6100F0010084F86400B8F1010F55
:1033000012D0666702AB009304AB02220021A06ECC
:1033100000F006FA8046B0B1404607B0BDE87081C3
:10332000204600F05EF8DEE71B4B0493083305935C
:103330001A4B02931A4B0393EB6A9B69E366EB6AA1
:103340001B682367DDE7206F00F000FB002206E02A
:10335000EB6A02EB420153F831309E620132012ADE
:10336000F6D96460246094F86430002BD4D004F162
:10337000080520220B49284600F0F6FF3523E362BA
:103380002363094B63630023A36329462046FFF7A9
:103390008AFEC1E7A9350010D04F00100B34001091
:1033A00081340010E04F0010C9310010034600685E
:1033B000081A9B68834200D970474FF0FF30FBE743
:1033C00000230121BFF35B8F50E8002F9A4203D105
:1033D00040E8001CBCF1000FBFF35B8F1346F0D137
:1033E000704710B5044604E0A06E036A5B680021D4
:1033F0009847A06E036A1B68984710F0400FF3D1FE
:1034000010F0040FF5D0012010BD7047BFF35B8FA3
:1034100000230360BFF35B8F704708B5836E9B6921
:10342000012B01D0002008BD006F00F0BFFA10385A
:10343000F9D50020F7E7816E8969012900D070472E
:1034400008B51946C06E00F061FA08BD816E896941
:10345000012901D00020704708B51946006F00F01F
:1034600055FA08BD08B50B461146826E9269012ACD
:1034700001D0002008BD1A46C06E00F0D4F9F9E76B
:103480002DE9704384B003685E6AB046002306F1FC
:1034900058040121BFF35B8F54E8002F9A4202D1F8
:1034A00044E800100028BFF35B8F1346EFD10DF105
:1034B0000A0203A93046FFF7D5FF0546BFF35B8F2D
:1034C00000232360BFF35B8F30E0DCF82C90AA89E7
:1034D000294651F8103BDCF83C0000906046C84794
:1034E00000284ADB00230121BFF35B8F54E8002F43
:1034F0009A4202D144E800100028BFF35B8F1346C4
:10350000F1D1BDF80A30039A29463046FFF793FF00
:103510000DF10A0203A93046FFF7A4FF054668B380
:10352000BFF35B8F00232360BFF35B8F55B3002392
:103530000121BFF35B8F54E8002F9A4202D144E887
:1035400000100028BFF35B8F1346F1D14FF0FF331B
:103550006A6800214046FFF769FDBFF35B8F0023D7
:103560002360BFF35B8F84460028BBD0836AB3F12E
:10357000FF3FAAD12B688362A7E7FEE7F06E00F059
:1035800007FACDE704B0BDE8708308B50B461146D5
:10359000826E9269012A01D0002008BD1A46006F90
:1035A00000F041F9F9E700002DE9704F88B00446BA
:1035B000009101929B46109EDDF84480806E036A64
:1035C0001B68984710F0040F00F09480B8F1000FCA
:1035D00018D043F6982815E00DF10E0202A92046F6
:1035E000FFF7D3FFBFF35B8F00232B60BFF35B8F2D
:1035F000814640BBB8F1000F25D0BAF1000F7BD156
:1036000008F1FF38002304F158050121BFF35B8F57
:1036100055E8002F9A4202D145E800100028BFF378
:103620005B8F1346EFD12046FFF7F7FE8246002856
:10363000D2D0B042D0DABFF35B8F00232B60BFF350
:103640005B8F314E59E0B9F1000F5AD0019B0593C1
:10365000009B0493ADF81C6000230693D4F874809B
:10366000D8F80010A9EB0101D8F80830994208D227
:1036700010230DEB03024046FFF717FA102803D082
:10368000FEE74FF0FF31F3E709F11001D8F8003001
:10369000C91AD8F80830994207D233465A464046EC
:1036A000FFF703FA864203D0FEE74FF0FF31F4E75D
:1036B00000230121BFF35B8F55E8002F9A4202D10E
:1036C00045E800100028BFF35B8F1346F1D1BDF829
:1036D0000E30029A49462046FFF7B8FE00B1FEE7D9
:1036E000206F00F055F9BFF35B8F00232B60BFF311
:1036F0005B8F02E0054E00E0034E304608B0BDE8A7
:10370000708F034EF9E700BF2BF8FFFF2CF8FFFF87
:103710002EF8FFFF10B10160826042607047000028
:103720002DE9F04184B01F46DDF82880836A93427A
:1037300022D3054616460024B44218D2E96A04EBA7
:10374000440001EBC0032A6A51F830100291126A5A
:10375000019258F824200092043357F82420A1B293
:10376000284600F04DF8034610B90134E4E7002381
:10377000184604B0BDE8F081004BF9E740F4FFFFC4
:1037800043894361816101EB0311C16101EB430195
:1037900004311144013152420A400262704710B4B0
:1037A00001680C6904F000520023134317D08B69A1
:1037B000012B03D000205DF8044B7047036A5A8840
:1037C000C38CC169406901EB40018888101A80B23E
:1037D000013880B2834294BF00200120EBE78B695F
:1037E000012B01D00020E6E7C369188880F00100B2
:1037F00000F00100DFE708B5036903B1984708BD91
:1038000010B5044604980460426001811A8942811F
:103810008284029AC260039A02615A681968FFF7AB
:10382000AFFF002010BD2DE9F8430F469046BFF3CF
:103830005B8F038EC1694A88934264D005465A1C47
:1038400002861BB24289013A12B213409BB201EBCD
:1038500043039A8891B23A80836903EB0113D3F84A
:103860000090846A636BA3B1494620469847064698
:103870002068B0F1FF3F42D0A368B34241D9304441
:10388000AB693A8803EB02139B68C8F80030BDE8C7
:10389000F8832669B6F1FF3F02D009EA060617E071
:1038A00063681E68A9EB060612E0002318E04FF0DB
:1038B000FF3005E04FF0FF3002E0314620469847E8
:1038C0008145D5D020693044461CA3689E4213D25E
:1038D000236B002BF1D1E3681F2BE6D826FA03F304
:1038E0006268002AE3D0A1688E42E3D252F8230036
:1038F000236933401844E3E74FF0FF36B8E7002070
:10390000BEE70020BCE70020C1E7000043898B42EE
:1039100017D330B4046AB4F90250013B1BB22B40F8
:103920009BB204EBC30359609A60BFF35B8F026ADA
:10393000538801335380C38C0133C384002030BCCF
:1039400070470148704700BF41F4FFFF10B40168A1
:103950000C6904F000520023134310D08B69012B33
:1039600002D05DF8044B7047038E42899B1A9BB2CC
:10397000026A416902EBC102013B9380F1E78B6966
:10398000012BEED1026A138843F001031380E8E7AC
:1039900010B50446BFF35B8FFFF701FF10B900239A
:1039A000E38410BD2046FFF726FFF8E7038EC169C8
:1039B0004A8893420DD01BB24289013A12B2134099
:1039C0009BB201EB43039A88836903EB0213986867
:1039D00070470020704708B5BFF35B8FC36803B121
:1039E000984708BD08B54164A0F84820C36C03B1EE
:1039F0009847002008BD000000B583B00023009365
:103A0000064B4FF0FF320649FDF768F8002803DB4C
:103A1000002003B05DF804FB0120FAE7E53900104F
:103A2000D05400100346084609B9DA6470470120F3
:103A30007047B2F5F87F14D810B582B00B46144623
:103A4000826AB2F1FF3F0AD0012101910094416ADC
:103A5000FFF7B4FA002802DB002002B010BD0120FD
:103A6000FBE70120704700001FB514461A46094BBA
:103A70001B680546D8684CB1074B0091CDE901346D
:103A800006492B4600F00EF800F042FD044B1C46A0
:103A9000F3E700BFC4000210E2540010EF5400101E
:103AA0001D5500100EB403B5014603AB054853F88D
:103AB000042B0068019300F025F902B05DF804EBD7
:103AC00003B07047C400021070B50D4D0D4C641B5F
:103AD000A4100026A64209D10B4D0C4C01F0DEF9D2
:103AE000641BA4100026A64205D170BD55F8043B06
:103AF00098470136EEE755F8043B98470136F2E760
:103B0000B8550010B8550010B8550010BC5500103D
:103B1000024B0146186800F071B800BFC4000210E3
:103B2000024B0146186800F019B800BFC40002102B
:103B30000A44914200F1FF3300D1704710B511F8EB
:103B4000014B03F8014F9142F9D110BD02440346E5
:103B5000934200D1704703F8011BF9E737B50029FC
:103B600048D051F8043C0190002BA1F10404B8BFE7
:103B7000E41800F00DFF204A01981368154633B988
:103B80006360146003B0BDE8304000F007BFA3429B
:103B90000BD921686218934204BF1A685B6863609E
:103BA00004BF521822602C60ECE71A465B680BB128
:103BB000A342FAD911685518A5420BD124682144B3
:103BC0005418A3421160DDD11C685B685360214426
:103BD0001160D7E702D90C230360D3E72568611988
:103BE0008B4204BF19685B68636004BF4919216098
:103BF0005460C7E703B030BD84020210F8B5CD1C95
:103C000025F0030508350C2D38BF0C25002D064680
:103C100001DBA94203D90C2333600020F8BD00F07A
:103C2000B7FE21490A6814469CB9204F3B6823B966
:103C30002146304600F042FB38602946304600F00D
:103C40003DFB431C23D10C233360304600F0A6FE1D
:103C5000E3E723685B1B17D40B2B03D923601C44B9
:103C6000256004E06368A2420CBF0B6053603046DD
:103C700000F094FE04F10B00231D20F00700C21A8F
:103C8000CCD01B1AA350C9E722466468CCE7C41CF9
:103C900024F00304A042E3D0211A304600F00EFBCA
:103CA0000130DDD1CFE700BF84020210880202108C
:103CB0009368013B002B10B4936008DA9469A34227
:103CC00001DB0A2903D15DF8044B00F061BB1368E6
:103CD000581C1060197008465DF8044B7047F8B521
:103CE00006460F461446D518AC4201D1002007E025
:103CF00014F8011B3A463046FFF7DAFF431CF3D1B4
:103D0000F8BD00002DE9F04F0D469DB014469846D1
:103D1000064618B183690BB900F01CFD894B9D4222
:103D20001BD175686B6ED90705D4AB899A0502D48F
:103D3000A86D00F0ADFDAB891B0701D52B69EBB970
:103D40002946304600F076FBC0B16B6EDC070ED51D
:103D50004FF0FF301DB0BDE8F08F7B4B9D4201D18D
:103D6000B568DFE7794B9D4208BFF568DAE7AB89B4
:103D70009805EDD4A86D00F08CFDE9E700230993C8
:103D800020238DF82930CDF80C803023DFF8C08156
:103D90008DF82A304FF0010923469A4613F8012B7B
:103DA0000AB1252AF9D1BAEB040B0BD05B462246A7
:103DB00029463046FFF793FF013000F0AA80099AA8
:103DC0005A4409929AF80030002B00F0A280002398
:103DD0004FF0FF32CDE905230AF1010A049307935E
:103DE0008DF853301A935446052214F8011B584895
:103DF000FCF736F9049AD8B9D10644BF20238DF8D0
:103E00005330130744BF2B238DF853309AF80030FA
:103E10002A2B15D0079A544600204FF00A0C214651
:103E200011F8013B303B092B4ED9B0B1079214E099
:103E3000A0EB080309FA03F313430493A246D2E765
:103E4000039B191D1B680391002BBBBF5B4242F013
:103E5000020207930793B8BF049223782E2B0CD14C
:103E600063782A2B35D1039B1A1D1B680392002B04
:103E7000B8BF4FF0FF3302340593DFF8E4A0217898
:103E800003225046FCF7ECF840B14023A0EB0A00B7
:103E900003FA00F0049B03430134049314F8011B5C
:103EA0002C488DF828100622FCF7DAF800283FD0BD
:103EB000294B1BBB039B073323F0070308330393F2
:103EC000099B3B44099367E70CFB02320C46012037
:103ED000A5E700230134059319464FF00A0C20464C
:103EE00010F8012B303A092A03D9002BC5D00591CF
:103EF000C3E70CFB012104460123F0E703AB009369
:103F00002A46164B04A93046AFF300800746781CBA
:103F1000D6D16B6ED90705D4AB899A0502D4A86DAA
:103F200000F0B7FCAB895B063FF512AF099811E7CB
:103F300003AB00932A46094B04A9304600F080F8F1
:103F4000E4E700BF78550010985500105855001050
:103F5000245500102E55001000000000DF3C00101A
:103F60002A5500102DE9F047164699468A680B69D4
:103F7000DDF820809342B8BF1346336091F84320A8
:103F800007460C460AB1013333602368990642BFE5
:103F9000336802333360256815F0060506D104F155
:103FA000190AE36832689B1AAB4226DC94F8432076
:103FB000131E226818BF012392062BD404F143027A
:103FC00049463846C04701301ED02368E56832684C
:103FD00003F00603042B08BFAD1AA36822690CBFC7
:103FE00025EAE57500259342C4BF9B1AED1800260B
:103FF0001A34B5421AD1002008E00123524649463E
:104000003846C047013003D14FF0FF30BDE8F0879C
:104010000135C6E7E1185A1C302081F843002244DC
:1040200094F8451082F843100233C7E70123224673
:1040300049463846C0470130E6D00136D9E700008E
:104040002DE9FF470C469146277E0C99782F804634
:104050009A4604F1430207D8622F0AD8002F00F0D5
:10406000D880582F00F0A38004F1420684F84270F3
:104070003AE0A7F16303152BF6D801A050F823F01E
:10408000D9400010ED400010694000106940001058
:104090006940001069400010ED40001069400010B8
:1040A000694000106940001069400010F94100109B
:1040B0001D410010DB4100106940001069400010F4
:1040C0001B420010694000101D41001069400010A3
:1040D00069400010E34100100B681A1D1B680A605C
:1040E00004F1420684F842300123A3E02568086801
:1040F0002E0600F104030AD505680B60002D03DAD3
:104100002D236D4284F843305E480A2319E015F0F0
:10411000400F05680B6018BF2DB2EFE70B682568EC
:10412000181D0860280601D51D6802E06906FBD548
:104130001D8854486F2F0CBF08230A23002184F8E0
:1041400043106668A660002EA2BF216821F004011A
:1041500021600DB9002E4DD01646B5FBF3F103FBDF
:104160001157C75D06F8017D2F46BB420D46F4D9B5
:10417000082B0BD12368DF0708D5236961689942B2
:10418000DEBF302306F8013C06F1FF36921B2261A8
:10419000CDF800A04B4603AA21464046FFF7E2FEB9
:1041A00001304CD14FF0FF3004B0BDE8F087354806
:1041B00084F8457023680E681F0656F8045B0E608D
:1041C00014D5D90744BF43F0200323601DB92368E9
:1041D00023F0200323601023B0E7236843F020037B
:1041E00023607823284884F84530E3E75E0648BF1B
:1041F000ADB2E6E71646BBE70B68266860691D1D91
:104200000D6035061B6801D5186002E07106FBD50C
:104210001880002323611646BAE70B681A1D0A604E
:104220001E68626800213046FBF71AFF08B1801B48
:10423000606063682361002384F84330A8E7236942
:10424000324649464046D0470130ABD023689B07F1
:1042500013D4E068039B9842B8BF1846A4E7012333
:10426000324649464046D04701309BD00135E3688D
:1042700003995B1AAB42F2DCEBE7002504F1190667
:10428000F5E700BF35550010465500100FB40A4B36
:1042900013B51C6824B1A36913B9204600F05AFA7B
:1042A00005AB049AA16801932046FFF72BFD02B0ED
:1042B000BDE8104004B07047C400021038B5064D88
:1042C0000023044608462B60FBF71CFF431C02D169
:1042D0002B6803B1236038BD8C0F02100CB430B5CD
:1042E000174B0C1E1D689DB008DA8B232B604FF016
:1042F000FF301DB0BDE8304002B070474FF402738C
:10430000ADF8143014BF04F1FF3323460493079330
:104310004FF6FF7302900690ADF81630209A21AB4D
:1043200002A92846019300F0C1FB431CBCBF8B23AC
:104330002B60002CDDD0029B00221A70D9E700BF51
:10434000C400021010B56AB10139841810F8013B9D
:1043500011F8012F934203D1A04201D0002BF5D1D7
:10436000981A10BD1046FCE710B50139034632B16A
:1043700011F8014F03F8014B013A002CF7D11A4410
:104380000021934200D110BD03F8011BF9E70000A2
:10439000F8B50E461446054618B183690BB900F00E
:1043A000D9F9214B9C422BD16C68A369A360A389E6
:1043B0001A072FD523696BB323692068C01A636974
:1043C000F6B28342374604DC2146284600F02EF937
:1043D00030BBA368013BA36023685A1C22601E7097
:1043E00063690130834204D0A389DB0706D50A2E16
:1043F00004D12146284600F019F988B93846F8BD9D
:104400000A4B9C4201D1AC68CFE7094B9C4208BFE4
:10441000EC68CAE72146284600F00CF80028CBD00B
:104420004FF0FF37EAE700BF7855001098550010AD
:1044300058550010324B70B51D6806460C4625B124
:10444000AB6913B9284600F085F92E4B9C420FD179
:104450006C68A389B4F90C2019072CD4DD0611D49B
:104460000923336042F04003A3814FF0FF303EE068
:10447000254B9C4201D1AC68EBE7244B9C4208BF22
:10448000EC68E6E7580712D5616B41B104F14403CB
:10449000994202D03046FFF761FB00236363A38992
:1044A00023F02403A3810023636023692360A3898D
:1044B00043F00803A38123694BB9A38903F4207354
:1044C000B3F5007F03D02146304600F007FAA089FB
:1044D000B4F90C2010F001030AD00023A360636933
:1044E0005B42A361236943B910F08000BAD170BD6B
:1044F000810758BF6369A360F4E70020F7E700BFB6
:10450000C40002107855001098550010585500103E
:1045100008B5062000F0F2FB0120FBF71BFE0000AF
:104520008A892DE9F041054610070C4658D44B689E
:10453000002B05DC0B6C002B02DC0020BDE8F081B9
:10454000E66A002EF9D0002312F480522F682B6007
:1045500032D0606DA3895A0705D56368C01A636BB2
:104560000BB1236CC01A00230246E66A216A284672
:10457000B047431CA38906D129681D292CD82A4A93
:10458000CA40D60728D500226260D9042269226079
:1045900004D5421C01D12B6803B96065616B2F60A3
:1045A0000029CAD004F14403994202D02846FFF7FB
:1045B000D5FA00206063C1E7216A01232846B0478D
:1045C000411CC7D12B68002BC4D01D2B01D0162B4A
:1045D00001D12F60B1E7A38943F04003A381ADE788
:1045E0000F69002FA9D093070E6808BF4B690F60B1
:1045F00018BF0023A6EB07088B60B8F1000F9CDD05
:10460000216AA66A43463A462846B047002806DC97
:10461000A38943F04003A3814FF0FF308EE70744A6
:10462000A8EB0008E9E700BF0100402038B50B699E
:1046300005460C4613B90025284638BD18B18369D4
:104640000BB900F087F8144B9C421BD16C68B4F98D
:104650000C30002BEFD0626ED00704D4990502D441
:10466000A06D00F015F928462146FFF759FF636E4B
:10467000DA070546E0D4A3899B05DDD4A06D00F0E0
:1046800008F9D9E7054B9C4201D1AC68DFE7044B40
:104690009C4208BFEC68DAE7785500109855001086
:1046A00058550010002310B50446C0E90033C0E996
:1046B0000433836081814366C28183611946082285
:1046C0005C30FFF743FA054B6362054BA362054B71
:1046D000E362054B2462236310BD00BF354D00101B
:1046E000574D00108F4D0010B34D0010014900F0E0
:1046F000AFB800BF2D46001070B54A1E682555435F
:104700000E4605F17401FFF779FA044640B1002125
:10471000C0E900160C30A06005F16802FFF716FA38
:10472000204670BD014800F0B3B800BF980F0210DA
:10473000014800F0AEB800BF980F0210014800F029
:10474000A7B800BF930F0210014800F0A2B800BF45
:10475000930F021010B50446FFF7F0FFA3691BB1D9
:10476000BDE81040FFF7F0BFC4E912332365134BD7
:10477000134A1B68A262A34204BF0123A36120461F
:1047800000F020F86060204600F01CF8A060204691
:1047900000F018F80022E06004216068FFF782FF53
:1047A000A06801220921FFF77DFFE06802221221A3
:1047B000FFF778FF0123A361D2E700BF2055001067
:1047C000ED460010F8B50746FFF7ACFF1E4B1E681C
:1047D000B36913B93046FFF7BDFF4836D6E9013457
:1047E000013B03D533680BB33668F7E7B4F90C50D7
:1047F000D5B9164BE36004F15800656600F047F840
:10480000FFF796FFC4E90155C4E904552560A56189
:104810000822294604F15C00FFF798F9C4E90D5518
:10482000C4E912552046F8BD6834D9E7042138465A
:10483000FFF762FF044630600028D5D1FFF778FF0C
:104840000C233B60EEE700BF205500100100FFFF86
:104850002DE9F8430646884600F148040027D4E9CC
:104860000195B9F1010905D52468002CF7D1384626
:10487000BDE8F883AB89012B07D9B5F90E300133B8
:1048800003D029463046C04707436835E9E77047FB
:104890007047704770B50E46B1F90E10002996B0FA
:1048A00014461D4607DA00232B60B3891A0610D47C
:1048B0004FF480630EE06A4600F0A2FA0028F2DBB3
:1048C000019A02F47042A2F500535A425A412A60FA
:1048D000EEE740230020236016B070BD8B8973B5CE
:1048E0009D0706460C4607D504F147032360236164
:1048F0000123636102B070BD01AB6A46FFF7CAFFD6
:10490000009905463046FFF779F948B9B4F90C30FB
:104910009A05EFD423F0030343F00203A381E3E7F6
:104920000D4BB362A389206043F08003A381009BF9
:104930006361019B20615BB1B4F90E10304600F059
:1049400071FA28B1A38923F0030343F00103A38183
:10495000A0890543A581CDE7ED460010884210B53A
:1049600001EB020402D98442234607D8431EA14228
:1049700008D011F8012B03F8012FF8E70244014693
:104980008A4200D110BD13F8014D02F8014DF7E73E
:104990000148FFF77DBF00BF940F02100148FFF7E9
:1049A00078BF00BF940F0210F8B5074614460E46B4
:1049B00021B9BDE8F8401146FFF720B922B9FFF749
:1049C000CDF825462846F8BD00F04EFAA0420FD299
:1049D00021463846FFF712F905460028F2D0314645
:1049E0002246FFF7A5F831463846FFF7B7F8E9E762
:1049F0003546E7E72DE9F0478E689E4282460C4631
:104A000090461F4638D88A8912F4906F32D02568B4
:104A10000969A5EB0109656905EB450505EBD57548
:104A200001334B446D109D4238BF1D46530531D5AF
:104A30002946FFF7E3F8064650B90C23CAF80030C0
:104A4000A38943F04003A3814FF0FF30BDE8F08716
:104A500021694A46FFF76CF8A38923F4906343F079
:104A60008003A381266165614E44A5EB090526609C
:104A7000A5603E46BE4200D93E46324620684146C9
:104A8000FFF76CFFA36822689B1B3244A36022607F
:104A90000020DBE72A46FFF787FF06460028E1D122
:104AA00021695046FFF75AF8C7E700002DE9F04F9B
:104AB00098468B891B069DB007460D4614460ED5B9
:104AC0000B6963B94021FFF799F82860286120B984
:104AD0000C233B604FF0FF30D1E040236B6100239B
:104AE000099320238DF82930CDF80C803023DFF88E
:104AF000A8818DF82A304FF0010923469A4613F811
:104B0000012B0AB1252AF9D1BAEB040B0BD05B4675
:104B1000224629463846FFF76DFF013000F0AA8093
:104B2000099A5A4409929AF80030002B00F0A280AA
:104B300000234FF0FF32CDE905230AF1010A049367
:104B400007938DF853301A935446052214F8011B2D
:104B50005148FBF785FA049AD8B9D00644BF202300
:104B60008DF85330110744BF2B238DF853309AF83A
:104B700000302A2B15D0079A544600204FF00A0C1B
:104B8000214611F8013B303B092B4ED9B0B10792B9
:104B900014E0A0EB080309FA03F313430493A246BD
:104BA000D2E7039B191D1B680391002BBBBF5B421F
:104BB00042F0020207930793B8BF049223782E2B8A
:104BC0000CD163782A2B35D1039B1A1D1B680392E5
:104BD000002BB8BF4FF0FF3302340593DFF8C8A0B5
:104BE000217803225046FBF73BFA40B14023A0EB6B
:104BF0000A0003FA00F0049B03430134049314F801
:104C0000011B26488DF828100622FBF729FA0028F8
:104C100038D0234B1BBB039B073323F00703083318
:104C20000393099B3344099367E70CFB02320C465C
:104C30000120A5E700230134059319464FF00A0C23
:104C4000204610F8012B303A092A03D9002BC5D091
:104C50000591C3E70CFB012104460123F0E703ABF8
:104C600000932A460F4B04A93846AFF30080421C3C
:104C70000646D6D1AB895B063FF52CAF09981DB02F
:104C8000BDE8F08F03AB00932A46064B04A93846D3
:104C9000FFF7D6F9EBE700BF245500102E550010A2
:104CA00000000000F54900102A5500101F2938B5F2
:104CB00004460D4604D9162303604FF0FF3038BD7B
:104CC000426C12B152F821304BB9204600F030F856
:104CD0002A4601462046BDE8384000F017B8012BAF
:104CE0000AD0591C03D1162303600120E7E70024F2
:104CF00042F82540284698470020E0E7024B01464D
:104D00001868FFF7D3BF00BFC400021038B5074DC5
:104D100000230446084611462B60FBF713FA431C98
:104D200002D12B6803B1236038BD00BF8C0F021085
:104D3000FBF706BA10B50C46B1F90E1000F09CF85E
:104D40000028ABBF636DA3891B1823F48053ACBF4D
:104D50006365A38110BD2DE9F0411F468B89DB05FA
:104D600005460C46164605D5B1F90E100223002261
:104D700000F068F8A389B4F90E1023F48053A381DE
:104D800032463B462846BDE8F04100F017B810B562
:104D90000C46B1F90E1000F055F8431CA38915BF5D
:104DA000606523F4805343F48053A38118BFA3812B
:104DB00010BDB1F90E1000F013B8000038B5074D62
:104DC00004460846114600222A601A46FBF7C8F935
:104DD000431C02D12B6803B1236038BD8C0F021035
:104DE00038B5064D0023044608462B60FBF7C6F98C
:104DF000431C02D12B6803B1236038BD8C0F021015
:104E000038B5074D00230446084611462B60FBF7D2
:104E1000B8F9431C02D12B6803B1236038BD00BF31
:104E20008C0F021038B5064D0023044608462B604F
:104E3000FBF7ACF9431C02D12B6803B1236038BDEA
:104E40008C0F021038B5074D044608461146002263
:104E50002A601A46FBF79CF9431C02D12B6803B168
:104E6000236038BD8C0F021051F8043C181F002B32
:104E7000BCBF0B58C018704738B5074D04460846EC
:104E8000114600222A601A46FBF784F9431C02D11E
:104E90002B6803B1236038BD8C0F0210F8B500BF3A
:104EA000F8BC08BC9E467047F8B500BFF8BC08BC0B
:044EB0009E46704763
:104EB400DFF834D0002103E00C4B5B58435004313D
:104EC4000B480C4B42189A42F6D30B4A02E00023DB
:104ED40042F8043B094B9A42F9D3FBF707FFFEF76C
:104EE400F1FDFBF73DFBFEE700000410C055001088
:104EF4000000021028010210B40102109C0F0210DD
:104F04004D41494C424F585F496E6974000000009E
:104F14002B2B0010060000000020000000400000C1
:104F2400000100000002000000200050002000509A
:104F340000500050005000500100004000200000CC
:104F440000200050002000500020005000000016F7
:104F54000E0000160D000016E70C0010DD0C00100A
:104F6400D30C0010060079004D0000000F00000073
:104F74000F0000000F0000007270726F635F7669AB
:104F84007274696F5F7669727471756575655F6E49
:104F94006F746966790000006D6574616C5F696F98
:104FA4005F72656164000000F52B001000000000D2
:104FB400D12C00100000000000000000B32B0010F2
:104FC4000000000000000000B52B001074785F762C
:104FD4007100000072785F76710000004E5300008B
:104FE4005B2530356C642E2530336C645D5B494E33
:104FF400464F205D4D73672072656365697665640D
:10500400206F6E205649525455414C2055415254FC
:1050140030206368616E6E656C3A20202573200A27
:105024000D0000005B2530356C642E2530336C6434
:105034005D5B494E464F205D4D7367207265636525
:1050440069766564206F6E205649525455414C2050
:105054005541525431206368616E6E656C3A20206C
:105064002573200A0D0000005B2530356C642E2565
:1050740030336C645D5B45525220205D4572726F23
:10508400725F48616E646C65720000005B253035A8
:105094006C642E2530336C645D5B494E464F205D55
:1050A400436F727465782D4D3420626F6F74207372
:1050B40075636365737366756C20776974682053D0
:1050C400544D3332437562652046572076657273BA
:1050D400696F6E3A2076256C642E256C642E256CDF
:1050E40064200D0A000000005B2530356C642E2519
:1050F40030336C645D5B494E464F205D5669727473
:1051040075616C205541525430204F70656E414D8D
:10511400502D72706D7367206368616E6E656C20CC
:105124006372656174696F6E0D0A00005B2530352A
:105134006C642E2530336C645D5B45525220205DD7
:10514400564952545F554152545F496E6974205513
:1051540041525430206661696C65642E0D0A00006A
:105164005B2530356C642E2530336C645D5B494EB1
:10517400464F205D5669727475616C2055415254D6
:1051840031204F70656E414D502D72706D736720E4
:105194006368616E6E656C206372656174696F6EBD
:1051A4000D0A00005B2530356C642E2530336C64A9
:1051B4005D5B45525220205D564952545F55415221
:1051C400545F496E697420554152543120666169B7
:1051D4006C65642E0D0A00004368616E6E656C2078
:1051E40052504D5347303A200000000025730A0006
:1051F4005B2530356C642E2530336C645D5B494E21
:10520400464F205D73697A65206F66207468652057
:105214006D65737361676520746F207472616E735A
:105224006D6974203D2025642062797465730A00D9
:105234004368616E6E656C2052504D5347313A207D
:10524400000000005B2530356C642E2530336C641F
:105254005D5B45525220205D25733A2063685F31BF
:10526400205258206661696C0A0000005B253035C5
:105274006C642E2530336C645D5B45525220205D96
:1052840025733A2063685F32205258206661696C46
:105294000A0000005B2530356C642E2530336C64C5
:1052A4005D5B45525220205D696E76616C696420B5
:1052B4007672696E6720282564290D0A00000000B3
:1052C40053544D33325F53484D00000067656E659B
:1052D40072696300756E726567697374657265647B
:1052E400202573206275730A0000000072656769E7
:1052F400737465726564202573206275730A0000F7
:10530400646576696365202626206465766963652D
:105314002D3E6275730000002F686F6D652F7061FC
:105324002D736D6172746661726D696E672F53546B
:105334004D33324D5031352D45636F737973746538
:105344006D2D76322E312E302F446576656C6F705C
:1053540065722D5061636B6167652F53544D333211
:10536400437562655F46575F4D50315F56312E3449
:105374002E302F4D6964646C6577617265732F54A8
:10538400686972645F50617274792F4F70656E4101
:105394004D502F6C69626D6574616C2F6C69622F5E
:1053A4006465766963652E630000000076715F6949
:1053B40064203C20766465762D3E7672696E677350
:1053C4005F6E756D000000002F686F6D652F706152
:1053D4002D736D6172746661726D696E672F5354BB
:1053E4004D33324D5031352D45636F737973746588
:1053F4006D2D76322E312E302F446576656C6F70AC
:1054040065722D5061636B6167652F53544D333260
:10541400437562655F46575F4D50315F56312E3498
:105424002E302F4D6964646C6577617265732F54F7
:10543400686972645F50617274792F4F70656E4150
:105444004D502F6F70656E2D616D702F6C69622FDA
:1054540072656D6F746570726F632F72656D6F74B2
:105464006570726F635F76697274696F2E63000092
:10547400300000002E2E2F2E2E2F2E2E2F2E2E2FCC
:105484002E2E2F2E2E2F2E2E2F2E2E2F4D6964646E
:105494006C6577617265732F54686972645F5061DB
:1054A4007274792F4F70656E414D502F6C69626D27
:1054B4006574616C2F6C69622F696E636C756465C9
:1054C4002F6D6574616C2F696F2E680072706D7337
:1054D400672D7474792D6368616E6E656C002C2081
:1054E40066756E6374696F6E3A20006173736572DA
:1054F40074696F6E2022257322206661696C65646D
:105504003A2066696C6520222573222C206C696E12
:1055140065202564257325730A000000C800021065
:10552400232D302B2000686C4C0065666745464788
:10553400003031323334353637383941424344450B
:10554400460030313233343536373839616263647A
:10555400656600000000000000000000000000007C
:105564000000000000000000000000000000000037
:105574000000000000000000000000000000000027
:105584000000000000000000000000000000000017
:105594000000000000000000000000000000000007
:1055A40000000000000000000000000000000000F7
:0455B40000000000F3
:0455B80025000010BA
:0455BC0001000010DA
:1055C000C4520010000000000200000000000000B3
:1055D00000000000000000000000000000000000CB
:1055E00000000000000000000000000000000000BB
:1055F00000000000000000000000000000000000AB
:10560000000000000000000000000000000000009A
:10561000000000000000000000000000000000008A
:10562000000000000000000000000000000000007A
:10563000000000000000000000000000000000006A
:105640000000000000000000000000000090D003F7
:105650000100000010000000D05200100000000007
:10566000712700100000000000000000AD270010AE
:10567000FF270010000000000000000000000000F4
:1056800000000000C8000210000000007855001063
:105690009855001058550010000000000000000050
:1056A00000000000000000000000000000000000FA
:1056B00000000000000000000000000000000000EA
:1056C00000000000000000000000000000000000DA
:1056D00000000000000000000000000000000000CA
:0856E0000000000000000000C2
:1056E80001000000020000000000000000000000AF
:1056F800180000005C000000030000000700000024
:105708000000000001000000000000000000000090
:1057180000020000FFFFFFFF100000001000000063
:105728000000000000000000FFFFFFFF1000000065
:10573800100000000100000000000000020000004E
:10574800680702100008000000000000636D345F65
:105758006C6F6700000000000000000000000000FF
:0C57680000000000000000000000000035
:0400000510004EB5E4
:00000001FF
