
OpenAMP_wakeup_CM4.elf:     file format elf32-littlearm

Sections:
Idx Name          Size      VMA       LMA       File off  Algn
  0 .isr_vector   00000298  00000000  00000000  00010000  2**0
                  CONTENTS, ALLOC, LOAD, READONLY, DATA
  1 .text         00007920  10000000  10000000  00020000  2**4
                  CONTENTS, ALLOC, LOAD, READONLY, CODE
  2 .startup_copro_fw.Reset_Handler 00000050  10007920  10007920  00027920  2**2
                  CONTENTS, ALLOC, LOAD, READONLY, CODE
  3 .rodata       0000081c  10007970  10007970  00027970  2**2
                  CONTENTS, ALLOC, LOAD, READONLY, DATA
  4 .ARM.extab    00000000  1000818c  1000818c  00030500  2**0
                  CONTENTS
  5 .ARM          00000000  1000818c  1000818c  00030500  2**0
                  CONTENTS
  6 .preinit_array 00000000  1000818c  1000818c  00030500  2**0
                  CONTENTS, ALLOC, LOAD, DATA
  7 .init_array   00000004  1000818c  1000818c  0002818c  2**2
                  CONTENTS, ALLOC, LOAD, DATA
  8 .fini_array   00000004  10008190  10008190  00028190  2**2
                  CONTENTS, ALLOC, LOAD, DATA
  9 .data         00000474  10020000  10008194  00030000  2**2
                  CONTENTS, ALLOC, LOAD, DATA
 10 .resource_table 0000008c  10020474  10008608  00030474  2**2
                  CONTENTS, ALLOC, LOAD, READONLY, DATA
 11 .bss          00000f58  10020500  10008698  00030500  2**3
                  ALLOC
 12 ._user_heap_stack 00000600  10021458  100095f0  00030500  2**0
                  ALLOC
 13 .ARM.attributes 00000030  00000000  00000000  00030500  2**0
                  CONTENTS, READONLY
 14 .debug_line   0002f134  00000000  00000000  00030530  2**0
                  CONTENTS, READONLY, DEBUGGING, OCTETS
 15 .debug_info   0004cdb1  00000000  00000000  0005f664  2**0
                  CONTENTS, READONLY, DEBUGGING, OCTETS
 16 .debug_abbrev 00007ec1  00000000  00000000  000ac415  2**0
                  CONTENTS, READONLY, DEBUGGING, OCTETS
 17 .debug_aranges 000018b8  00000000  00000000  000b42d8  2**3
                  CONTENTS, READONLY, DEBUGGING, OCTETS
 18 .debug_str    001f09a0  00000000  00000000  000b5b90  2**0
                  CONTENTS, READONLY, DEBUGGING, OCTETS
 19 .debug_ranges 00001ce0  00000000  00000000  002a6530  2**3
                  CONTENTS, READONLY, DEBUGGING, OCTETS
 20 .debug_loc    00018662  00000000  00000000  002a8210  2**0
                  CONTENTS, READONLY, DEBUGGING, OCTETS
 21 .debug_macro  0005268a  00000000  00000000  002c0872  2**0
                  CONTENTS, READONLY, DEBUGGING, OCTETS
 22 .comment      00000053  00000000  00000000  00312efc  2**0
                  CONTENTS, READONLY
 23 .debug_frame  00004df8  00000000  00000000  00312f50  2**2
                  CONTENTS, READONLY, DEBUGGING, OCTETS

Disassembly of section .text:

10000000 <__do_global_dtors_aux>:
10000000:	b510      	push	{r4, lr}
10000002:	4c05      	ldr	r4, [pc, #20]	; (10000018 <__do_global_dtors_aux+0x18>)
10000004:	7823      	ldrb	r3, [r4, #0]
10000006:	b933      	cbnz	r3, 10000016 <__do_global_dtors_aux+0x16>
10000008:	4b04      	ldr	r3, [pc, #16]	; (1000001c <__do_global_dtors_aux+0x1c>)
1000000a:	b113      	cbz	r3, 10000012 <__do_global_dtors_aux+0x12>
1000000c:	4804      	ldr	r0, [pc, #16]	; (10000020 <__do_global_dtors_aux+0x20>)
1000000e:	f3af 8000 	nop.w
10000012:	2301      	movs	r3, #1
10000014:	7023      	strb	r3, [r4, #0]
10000016:	bd10      	pop	{r4, pc}
10000018:	10020500 	.word	0x10020500
1000001c:	00000000 	.word	0x00000000
10000020:	10007908 	.word	0x10007908

10000024 <frame_dummy>:
10000024:	b508      	push	{r3, lr}
10000026:	4b03      	ldr	r3, [pc, #12]	; (10000034 <frame_dummy+0x10>)
10000028:	b11b      	cbz	r3, 10000032 <frame_dummy+0xe>
1000002a:	4903      	ldr	r1, [pc, #12]	; (10000038 <frame_dummy+0x14>)
1000002c:	4803      	ldr	r0, [pc, #12]	; (1000003c <frame_dummy+0x18>)
1000002e:	f3af 8000 	nop.w
10000032:	bd08      	pop	{r3, pc}
10000034:	00000000 	.word	0x00000000
10000038:	10020504 	.word	0x10020504
1000003c:	10007908 	.word	0x10007908

10000040 <strcmp>:
10000040:	f810 2b01 	ldrb.w	r2, [r0], #1
10000044:	f811 3b01 	ldrb.w	r3, [r1], #1
10000048:	2a01      	cmp	r2, #1
1000004a:	bf28      	it	cs
1000004c:	429a      	cmpcs	r2, r3
1000004e:	d0f7      	beq.n	10000040 <strcmp>
10000050:	1ad0      	subs	r0, r2, r3
10000052:	4770      	bx	lr
	...

10000060 <memchr>:
10000060:	f001 01ff 	and.w	r1, r1, #255	; 0xff
10000064:	2a10      	cmp	r2, #16
10000066:	db2b      	blt.n	100000c0 <memchr+0x60>
10000068:	f010 0f07 	tst.w	r0, #7
1000006c:	d008      	beq.n	10000080 <memchr+0x20>
1000006e:	f810 3b01 	ldrb.w	r3, [r0], #1
10000072:	3a01      	subs	r2, #1
10000074:	428b      	cmp	r3, r1
10000076:	d02d      	beq.n	100000d4 <memchr+0x74>
10000078:	f010 0f07 	tst.w	r0, #7
1000007c:	b342      	cbz	r2, 100000d0 <memchr+0x70>
1000007e:	d1f6      	bne.n	1000006e <memchr+0xe>
10000080:	b4f0      	push	{r4, r5, r6, r7}
10000082:	ea41 2101 	orr.w	r1, r1, r1, lsl #8
10000086:	ea41 4101 	orr.w	r1, r1, r1, lsl #16
1000008a:	f022 0407 	bic.w	r4, r2, #7
1000008e:	f07f 0700 	mvns.w	r7, #0
10000092:	2300      	movs	r3, #0
10000094:	e8f0 5602 	ldrd	r5, r6, [r0], #8
10000098:	3c08      	subs	r4, #8
1000009a:	ea85 0501 	eor.w	r5, r5, r1
1000009e:	ea86 0601 	eor.w	r6, r6, r1
100000a2:	fa85 f547 	uadd8	r5, r5, r7
100000a6:	faa3 f587 	sel	r5, r3, r7
100000aa:	fa86 f647 	uadd8	r6, r6, r7
100000ae:	faa5 f687 	sel	r6, r5, r7
100000b2:	b98e      	cbnz	r6, 100000d8 <memchr+0x78>
100000b4:	d1ee      	bne.n	10000094 <memchr+0x34>
100000b6:	bcf0      	pop	{r4, r5, r6, r7}
100000b8:	f001 01ff 	and.w	r1, r1, #255	; 0xff
100000bc:	f002 0207 	and.w	r2, r2, #7
100000c0:	b132      	cbz	r2, 100000d0 <memchr+0x70>
100000c2:	f810 3b01 	ldrb.w	r3, [r0], #1
100000c6:	3a01      	subs	r2, #1
100000c8:	ea83 0301 	eor.w	r3, r3, r1
100000cc:	b113      	cbz	r3, 100000d4 <memchr+0x74>
100000ce:	d1f8      	bne.n	100000c2 <memchr+0x62>
100000d0:	2000      	movs	r0, #0
100000d2:	4770      	bx	lr
100000d4:	3801      	subs	r0, #1
100000d6:	4770      	bx	lr
100000d8:	2d00      	cmp	r5, #0
100000da:	bf06      	itte	eq
100000dc:	4635      	moveq	r5, r6
100000de:	3803      	subeq	r0, #3
100000e0:	3807      	subne	r0, #7
100000e2:	f015 0f01 	tst.w	r5, #1
100000e6:	d107      	bne.n	100000f8 <memchr+0x98>
100000e8:	3001      	adds	r0, #1
100000ea:	f415 7f80 	tst.w	r5, #256	; 0x100
100000ee:	bf02      	ittt	eq
100000f0:	3001      	addeq	r0, #1
100000f2:	f415 3fc0 	tsteq.w	r5, #98304	; 0x18000
100000f6:	3001      	addeq	r0, #1
100000f8:	bcf0      	pop	{r4, r5, r6, r7}
100000fa:	3801      	subs	r0, #1
100000fc:	4770      	bx	lr
100000fe:	bf00      	nop

10000100 <ADC1_IRQHandler>:
 * @retval : None
*/
    .section .text.Default_Handler,"ax",%progbits
Default_Handler:
Infinite_Loop:
  b Infinite_Loop
10000100:	e7fe      	b.n	10000100 <ADC1_IRQHandler>
	...

10000104 <_sbrk>:




caddr_t _sbrk(int incr)
{
10000104:	4603      	mov	r3, r0
	char *prev_heap_end;
#ifdef FreeRTOS
	char *min_stack_ptr;
#endif

	if (heap_end == 0)
10000106:	4a0b      	ldr	r2, [pc, #44]	; (10000134 <_sbrk+0x30>)
10000108:	6812      	ldr	r2, [r2, #0]
1000010a:	b142      	cbz	r2, 1000011e <_sbrk+0x1a>
		heap_end = &end;

	prev_heap_end = heap_end;
1000010c:	4a09      	ldr	r2, [pc, #36]	; (10000134 <_sbrk+0x30>)
1000010e:	6810      	ldr	r0, [r2, #0]
	/* Locate the STACK bottom address */
	min_stack_ptr -= MAX_STACK_SIZE;

	if (heap_end + incr > min_stack_ptr)
#else
	if (heap_end + incr > stack_ptr)
10000110:	4403      	add	r3, r0
10000112:	466a      	mov	r2, sp
10000114:	4293      	cmp	r3, r2
10000116:	d806      	bhi.n	10000126 <_sbrk+0x22>
//		abort();
		errno = ENOMEM;
		return (caddr_t) -1;
	}

	heap_end += incr;
10000118:	4a06      	ldr	r2, [pc, #24]	; (10000134 <_sbrk+0x30>)
1000011a:	6013      	str	r3, [r2, #0]

	return (caddr_t) prev_heap_end;
}
1000011c:	4770      	bx	lr
		heap_end = &end;
1000011e:	4a05      	ldr	r2, [pc, #20]	; (10000134 <_sbrk+0x30>)
10000120:	4905      	ldr	r1, [pc, #20]	; (10000138 <_sbrk+0x34>)
10000122:	6011      	str	r1, [r2, #0]
10000124:	e7f2      	b.n	1000010c <_sbrk+0x8>
		errno = ENOMEM;
10000126:	4b05      	ldr	r3, [pc, #20]	; (1000013c <_sbrk+0x38>)
10000128:	220c      	movs	r2, #12
1000012a:	601a      	str	r2, [r3, #0]
		return (caddr_t) -1;
1000012c:	f04f 30ff 	mov.w	r0, #4294967295	; 0xffffffff
10000130:	4770      	bx	lr
10000132:	bf00      	nop
10000134:	1002051c 	.word	0x1002051c
10000138:	10021458 	.word	0x10021458
1000013c:	10021448 	.word	0x10021448

10000140 <_getpid>:
}

int _getpid(void)
{
	return 1;
}
10000140:	2001      	movs	r0, #1
10000142:	4770      	bx	lr

10000144 <_kill>:

int _kill(int pid, int sig)
{
	errno = EINVAL;
10000144:	4b02      	ldr	r3, [pc, #8]	; (10000150 <_kill+0xc>)
10000146:	2216      	movs	r2, #22
10000148:	601a      	str	r2, [r3, #0]
	return -1;
}
1000014a:	f04f 30ff 	mov.w	r0, #4294967295	; 0xffffffff
1000014e:	4770      	bx	lr
10000150:	10021448 	.word	0x10021448

10000154 <_exit>:

void _exit (int status)
{
10000154:	b508      	push	{r3, lr}
	_kill(status, -1);
10000156:	f04f 31ff 	mov.w	r1, #4294967295	; 0xffffffff
1000015a:	f7ff fff3 	bl	10000144 <_kill>
	while (1) {}
1000015e:	e7fe      	b.n	1000015e <_exit+0xa>

10000160 <_write>:
}

int _write(int file, char *ptr, int len)
{
10000160:	b570      	push	{r4, r5, r6, lr}
10000162:	460c      	mov	r4, r1
10000164:	4616      	mov	r6, r2
	int DataIdx;

		for (DataIdx = 0; DataIdx < len; DataIdx++)
10000166:	2500      	movs	r5, #0
10000168:	42b5      	cmp	r5, r6
1000016a:	da05      	bge.n	10000178 <_write+0x18>
		{
		   __io_putchar( *ptr++ );
1000016c:	f814 0b01 	ldrb.w	r0, [r4], #1
10000170:	f000 ff16 	bl	10000fa0 <__io_putchar>
		for (DataIdx = 0; DataIdx < len; DataIdx++)
10000174:	3501      	adds	r5, #1
10000176:	e7f7      	b.n	10000168 <_write+0x8>
		}
	return len;
}
10000178:	4630      	mov	r0, r6
1000017a:	bd70      	pop	{r4, r5, r6, pc}

1000017c <_close>:

int _close(int file)
{
	return -1;
}
1000017c:	f04f 30ff 	mov.w	r0, #4294967295	; 0xffffffff
10000180:	4770      	bx	lr

10000182 <_fstat>:

int _fstat(int file, struct stat *st)
{
	st->st_mode = S_IFCHR;
10000182:	f44f 5300 	mov.w	r3, #8192	; 0x2000
10000186:	604b      	str	r3, [r1, #4]
	return 0;
}
10000188:	2000      	movs	r0, #0
1000018a:	4770      	bx	lr

1000018c <_isatty>:

int _isatty(int file)
{
	return 1;
}
1000018c:	2001      	movs	r0, #1
1000018e:	4770      	bx	lr

10000190 <_lseek>:

int _lseek(int file, int ptr, int dir)
{
	return 0;
}
10000190:	2000      	movs	r0, #0
10000192:	4770      	bx	lr

10000194 <_read>:

int _read(int file, char *ptr, int len)
{
10000194:	b570      	push	{r4, r5, r6, lr}
10000196:	460c      	mov	r4, r1
10000198:	4616      	mov	r6, r2
	int DataIdx;

	for (DataIdx = 0; DataIdx < len; DataIdx++)
1000019a:	2500      	movs	r5, #0
1000019c:	42b5      	cmp	r5, r6
1000019e:	da07      	bge.n	100001b0 <_read+0x1c>
	{
	  *ptr++ = __io_getchar();
100001a0:	f3af 8000 	nop.w
100001a4:	4621      	mov	r1, r4
100001a6:	f801 0b01 	strb.w	r0, [r1], #1
	for (DataIdx = 0; DataIdx < len; DataIdx++)
100001aa:	3501      	adds	r5, #1
	  *ptr++ = __io_getchar();
100001ac:	460c      	mov	r4, r1
100001ae:	e7f5      	b.n	1000019c <_read+0x8>
	}

   return len;
}
100001b0:	4630      	mov	r0, r6
100001b2:	bd70      	pop	{r4, r5, r6, pc}

100001b4 <Periph_Lock>:
  *                     Semaphore id deduced from this peripheral.
  *         Timeout: timeout value in msecs
  * @retval Return Status
  */
LockResource_Status_t Periph_Lock(void* Peripheral, uint32_t Timeout)
{
100001b4:	b5f8      	push	{r3, r4, r5, r6, r7, lr}
100001b6:	4604      	mov	r4, r0
100001b8:	460d      	mov	r5, r1
  uint32_t tickstart = 0U;
  LockResource_Status_t ret = LOCK_RESOURCE_STATUS_OK;

  /* Init tickstart for timeout management*/
  tickstart = HAL_GetTick();
100001ba:	f001 fb4b 	bl	10001854 <HAL_GetTick>
100001be:	4607      	mov	r7, r0
  LockResource_Status_t ret = LOCK_RESOURCE_STATUS_OK;
100001c0:	2600      	movs	r6, #0

  /* Try to Take HSEM  assigned to the Peripheral */
  while (HAL_HSEM_FastTake(GET_HSEM_SEM_INDEX(Peripheral)) != HAL_OK)
100001c2:	e00f      	b.n	100001e4 <Periph_Lock+0x30>
100001c4:	2001      	movs	r0, #1
100001c6:	e000      	b.n	100001ca <Periph_Lock+0x16>
100001c8:	2000      	movs	r0, #0
100001ca:	f001 fe7b 	bl	10001ec4 <HAL_HSEM_FastTake>
100001ce:	2800      	cmp	r0, #0
100001d0:	d050      	beq.n	10000274 <Periph_Lock+0xc0>
  {

    if ((Timeout == 0U) || ((HAL_GetTick() - tickstart) > Timeout))
100001d2:	b125      	cbz	r5, 100001de <Periph_Lock+0x2a>
100001d4:	f001 fb3e 	bl	10001854 <HAL_GetTick>
100001d8:	1bc3      	subs	r3, r0, r7
100001da:	42ab      	cmp	r3, r5
100001dc:	d902      	bls.n	100001e4 <Periph_Lock+0x30>
    {
       ret = LOCK_RESOURCE_STATUS_TIMEOUT;
       Error_Handler();
100001de:	f000 fa6f 	bl	100006c0 <Error_Handler>
       ret = LOCK_RESOURCE_STATUS_TIMEOUT;
100001e2:	2602      	movs	r6, #2
  while (HAL_HSEM_FastTake(GET_HSEM_SEM_INDEX(Peripheral)) != HAL_OK)
100001e4:	4b24      	ldr	r3, [pc, #144]	; (10000278 <Periph_Lock+0xc4>)
100001e6:	429c      	cmp	r4, r3
100001e8:	d0ee      	beq.n	100001c8 <Periph_Lock+0x14>
100001ea:	f503 5380 	add.w	r3, r3, #4096	; 0x1000
100001ee:	429c      	cmp	r4, r3
100001f0:	d02a      	beq.n	10000248 <Periph_Lock+0x94>
100001f2:	f503 5380 	add.w	r3, r3, #4096	; 0x1000
100001f6:	429c      	cmp	r4, r3
100001f8:	d028      	beq.n	1000024c <Periph_Lock+0x98>
100001fa:	f1b4 2f50 	cmp.w	r4, #1342197760	; 0x50005000
100001fe:	d027      	beq.n	10000250 <Periph_Lock+0x9c>
10000200:	f503 5300 	add.w	r3, r3, #8192	; 0x2000
10000204:	429c      	cmp	r4, r3
10000206:	d025      	beq.n	10000254 <Periph_Lock+0xa0>
10000208:	f503 5380 	add.w	r3, r3, #4096	; 0x1000
1000020c:	429c      	cmp	r4, r3
1000020e:	d023      	beq.n	10000258 <Periph_Lock+0xa4>
10000210:	f503 5380 	add.w	r3, r3, #4096	; 0x1000
10000214:	429c      	cmp	r4, r3
10000216:	d021      	beq.n	1000025c <Periph_Lock+0xa8>
10000218:	f503 5380 	add.w	r3, r3, #4096	; 0x1000
1000021c:	429c      	cmp	r4, r3
1000021e:	d01f      	beq.n	10000260 <Periph_Lock+0xac>
10000220:	f503 5380 	add.w	r3, r3, #4096	; 0x1000
10000224:	429c      	cmp	r4, r3
10000226:	d01d      	beq.n	10000264 <Periph_Lock+0xb0>
10000228:	f503 5380 	add.w	r3, r3, #4096	; 0x1000
1000022c:	429c      	cmp	r4, r3
1000022e:	d01b      	beq.n	10000268 <Periph_Lock+0xb4>
10000230:	f503 5380 	add.w	r3, r3, #4096	; 0x1000
10000234:	429c      	cmp	r4, r3
10000236:	d019      	beq.n	1000026c <Periph_Lock+0xb8>
10000238:	4b10      	ldr	r3, [pc, #64]	; (1000027c <Periph_Lock+0xc8>)
1000023a:	429c      	cmp	r4, r3
1000023c:	d018      	beq.n	10000270 <Periph_Lock+0xbc>
1000023e:	4b10      	ldr	r3, [pc, #64]	; (10000280 <Periph_Lock+0xcc>)
10000240:	429c      	cmp	r4, r3
10000242:	d0bf      	beq.n	100001c4 <Periph_Lock+0x10>
10000244:	2020      	movs	r0, #32
10000246:	e7c0      	b.n	100001ca <Periph_Lock+0x16>
10000248:	2000      	movs	r0, #0
1000024a:	e7be      	b.n	100001ca <Periph_Lock+0x16>
1000024c:	2000      	movs	r0, #0
1000024e:	e7bc      	b.n	100001ca <Periph_Lock+0x16>
10000250:	2000      	movs	r0, #0
10000252:	e7ba      	b.n	100001ca <Periph_Lock+0x16>
10000254:	2000      	movs	r0, #0
10000256:	e7b8      	b.n	100001ca <Periph_Lock+0x16>
10000258:	2000      	movs	r0, #0
1000025a:	e7b6      	b.n	100001ca <Periph_Lock+0x16>
1000025c:	2000      	movs	r0, #0
1000025e:	e7b4      	b.n	100001ca <Periph_Lock+0x16>
10000260:	2000      	movs	r0, #0
10000262:	e7b2      	b.n	100001ca <Periph_Lock+0x16>
10000264:	2000      	movs	r0, #0
10000266:	e7b0      	b.n	100001ca <Periph_Lock+0x16>
10000268:	2000      	movs	r0, #0
1000026a:	e7ae      	b.n	100001ca <Periph_Lock+0x16>
1000026c:	2000      	movs	r0, #0
1000026e:	e7ac      	b.n	100001ca <Periph_Lock+0x16>
10000270:	2000      	movs	r0, #0
10000272:	e7aa      	b.n	100001ca <Periph_Lock+0x16>
    }
  }

  return ret;
}
10000274:	4630      	mov	r0, r6
10000276:	bdf8      	pop	{r3, r4, r5, r6, r7, pc}
10000278:	50002000 	.word	0x50002000
1000027c:	54004000 	.word	0x54004000
10000280:	5000d000 	.word	0x5000d000

10000284 <Periph_Unlock>:
  * @brief  The Periph_Unlock released a previously-acquired semaphore which we want to unlock
  * @param  Peripheral: used to identify which peripheral and the related semaphore
  * @retval None
  */
void Periph_Unlock(void* Peripheral)
{
10000284:	b508      	push	{r3, lr}
  /* Release HSEM  */
  HAL_HSEM_Release(GET_HSEM_SEM_INDEX(Peripheral), 0);
10000286:	4b27      	ldr	r3, [pc, #156]	; (10000324 <Periph_Unlock+0xa0>)
10000288:	4298      	cmp	r0, r3
1000028a:	d030      	beq.n	100002ee <Periph_Unlock+0x6a>
1000028c:	f503 5380 	add.w	r3, r3, #4096	; 0x1000
10000290:	4298      	cmp	r0, r3
10000292:	d031      	beq.n	100002f8 <Periph_Unlock+0x74>
10000294:	f503 5380 	add.w	r3, r3, #4096	; 0x1000
10000298:	4298      	cmp	r0, r3
1000029a:	d02f      	beq.n	100002fc <Periph_Unlock+0x78>
1000029c:	f1b0 2f50 	cmp.w	r0, #1342197760	; 0x50005000
100002a0:	d02e      	beq.n	10000300 <Periph_Unlock+0x7c>
100002a2:	f503 5300 	add.w	r3, r3, #8192	; 0x2000
100002a6:	4298      	cmp	r0, r3
100002a8:	d02c      	beq.n	10000304 <Periph_Unlock+0x80>
100002aa:	f503 5380 	add.w	r3, r3, #4096	; 0x1000
100002ae:	4298      	cmp	r0, r3
100002b0:	d02a      	beq.n	10000308 <Periph_Unlock+0x84>
100002b2:	f503 5380 	add.w	r3, r3, #4096	; 0x1000
100002b6:	4298      	cmp	r0, r3
100002b8:	d028      	beq.n	1000030c <Periph_Unlock+0x88>
100002ba:	f503 5380 	add.w	r3, r3, #4096	; 0x1000
100002be:	4298      	cmp	r0, r3
100002c0:	d026      	beq.n	10000310 <Periph_Unlock+0x8c>
100002c2:	f503 5380 	add.w	r3, r3, #4096	; 0x1000
100002c6:	4298      	cmp	r0, r3
100002c8:	d024      	beq.n	10000314 <Periph_Unlock+0x90>
100002ca:	f503 5380 	add.w	r3, r3, #4096	; 0x1000
100002ce:	4298      	cmp	r0, r3
100002d0:	d022      	beq.n	10000318 <Periph_Unlock+0x94>
100002d2:	f503 5380 	add.w	r3, r3, #4096	; 0x1000
100002d6:	4298      	cmp	r0, r3
100002d8:	d020      	beq.n	1000031c <Periph_Unlock+0x98>
100002da:	4b13      	ldr	r3, [pc, #76]	; (10000328 <Periph_Unlock+0xa4>)
100002dc:	4298      	cmp	r0, r3
100002de:	d01f      	beq.n	10000320 <Periph_Unlock+0x9c>
100002e0:	4b12      	ldr	r3, [pc, #72]	; (1000032c <Periph_Unlock+0xa8>)
100002e2:	4298      	cmp	r0, r3
100002e4:	d001      	beq.n	100002ea <Periph_Unlock+0x66>
100002e6:	2020      	movs	r0, #32
100002e8:	e002      	b.n	100002f0 <Periph_Unlock+0x6c>
100002ea:	2001      	movs	r0, #1
100002ec:	e000      	b.n	100002f0 <Periph_Unlock+0x6c>
100002ee:	2000      	movs	r0, #0
100002f0:	2100      	movs	r1, #0
100002f2:	f001 fdf5 	bl	10001ee0 <HAL_HSEM_Release>

}
100002f6:	bd08      	pop	{r3, pc}
  HAL_HSEM_Release(GET_HSEM_SEM_INDEX(Peripheral), 0);
100002f8:	2000      	movs	r0, #0
100002fa:	e7f9      	b.n	100002f0 <Periph_Unlock+0x6c>
100002fc:	2000      	movs	r0, #0
100002fe:	e7f7      	b.n	100002f0 <Periph_Unlock+0x6c>
10000300:	2000      	movs	r0, #0
10000302:	e7f5      	b.n	100002f0 <Periph_Unlock+0x6c>
10000304:	2000      	movs	r0, #0
10000306:	e7f3      	b.n	100002f0 <Periph_Unlock+0x6c>
10000308:	2000      	movs	r0, #0
1000030a:	e7f1      	b.n	100002f0 <Periph_Unlock+0x6c>
1000030c:	2000      	movs	r0, #0
1000030e:	e7ef      	b.n	100002f0 <Periph_Unlock+0x6c>
10000310:	2000      	movs	r0, #0
10000312:	e7ed      	b.n	100002f0 <Periph_Unlock+0x6c>
10000314:	2000      	movs	r0, #0
10000316:	e7eb      	b.n	100002f0 <Periph_Unlock+0x6c>
10000318:	2000      	movs	r0, #0
1000031a:	e7e9      	b.n	100002f0 <Periph_Unlock+0x6c>
1000031c:	2000      	movs	r0, #0
1000031e:	e7e7      	b.n	100002f0 <Periph_Unlock+0x6c>
10000320:	2000      	movs	r0, #0
10000322:	e7e5      	b.n	100002f0 <Periph_Unlock+0x6c>
10000324:	50002000 	.word	0x50002000
10000328:	54004000 	.word	0x54004000
1000032c:	5000d000 	.word	0x5000d000

10000330 <Exti14FallingCb>:
  * @brief EXTI line detection callbacks
  * @param None:
  * @retval None
  */
static void Exti14FallingCb(void)
{
10000330:	b510      	push	{r4, lr}
  /* Set variable to report push button event to main program */
	log_info("User button 14 is pressed\r\n");	// SmartFarming
10000332:	f001 fa8f 	bl	10001854 <HAL_GetTick>
10000336:	4604      	mov	r4, r0
10000338:	f001 fa8c 	bl	10001854 <HAL_GetTick>
1000033c:	4908      	ldr	r1, [pc, #32]	; (10000360 <Exti14FallingCb+0x30>)
1000033e:	fba1 2300 	umull	r2, r3, r1, r0
10000342:	099b      	lsrs	r3, r3, #6
10000344:	fba1 2104 	umull	r2, r1, r1, r4
10000348:	f44f 727a 	mov.w	r2, #1000	; 0x3e8
1000034c:	fb02 0213 	mls	r2, r2, r3, r0
10000350:	0989      	lsrs	r1, r1, #6
10000352:	4804      	ldr	r0, [pc, #16]	; (10000364 <Exti14FallingCb+0x34>)
10000354:	f006 fe14 	bl	10006f80 <iprintf>
  ubUserButtonClickEvent = SET;
10000358:	4b03      	ldr	r3, [pc, #12]	; (10000368 <Exti14FallingCb+0x38>)
1000035a:	2201      	movs	r2, #1
1000035c:	701a      	strb	r2, [r3, #0]
}
1000035e:	bd10      	pop	{r4, pc}
10000360:	10624dd3 	.word	0x10624dd3
10000364:	10007a50 	.word	0x10007a50
10000368:	10020520 	.word	0x10020520

1000036c <EXTI14_IRQHandler_Config>:
{
1000036c:	e92d 41f0 	stmdb	sp!, {r4, r5, r6, r7, r8, lr}
10000370:	b08a      	sub	sp, #40	; 0x28
  __HAL_RCC_GPIOA_CLK_ENABLE();
10000372:	2601      	movs	r6, #1
10000374:	f04f 43a0 	mov.w	r3, #1342177280	; 0x50000000
10000378:	f8c3 6aa8 	str.w	r6, [r3, #2728]	; 0xaa8
  GPIO_InitStruct.Mode = GPIO_MODE_INPUT;
1000037c:	2400      	movs	r4, #0
1000037e:	9406      	str	r4, [sp, #24]
  GPIO_InitStruct.Pull = GPIO_NOPULL;
10000380:	9407      	str	r4, [sp, #28]
  GPIO_InitStruct.Pin = USER_BUTTON_PIN;
10000382:	f44f 4380 	mov.w	r3, #16384	; 0x4000
10000386:	9305      	str	r3, [sp, #20]
  PERIPH_LOCK(GPIOA);
10000388:	4d18      	ldr	r5, [pc, #96]	; (100003ec <EXTI14_IRQHandler_Config+0x80>)
1000038a:	2164      	movs	r1, #100	; 0x64
1000038c:	4628      	mov	r0, r5
1000038e:	f7ff ff11 	bl	100001b4 <Periph_Lock>
  HAL_GPIO_Init(GPIOA, &GPIO_InitStruct);
10000392:	a905      	add	r1, sp, #20
10000394:	4628      	mov	r0, r5
10000396:	f001 fc9f 	bl	10001cd8 <HAL_GPIO_Init>
  PERIPH_UNLOCK(GPIOA);
1000039a:	4628      	mov	r0, r5
1000039c:	f7ff ff72 	bl	10000284 <Periph_Unlock>
  EXTI_ConfigStructure.Line = EXTI_LINE_14;
100003a0:	4b13      	ldr	r3, [pc, #76]	; (100003f0 <EXTI14_IRQHandler_Config+0x84>)
100003a2:	9301      	str	r3, [sp, #4]
  EXTI_ConfigStructure.Trigger = EXTI_TRIGGER_FALLING;
100003a4:	2702      	movs	r7, #2
100003a6:	9703      	str	r7, [sp, #12]
  EXTI_ConfigStructure.GPIOSel = EXTI_GPIOA;
100003a8:	9404      	str	r4, [sp, #16]
  EXTI_ConfigStructure.Mode = EXTI_MODE_C2_INTERRUPT;
100003aa:	2321      	movs	r3, #33	; 0x21
100003ac:	9302      	str	r3, [sp, #8]
  PERIPH_LOCK(EXTI);
100003ae:	f8df 804c 	ldr.w	r8, [pc, #76]	; 100003fc <EXTI14_IRQHandler_Config+0x90>
100003b2:	2164      	movs	r1, #100	; 0x64
100003b4:	4640      	mov	r0, r8
100003b6:	f7ff fefd 	bl	100001b4 <Periph_Lock>
  HAL_EXTI_SetConfigLine(&hexti14, &EXTI_ConfigStructure);
100003ba:	4d0e      	ldr	r5, [pc, #56]	; (100003f4 <EXTI14_IRQHandler_Config+0x88>)
100003bc:	a901      	add	r1, sp, #4
100003be:	4628      	mov	r0, r5
100003c0:	f001 fbd4 	bl	10001b6c <HAL_EXTI_SetConfigLine>
  PERIPH_UNLOCK(EXTI);
100003c4:	4640      	mov	r0, r8
100003c6:	f7ff ff5d 	bl	10000284 <Periph_Unlock>
  HAL_EXTI_RegisterCallback(&hexti14, HAL_EXTI_FALLING_CB_ID, Exti14FallingCb);
100003ca:	4a0b      	ldr	r2, [pc, #44]	; (100003f8 <EXTI14_IRQHandler_Config+0x8c>)
100003cc:	4639      	mov	r1, r7
100003ce:	4628      	mov	r0, r5
100003d0:	f001 fc50 	bl	10001c74 <HAL_EXTI_RegisterCallback>
  HAL_NVIC_SetPriority(EXTI14_IRQn, DEFAULT_IRQ_PRIO, 0);
100003d4:	4622      	mov	r2, r4
100003d6:	4631      	mov	r1, r6
100003d8:	2079      	movs	r0, #121	; 0x79
100003da:	f001 fa6b 	bl	100018b4 <HAL_NVIC_SetPriority>
  HAL_NVIC_EnableIRQ(EXTI14_IRQn);
100003de:	2079      	movs	r0, #121	; 0x79
100003e0:	f001 fa9c 	bl	1000191c <HAL_NVIC_EnableIRQ>
}
100003e4:	b00a      	add	sp, #40	; 0x28
100003e6:	e8bd 81f0 	ldmia.w	sp!, {r4, r5, r6, r7, r8, pc}
100003ea:	bf00      	nop
100003ec:	50002000 	.word	0x50002000
100003f0:	1600000e 	.word	0x1600000e
100003f4:	10020b80 	.word	0x10020b80
100003f8:	10000331 	.word	0x10000331
100003fc:	5000d000 	.word	0x5000d000

10000400 <VIRT_UART0_RxCpltCallback>:
{
10000400:	b538      	push	{r3, r4, r5, lr}
10000402:	4604      	mov	r4, r0
    log_info("Msg received on VIRTUAL UART0 channel:  %s \n\r", (char *) huart->pRxBuffPtr);
10000404:	f001 fa26 	bl	10001854 <HAL_GetTick>
10000408:	4605      	mov	r5, r0
1000040a:	f001 fa23 	bl	10001854 <HAL_GetTick>
1000040e:	490f      	ldr	r1, [pc, #60]	; (1000044c <VIRT_UART0_RxCpltCallback+0x4c>)
10000410:	fba1 3200 	umull	r3, r2, r1, r0
10000414:	0992      	lsrs	r2, r2, #6
10000416:	fba1 3105 	umull	r3, r1, r1, r5
1000041a:	6c63      	ldr	r3, [r4, #68]	; 0x44
1000041c:	f44f 757a 	mov.w	r5, #1000	; 0x3e8
10000420:	fb05 0212 	mls	r2, r5, r2, r0
10000424:	0989      	lsrs	r1, r1, #6
10000426:	480a      	ldr	r0, [pc, #40]	; (10000450 <VIRT_UART0_RxCpltCallback+0x50>)
10000428:	f006 fdaa 	bl	10006f80 <iprintf>
    VirtUart0ChannelRxSize = huart->RxXferSize < MAX_BUFFER_SIZE? huart->RxXferSize : MAX_BUFFER_SIZE-1;
1000042c:	f8b4 2048 	ldrh.w	r2, [r4, #72]	; 0x48
10000430:	f240 13ff 	movw	r3, #511	; 0x1ff
10000434:	429a      	cmp	r2, r3
10000436:	bf28      	it	cs
10000438:	461a      	movcs	r2, r3
1000043a:	4d06      	ldr	r5, [pc, #24]	; (10000454 <VIRT_UART0_RxCpltCallback+0x54>)
1000043c:	806a      	strh	r2, [r5, #2]
    memcpy(VirtUart0ChannelBuffRx, huart->pRxBuffPtr, VirtUart0ChannelRxSize);
1000043e:	6c61      	ldr	r1, [r4, #68]	; 0x44
10000440:	4805      	ldr	r0, [pc, #20]	; (10000458 <VIRT_UART0_RxCpltCallback+0x58>)
10000442:	f006 f9ef 	bl	10006824 <memcpy>
    VirtUart0RxMsg = SET;
10000446:	2301      	movs	r3, #1
10000448:	712b      	strb	r3, [r5, #4]
}
1000044a:	bd38      	pop	{r3, r4, r5, pc}
1000044c:	10624dd3 	.word	0x10624dd3
10000450:	10007a80 	.word	0x10007a80
10000454:	10020520 	.word	0x10020520
10000458:	10020660 	.word	0x10020660

1000045c <RCC_backupClocks>:
{
1000045c:	b508      	push	{r3, lr}
  *         @arg @ref LL_RCC_MCUSS_CLKSOURCE_CSI
  *         @arg @ref LL_RCC_MCUSS_CLKSOURCE_PLL3
  */
__STATIC_INLINE uint32_t LL_RCC_GetMCUSSClkSource(void)
{
  return (uint32_t)(READ_BIT(RCC->MSSCKSELR, RCC_MSSCKSELR_MCUSSRC));
1000045e:	f04f 41a0 	mov.w	r1, #1342177280	; 0x50000000
10000462:	6c8b      	ldr	r3, [r1, #72]	; 0x48
10000464:	f003 0303 	and.w	r3, r3, #3
  RCC_MCUInit.MCU_Clock = LL_RCC_GetMCUSSClkSource();
10000468:	4a05      	ldr	r2, [pc, #20]	; (10000480 <RCC_backupClocks+0x24>)
1000046a:	6013      	str	r3, [r2, #0]
  *         @arg @ref LL_RCC_MCU_DIV_256
  *         @arg @ref LL_RCC_MCU_DIV_512
  */
__STATIC_INLINE uint32_t LL_RCC_GetMLHCLKPrescaler(void)
{
  return (uint32_t)(READ_BIT(RCC->MCUDIVR, RCC_MCUDIVR_MCUDIV));
1000046c:	f8d1 3830 	ldr.w	r3, [r1, #2096]	; 0x830
10000470:	f003 030f 	and.w	r3, r3, #15
  RCC_MCUInit.MCU_Div = LL_RCC_GetMLHCLKPrescaler();
10000474:	6053      	str	r3, [r2, #4]
  HAL_RCCEx_GetPeriphCLKConfig(&PeriphClk);
10000476:	4803      	ldr	r0, [pc, #12]	; (10000484 <RCC_backupClocks+0x28>)
10000478:	f004 fcd8 	bl	10004e2c <HAL_RCCEx_GetPeriphCLKConfig>
}
1000047c:	bd08      	pop	{r3, pc}
1000047e:	bf00      	nop
10000480:	10020658 	.word	0x10020658
10000484:	10020918 	.word	0x10020918

10000488 <RCC_restoreClocks>:
{
10000488:	b500      	push	{lr}
1000048a:	b085      	sub	sp, #20
  SystemCoreClockUpdate();
1000048c:	f001 f8fc 	bl	10001688 <SystemCoreClockUpdate>
  status = HAL_InitTick(uwTickPrio);
10000490:	4b6d      	ldr	r3, [pc, #436]	; (10000648 <RCC_restoreClocks+0x1c0>)
10000492:	6818      	ldr	r0, [r3, #0]
10000494:	f001 f996 	bl	100017c4 <HAL_InitTick>
  if (status != HAL_OK)
10000498:	4603      	mov	r3, r0
1000049a:	2800      	cmp	r0, #0
1000049c:	f040 80cd 	bne.w	1000063a <RCC_restoreClocks+0x1b2>
  if (RCC_MCUInit.MCU_Clock == LL_RCC_MCUSS_CLKSOURCE_PLL3)
100004a0:	4b6a      	ldr	r3, [pc, #424]	; (1000064c <RCC_restoreClocks+0x1c4>)
100004a2:	681b      	ldr	r3, [r3, #0]
100004a4:	2b03      	cmp	r3, #3
100004a6:	d00a      	beq.n	100004be <RCC_restoreClocks+0x36>
  bool pll3_enable = false;
100004a8:	2100      	movs	r1, #0
  switch(PeriphClk.AdcClockSelection)
100004aa:	4a69      	ldr	r2, [pc, #420]	; (10000650 <RCC_restoreClocks+0x1c8>)
100004ac:	f8d2 2144 	ldr.w	r2, [r2, #324]	; 0x144
100004b0:	b13a      	cbz	r2, 100004c2 <RCC_restoreClocks+0x3a>
100004b2:	2a02      	cmp	r2, #2
100004b4:	d007      	beq.n	100004c6 <RCC_restoreClocks+0x3e>
100004b6:	2000      	movs	r0, #0
  if (pll3_enable)
100004b8:	2900      	cmp	r1, #0
100004ba:	d039      	beq.n	10000530 <RCC_restoreClocks+0xa8>
100004bc:	e004      	b.n	100004c8 <RCC_restoreClocks+0x40>
      pll3_enable = true;
100004be:	2101      	movs	r1, #1
100004c0:	e7f3      	b.n	100004aa <RCC_restoreClocks+0x22>
      pll4_enable = true;
100004c2:	2001      	movs	r0, #1
100004c4:	e7f8      	b.n	100004b8 <RCC_restoreClocks+0x30>
  switch(PeriphClk.AdcClockSelection)
100004c6:	2000      	movs	r0, #0
  * @rmtoll PLL3CR           PLLON         LL_RCC_PLL3_Enable
  * @retval None
  */
__STATIC_INLINE void LL_RCC_PLL3_Enable(void)
{
  SET_BIT(RCC->PLL3CR, RCC_PLL3CR_PLLON);
100004c8:	f04f 41a0 	mov.w	r1, #1342177280	; 0x50000000
100004cc:	f8d1 2880 	ldr.w	r2, [r1, #2176]	; 0x880
100004d0:	f042 0201 	orr.w	r2, r2, #1
100004d4:	f8c1 2880 	str.w	r2, [r1, #2176]	; 0x880
    __WAIT_EVENT_TIMEOUT(LL_RCC_PLL3_IsReady(), CLOCKSWITCH_TIMEOUT_VALUE);
100004d8:	4a5e      	ldr	r2, [pc, #376]	; (10000654 <RCC_restoreClocks+0x1cc>)
100004da:	6812      	ldr	r2, [r2, #0]
100004dc:	495e      	ldr	r1, [pc, #376]	; (10000658 <RCC_restoreClocks+0x1d0>)
100004de:	fba1 1202 	umull	r1, r2, r1, r2
100004e2:	0b92      	lsrs	r2, r2, #14
100004e4:	f44f 717a 	mov.w	r1, #1000	; 0x3e8
100004e8:	fb01 f202 	mul.w	r2, r1, r2
100004ec:	9200      	str	r2, [sp, #0]
100004ee:	9a00      	ldr	r2, [sp, #0]
100004f0:	1e51      	subs	r1, r2, #1
100004f2:	9100      	str	r1, [sp, #0]
100004f4:	2a00      	cmp	r2, #0
100004f6:	f000 809b 	beq.w	10000630 <RCC_restoreClocks+0x1a8>
  * @rmtoll PLL3CR           PLL3RDY        LL_RCC_PLL3_IsReady
  * @retval State of bit (1 or 0).
  */
__STATIC_INLINE uint32_t LL_RCC_PLL3_IsReady(void)
{
  return ((READ_BIT(RCC->PLL3CR, RCC_PLL3CR_PLL3RDY) == RCC_PLL3CR_PLL3RDY) ? 1UL : 0UL);
100004fa:	f04f 42a0 	mov.w	r2, #1342177280	; 0x50000000
100004fe:	f8d2 2880 	ldr.w	r2, [r2, #2176]	; 0x880
10000502:	f012 0f02 	tst.w	r2, #2
10000506:	d0f2      	beq.n	100004ee <RCC_restoreClocks+0x66>
  * @rmtoll PLL3CR           DIVPEN         LL_RCC_PLL3P_Enable
  * @retval None
  */
__STATIC_INLINE void LL_RCC_PLL3P_Enable(void)
{
  SET_BIT(RCC->PLL3CR, RCC_PLL3CR_DIVPEN);
10000508:	f04f 42a0 	mov.w	r2, #1342177280	; 0x50000000
1000050c:	f8d2 1880 	ldr.w	r1, [r2, #2176]	; 0x880
10000510:	f041 0110 	orr.w	r1, r1, #16
10000514:	f8c2 1880 	str.w	r1, [r2, #2176]	; 0x880
  * @rmtoll PLL3CR           DIVQEN         LL_RCC_PLL3Q_Enable
  * @retval None
  */
__STATIC_INLINE void LL_RCC_PLL3Q_Enable(void)
{
  SET_BIT(RCC->PLL3CR, RCC_PLL3CR_DIVQEN);
10000518:	f8d2 1880 	ldr.w	r1, [r2, #2176]	; 0x880
1000051c:	f041 0120 	orr.w	r1, r1, #32
10000520:	f8c2 1880 	str.w	r1, [r2, #2176]	; 0x880
  * @rmtoll PLL3CR           DIVREN         LL_RCC_PLL3R_Enable
  * @retval None
  */
__STATIC_INLINE void LL_RCC_PLL3R_Enable(void)
{
  SET_BIT(RCC->PLL3CR, RCC_PLL3CR_DIVREN);
10000524:	f8d2 1880 	ldr.w	r1, [r2, #2176]	; 0x880
10000528:	f041 0140 	orr.w	r1, r1, #64	; 0x40
1000052c:	f8c2 1880 	str.w	r1, [r2, #2176]	; 0x880
  if (pll4_enable)
10000530:	b390      	cbz	r0, 10000598 <RCC_restoreClocks+0x110>
  * @rmtoll PLL4CR           PLLON         LL_RCC_PLL4_Enable
  * @retval None
  */
__STATIC_INLINE void LL_RCC_PLL4_Enable(void)
{
  SET_BIT(RCC->PLL4CR, RCC_PLL4CR_PLLON);
10000532:	f04f 41a0 	mov.w	r1, #1342177280	; 0x50000000
10000536:	f8d1 2894 	ldr.w	r2, [r1, #2196]	; 0x894
1000053a:	f042 0201 	orr.w	r2, r2, #1
1000053e:	f8c1 2894 	str.w	r2, [r1, #2196]	; 0x894
    __WAIT_EVENT_TIMEOUT(LL_RCC_PLL4_IsReady(), CLOCKSWITCH_TIMEOUT_VALUE);
10000542:	4a44      	ldr	r2, [pc, #272]	; (10000654 <RCC_restoreClocks+0x1cc>)
10000544:	6812      	ldr	r2, [r2, #0]
10000546:	4944      	ldr	r1, [pc, #272]	; (10000658 <RCC_restoreClocks+0x1d0>)
10000548:	fba1 1202 	umull	r1, r2, r1, r2
1000054c:	0b92      	lsrs	r2, r2, #14
1000054e:	f44f 717a 	mov.w	r1, #1000	; 0x3e8
10000552:	fb01 f202 	mul.w	r2, r1, r2
10000556:	9201      	str	r2, [sp, #4]
10000558:	9a01      	ldr	r2, [sp, #4]
1000055a:	1e51      	subs	r1, r2, #1
1000055c:	9101      	str	r1, [sp, #4]
1000055e:	2a00      	cmp	r2, #0
10000560:	d068      	beq.n	10000634 <RCC_restoreClocks+0x1ac>
  * @rmtoll PLL4CR           PLL4RDY        LL_RCC_PLL4_IsReady
  * @retval State of bit (1 or 0).
  */
__STATIC_INLINE uint32_t LL_RCC_PLL4_IsReady(void)
{
  return ((READ_BIT(RCC->PLL4CR, RCC_PLL4CR_PLL4RDY) == RCC_PLL4CR_PLL4RDY) ? 1UL : 0UL);
10000562:	f04f 42a0 	mov.w	r2, #1342177280	; 0x50000000
10000566:	f8d2 2894 	ldr.w	r2, [r2, #2196]	; 0x894
1000056a:	f012 0f02 	tst.w	r2, #2
1000056e:	d0f3      	beq.n	10000558 <RCC_restoreClocks+0xd0>
  * @rmtoll PLL4CR           DIVPEN         LL_RCC_PLL4P_Enable
  * @retval None
  */
__STATIC_INLINE void LL_RCC_PLL4P_Enable(void)
{
  SET_BIT(RCC->PLL4CR, RCC_PLL4CR_DIVPEN);
10000570:	f04f 42a0 	mov.w	r2, #1342177280	; 0x50000000
10000574:	f8d2 1894 	ldr.w	r1, [r2, #2196]	; 0x894
10000578:	f041 0110 	orr.w	r1, r1, #16
1000057c:	f8c2 1894 	str.w	r1, [r2, #2196]	; 0x894
  * @rmtoll PLL4CR           DIVQEN         LL_RCC_PLL4Q_Enable
  * @retval None
  */
__STATIC_INLINE void LL_RCC_PLL4Q_Enable(void)
{
  SET_BIT(RCC->PLL4CR, RCC_PLL4CR_DIVQEN);
10000580:	f8d2 1894 	ldr.w	r1, [r2, #2196]	; 0x894
10000584:	f041 0120 	orr.w	r1, r1, #32
10000588:	f8c2 1894 	str.w	r1, [r2, #2196]	; 0x894
  * @rmtoll PLL4CR           DIVREN         LL_RCC_PLL4R_Enable
  * @retval None
  */
__STATIC_INLINE void LL_RCC_PLL4R_Enable(void)
{
  SET_BIT(RCC->PLL4CR, RCC_PLL4CR_DIVREN);
1000058c:	f8d2 1894 	ldr.w	r1, [r2, #2196]	; 0x894
10000590:	f041 0140 	orr.w	r1, r1, #64	; 0x40
10000594:	f8c2 1894 	str.w	r1, [r2, #2196]	; 0x894
  MODIFY_REG(RCC->MSSCKSELR, RCC_MSSCKSELR_MCUSSRC, Source);
10000598:	f04f 41a0 	mov.w	r1, #1342177280	; 0x50000000
1000059c:	6c8a      	ldr	r2, [r1, #72]	; 0x48
1000059e:	f022 0203 	bic.w	r2, r2, #3
100005a2:	4313      	orrs	r3, r2
100005a4:	648b      	str	r3, [r1, #72]	; 0x48
  __WAIT_EVENT_TIMEOUT(__HAL_RCC_GET_FLAG(RCC_FLAG_MCUSSRCRDY),
100005a6:	4b2b      	ldr	r3, [pc, #172]	; (10000654 <RCC_restoreClocks+0x1cc>)
100005a8:	681b      	ldr	r3, [r3, #0]
100005aa:	4a2b      	ldr	r2, [pc, #172]	; (10000658 <RCC_restoreClocks+0x1d0>)
100005ac:	fba2 2303 	umull	r2, r3, r2, r3
100005b0:	0b9b      	lsrs	r3, r3, #14
100005b2:	f44f 727a 	mov.w	r2, #1000	; 0x3e8
100005b6:	fb02 f303 	mul.w	r3, r2, r3
100005ba:	9302      	str	r3, [sp, #8]
100005bc:	9b02      	ldr	r3, [sp, #8]
100005be:	1e5a      	subs	r2, r3, #1
100005c0:	9202      	str	r2, [sp, #8]
100005c2:	2b00      	cmp	r3, #0
100005c4:	d038      	beq.n	10000638 <RCC_restoreClocks+0x1b0>
100005c6:	f04f 43a0 	mov.w	r3, #1342177280	; 0x50000000
100005ca:	6c9b      	ldr	r3, [r3, #72]	; 0x48
100005cc:	2b00      	cmp	r3, #0
100005ce:	daf5      	bge.n	100005bc <RCC_restoreClocks+0x134>
  SystemCoreClockUpdate();
100005d0:	f001 f85a 	bl	10001688 <SystemCoreClockUpdate>
  status = HAL_InitTick(uwTickPrio);
100005d4:	4b1c      	ldr	r3, [pc, #112]	; (10000648 <RCC_restoreClocks+0x1c0>)
100005d6:	6818      	ldr	r0, [r3, #0]
100005d8:	f001 f8f4 	bl	100017c4 <HAL_InitTick>
  if (status != HAL_OK)
100005dc:	4603      	mov	r3, r0
100005de:	bb60      	cbnz	r0, 1000063a <RCC_restoreClocks+0x1b2>
  LL_RCC_SetMLHCLKPrescaler(RCC_MCUInit.MCU_Div);
100005e0:	4b1a      	ldr	r3, [pc, #104]	; (1000064c <RCC_restoreClocks+0x1c4>)
100005e2:	685b      	ldr	r3, [r3, #4]
  MODIFY_REG(RCC->MCUDIVR, RCC_MCUDIVR_MCUDIV, Prescaler);
100005e4:	f04f 41a0 	mov.w	r1, #1342177280	; 0x50000000
100005e8:	f8d1 2830 	ldr.w	r2, [r1, #2096]	; 0x830
100005ec:	f022 020f 	bic.w	r2, r2, #15
100005f0:	4313      	orrs	r3, r2
100005f2:	f8c1 3830 	str.w	r3, [r1, #2096]	; 0x830
  __WAIT_EVENT_TIMEOUT(__HAL_RCC_GET_FLAG(RCC_FLAG_MCUDIVRDY),
100005f6:	4b17      	ldr	r3, [pc, #92]	; (10000654 <RCC_restoreClocks+0x1cc>)
100005f8:	681b      	ldr	r3, [r3, #0]
100005fa:	4a17      	ldr	r2, [pc, #92]	; (10000658 <RCC_restoreClocks+0x1d0>)
100005fc:	fba2 2303 	umull	r2, r3, r2, r3
10000600:	0b9b      	lsrs	r3, r3, #14
10000602:	f44f 727a 	mov.w	r2, #1000	; 0x3e8
10000606:	fb02 f303 	mul.w	r3, r2, r3
1000060a:	9303      	str	r3, [sp, #12]
1000060c:	9b03      	ldr	r3, [sp, #12]
1000060e:	1e5a      	subs	r2, r3, #1
10000610:	9203      	str	r2, [sp, #12]
10000612:	b1b3      	cbz	r3, 10000642 <RCC_restoreClocks+0x1ba>
10000614:	f04f 43a0 	mov.w	r3, #1342177280	; 0x50000000
10000618:	f8d3 3830 	ldr.w	r3, [r3, #2096]	; 0x830
1000061c:	2b00      	cmp	r3, #0
1000061e:	daf5      	bge.n	1000060c <RCC_restoreClocks+0x184>
  SystemCoreClockUpdate();
10000620:	f001 f832 	bl	10001688 <SystemCoreClockUpdate>
  status = HAL_InitTick(uwTickPrio);
10000624:	4b08      	ldr	r3, [pc, #32]	; (10000648 <RCC_restoreClocks+0x1c0>)
10000626:	6818      	ldr	r0, [r3, #0]
10000628:	f001 f8cc 	bl	100017c4 <HAL_InitTick>
1000062c:	4603      	mov	r3, r0
  if (status != HAL_OK)
1000062e:	e004      	b.n	1000063a <RCC_restoreClocks+0x1b2>
    __WAIT_EVENT_TIMEOUT(LL_RCC_PLL3_IsReady(), CLOCKSWITCH_TIMEOUT_VALUE);
10000630:	2303      	movs	r3, #3
10000632:	e002      	b.n	1000063a <RCC_restoreClocks+0x1b2>
    __WAIT_EVENT_TIMEOUT(LL_RCC_PLL4_IsReady(), CLOCKSWITCH_TIMEOUT_VALUE);
10000634:	2303      	movs	r3, #3
10000636:	e000      	b.n	1000063a <RCC_restoreClocks+0x1b2>
  __WAIT_EVENT_TIMEOUT(__HAL_RCC_GET_FLAG(RCC_FLAG_MCUSSRCRDY),
10000638:	2303      	movs	r3, #3
}
1000063a:	4618      	mov	r0, r3
1000063c:	b005      	add	sp, #20
1000063e:	f85d fb04 	ldr.w	pc, [sp], #4
  __WAIT_EVENT_TIMEOUT(__HAL_RCC_GET_FLAG(RCC_FLAG_MCUDIVRDY),
10000642:	2303      	movs	r3, #3
10000644:	e7f9      	b.n	1000063a <RCC_restoreClocks+0x1b2>
10000646:	bf00      	nop
10000648:	100203e0 	.word	0x100203e0
1000064c:	10020658 	.word	0x10020658
10000650:	10020918 	.word	0x10020918
10000654:	100203d8 	.word	0x100203d8
10000658:	d1b71759 	.word	0xd1b71759

1000065c <Check_Delay>:
{
1000065c:	b570      	push	{r4, r5, r6, lr}
1000065e:	4605      	mov	r5, r0
10000660:	460c      	mov	r4, r1
  if (!strncmp((char *)BuffRx, MSG_DELAY, strlen(MSG_DELAY)))
10000662:	2206      	movs	r2, #6
10000664:	4913      	ldr	r1, [pc, #76]	; (100006b4 <Check_Delay+0x58>)
10000666:	f006 fcb3 	bl	10006fd0 <strncmp>
1000066a:	b9d0      	cbnz	r0, 100006a2 <Check_Delay+0x46>
    if (BuffSize > strlen(MSG_DELAY))
1000066c:	2c06      	cmp	r4, #6
1000066e:	d819      	bhi.n	100006a4 <Check_Delay+0x48>
      delay = 20;
10000670:	2514      	movs	r5, #20
    log_info("Waiting %d secs before sending the answer message\r\n", delay);
10000672:	f001 f8ef 	bl	10001854 <HAL_GetTick>
10000676:	4604      	mov	r4, r0
10000678:	f001 f8ec 	bl	10001854 <HAL_GetTick>
1000067c:	490e      	ldr	r1, [pc, #56]	; (100006b8 <Check_Delay+0x5c>)
1000067e:	fba1 3200 	umull	r3, r2, r1, r0
10000682:	0992      	lsrs	r2, r2, #6
10000684:	f44f 767a 	mov.w	r6, #1000	; 0x3e8
10000688:	fba1 3104 	umull	r3, r1, r1, r4
1000068c:	462b      	mov	r3, r5
1000068e:	fb06 0212 	mls	r2, r6, r2, r0
10000692:	0989      	lsrs	r1, r1, #6
10000694:	4809      	ldr	r0, [pc, #36]	; (100006bc <Check_Delay+0x60>)
10000696:	f006 fc73 	bl	10006f80 <iprintf>
    HAL_Delay(delay * 1000);
1000069a:	fb06 f005 	mul.w	r0, r6, r5
1000069e:	f001 f8df 	bl	10001860 <HAL_Delay>
}
100006a2:	bd70      	pop	{r4, r5, r6, pc}
      delay = atoi((char *)BuffRx + strlen(MSG_DELAY));
100006a4:	1da8      	adds	r0, r5, #6
100006a6:	f006 f873 	bl	10006790 <atoi>
    if (delay == 0)
100006aa:	f010 05ff 	ands.w	r5, r0, #255	; 0xff
100006ae:	d1e0      	bne.n	10000672 <Check_Delay+0x16>
      delay = 20;
100006b0:	2514      	movs	r5, #20
100006b2:	e7de      	b.n	10000672 <Check_Delay+0x16>
100006b4:	10007ac4 	.word	0x10007ac4
100006b8:	10624dd3 	.word	0x10624dd3
100006bc:	10007acc 	.word	0x10007acc

100006c0 <Error_Handler>:
  * @param  file: The file name as string.
  * @param  line: The line in file as a number.
  * @retval None
  */
void Error_Handler(void)
{
100006c0:	b508      	push	{r3, lr}
  /* USER CODE BEGIN Error_Handler_Debug */
  log_err("OOOps...\r\n");
100006c2:	f001 f8c7 	bl	10001854 <HAL_GetTick>
100006c6:	4604      	mov	r4, r0
100006c8:	f001 f8c4 	bl	10001854 <HAL_GetTick>
100006cc:	4603      	mov	r3, r0
100006ce:	4914      	ldr	r1, [pc, #80]	; (10000720 <Error_Handler+0x60>)
100006d0:	fba1 0203 	umull	r0, r2, r1, r3
100006d4:	0992      	lsrs	r2, r2, #6
100006d6:	fba1 0104 	umull	r0, r1, r1, r4
100006da:	f44f 707a 	mov.w	r0, #1000	; 0x3e8
100006de:	fb00 3212 	mls	r2, r0, r2, r3
100006e2:	0989      	lsrs	r1, r1, #6
100006e4:	480f      	ldr	r0, [pc, #60]	; (10000724 <Error_Handler+0x64>)
100006e6:	f006 fc4b 	bl	10006f80 <iprintf>
  while(1)
  {
	/* Toggle LED4 */
    BSP_LED_Off(LED4);
100006ea:	2002      	movs	r0, #2
100006ec:	f000 fcf8 	bl	100010e0 <BSP_LED_Off>
    HAL_Delay(800);
100006f0:	f44f 7048 	mov.w	r0, #800	; 0x320
100006f4:	f001 f8b4 	bl	10001860 <HAL_Delay>
    BSP_LED_On(LED4);
100006f8:	2002      	movs	r0, #2
100006fa:	f000 fcd1 	bl	100010a0 <BSP_LED_On>
    HAL_Delay(10);
100006fe:	200a      	movs	r0, #10
10000700:	f001 f8ae 	bl	10001860 <HAL_Delay>
    BSP_LED_Off(LED4);
10000704:	2002      	movs	r0, #2
10000706:	f000 fceb 	bl	100010e0 <BSP_LED_Off>
    HAL_Delay(180);
1000070a:	20b4      	movs	r0, #180	; 0xb4
1000070c:	f001 f8a8 	bl	10001860 <HAL_Delay>
    BSP_LED_On(LED4);
10000710:	2002      	movs	r0, #2
10000712:	f000 fcc5 	bl	100010a0 <BSP_LED_On>
    HAL_Delay(10);
10000716:	200a      	movs	r0, #10
10000718:	f001 f8a2 	bl	10001860 <HAL_Delay>
  while(1)
1000071c:	e7e5      	b.n	100006ea <Error_Handler+0x2a>
1000071e:	bf00      	nop
10000720:	10624dd3 	.word	0x10624dd3
10000724:	10007b14 	.word	0x10007b14

10000728 <MX_IPCC_Init>:
{
10000728:	b508      	push	{r3, lr}
  hipcc.Instance = IPCC;
1000072a:	4804      	ldr	r0, [pc, #16]	; (1000073c <MX_IPCC_Init+0x14>)
1000072c:	4b04      	ldr	r3, [pc, #16]	; (10000740 <MX_IPCC_Init+0x18>)
1000072e:	6003      	str	r3, [r0, #0]
  if (HAL_IPCC_Init(&hipcc) != HAL_OK)
10000730:	f002 f8e0 	bl	100028f4 <HAL_IPCC_Init>
10000734:	b900      	cbnz	r0, 10000738 <MX_IPCC_Init+0x10>
}
10000736:	bd08      	pop	{r3, pc}
     Error_Handler();
10000738:	f7ff ffc2 	bl	100006c0 <Error_Handler>
1000073c:	100208d8 	.word	0x100208d8
10000740:	4c001000 	.word	0x4c001000

10000744 <MX_TIM2_Init>:
{
10000744:	b500      	push	{lr}
10000746:	b089      	sub	sp, #36	; 0x24
  htim2.Instance = TIM2;
10000748:	4814      	ldr	r0, [pc, #80]	; (1000079c <MX_TIM2_Init+0x58>)
1000074a:	f04f 4380 	mov.w	r3, #1073741824	; 0x40000000
1000074e:	6003      	str	r3, [r0, #0]
  htim2.Init.Prescaler = 1;
10000750:	2301      	movs	r3, #1
10000752:	6043      	str	r3, [r0, #4]
  htim2.Init.CounterMode = TIM_COUNTERMODE_UP;
10000754:	2300      	movs	r3, #0
10000756:	6083      	str	r3, [r0, #8]
  htim2.Init.Period = 97999;
10000758:	4a11      	ldr	r2, [pc, #68]	; (100007a0 <MX_TIM2_Init+0x5c>)
1000075a:	60c2      	str	r2, [r0, #12]
  htim2.Init.ClockDivision = TIM_CLOCKDIVISION_DIV1;
1000075c:	6103      	str	r3, [r0, #16]
  htim2.Init.AutoReloadPreload = TIM_AUTORELOAD_PRELOAD_DISABLE;
1000075e:	6183      	str	r3, [r0, #24]
  if (HAL_TIM_Base_Init(&htim2) != HAL_OK)
10000760:	f004 fdb4 	bl	100052cc <HAL_TIM_Base_Init>
10000764:	b998      	cbnz	r0, 1000078e <MX_TIM2_Init+0x4a>
  sClockSourceConfig.ClockSource = TIM_CLOCKSOURCE_INTERNAL;
10000766:	f44f 5380 	mov.w	r3, #4096	; 0x1000
1000076a:	9304      	str	r3, [sp, #16]
  if (HAL_TIM_ConfigClockSource(&htim2, &sClockSourceConfig) != HAL_OK)
1000076c:	a904      	add	r1, sp, #16
1000076e:	480b      	ldr	r0, [pc, #44]	; (1000079c <MX_TIM2_Init+0x58>)
10000770:	f004 fdd2 	bl	10005318 <HAL_TIM_ConfigClockSource>
10000774:	b968      	cbnz	r0, 10000792 <MX_TIM2_Init+0x4e>
  sMasterConfig.MasterOutputTrigger = TIM_TRGO_UPDATE;
10000776:	2320      	movs	r3, #32
10000778:	9301      	str	r3, [sp, #4]
  sMasterConfig.MasterSlaveMode = TIM_MASTERSLAVEMODE_DISABLE;
1000077a:	2300      	movs	r3, #0
1000077c:	9303      	str	r3, [sp, #12]
  if (HAL_TIMEx_MasterConfigSynchronization(&htim2, &sMasterConfig) != HAL_OK)
1000077e:	a901      	add	r1, sp, #4
10000780:	4806      	ldr	r0, [pc, #24]	; (1000079c <MX_TIM2_Init+0x58>)
10000782:	f004 fe37 	bl	100053f4 <HAL_TIMEx_MasterConfigSynchronization>
10000786:	b930      	cbnz	r0, 10000796 <MX_TIM2_Init+0x52>
}
10000788:	b009      	add	sp, #36	; 0x24
1000078a:	f85d fb04 	ldr.w	pc, [sp], #4
    Error_Handler();
1000078e:	f7ff ff97 	bl	100006c0 <Error_Handler>
    Error_Handler();
10000792:	f7ff ff95 	bl	100006c0 <Error_Handler>
    Error_Handler();
10000796:	f7ff ff93 	bl	100006c0 <Error_Handler>
1000079a:	bf00      	nop
1000079c:	10020b40 	.word	0x10020b40
100007a0:	00017ecf 	.word	0x00017ecf

100007a4 <SystemClock_Config>:
{
100007a4:	b530      	push	{r4, r5, lr}
100007a6:	b0d3      	sub	sp, #332	; 0x14c
  RCC_OscInitTypeDef RCC_OscInitStruct = {0};
100007a8:	f44f 728a 	mov.w	r2, #276	; 0x114
100007ac:	2100      	movs	r1, #0
100007ae:	a80d      	add	r0, sp, #52	; 0x34
100007b0:	f006 f846 	bl	10006840 <memset>
  RCC_ClkInitTypeDef RCC_ClkInitStruct = {0};
100007b4:	2230      	movs	r2, #48	; 0x30
100007b6:	2100      	movs	r1, #0
100007b8:	a801      	add	r0, sp, #4
100007ba:	f006 f841 	bl	10006840 <memset>
  HAL_PWR_EnableBkUpAccess();
100007be:	f002 f8b7 	bl	10002930 <HAL_PWR_EnableBkUpAccess>
  __HAL_RCC_LSEDRIVE_CONFIG(RCC_LSEDRIVE_MEDIUMHIGH);
100007c2:	f04f 42a0 	mov.w	r2, #1342177280	; 0x50000000
100007c6:	f8d2 3140 	ldr.w	r3, [r2, #320]	; 0x140
100007ca:	f023 0330 	bic.w	r3, r3, #48	; 0x30
100007ce:	f043 0320 	orr.w	r3, r3, #32
100007d2:	f8c2 3140 	str.w	r3, [r2, #320]	; 0x140
  RCC_OscInitStruct.OscillatorType = RCC_OSCILLATORTYPE_HSI|RCC_OSCILLATORTYPE_HSE
100007d6:	2307      	movs	r3, #7
100007d8:	930d      	str	r3, [sp, #52]	; 0x34
  RCC_OscInitStruct.HSEState = RCC_HSE_BYPASS_DIG;
100007da:	f44f 63b0 	mov.w	r3, #1408	; 0x580
100007de:	930e      	str	r3, [sp, #56]	; 0x38
  RCC_OscInitStruct.LSEState = RCC_LSE_ON;
100007e0:	2301      	movs	r3, #1
100007e2:	930f      	str	r3, [sp, #60]	; 0x3c
  RCC_OscInitStruct.HSIState = RCC_HSI_ON;
100007e4:	9310      	str	r3, [sp, #64]	; 0x40
  RCC_OscInitStruct.HSICalibrationValue = 16;
100007e6:	2210      	movs	r2, #16
100007e8:	9211      	str	r2, [sp, #68]	; 0x44
  RCC_OscInitStruct.HSIDivValue = RCC_HSI_DIV1;
100007ea:	2400      	movs	r4, #0
100007ec:	9412      	str	r4, [sp, #72]	; 0x48
  RCC_OscInitStruct.PLL.PLLState = RCC_PLL_ON;
100007ee:	2202      	movs	r2, #2
100007f0:	9216      	str	r2, [sp, #88]	; 0x58
  RCC_OscInitStruct.PLL.PLLSource = RCC_PLL12SOURCE_HSE;
100007f2:	9317      	str	r3, [sp, #92]	; 0x5c
  RCC_OscInitStruct.PLL.PLLM = 3;
100007f4:	2503      	movs	r5, #3
100007f6:	9518      	str	r5, [sp, #96]	; 0x60
  RCC_OscInitStruct.PLL.PLLN = 81;
100007f8:	2151      	movs	r1, #81	; 0x51
100007fa:	9119      	str	r1, [sp, #100]	; 0x64
  RCC_OscInitStruct.PLL.PLLP = 1;
100007fc:	931a      	str	r3, [sp, #104]	; 0x68
  RCC_OscInitStruct.PLL.PLLQ = 1;
100007fe:	931b      	str	r3, [sp, #108]	; 0x6c
  RCC_OscInitStruct.PLL.PLLR = 1;
10000800:	931c      	str	r3, [sp, #112]	; 0x70
  RCC_OscInitStruct.PLL.PLLFRACV = 0x800;
10000802:	f44f 6100 	mov.w	r1, #2048	; 0x800
10000806:	911e      	str	r1, [sp, #120]	; 0x78
  RCC_OscInitStruct.PLL.PLLMODE = RCC_PLL_FRACTIONAL;
10000808:	931f      	str	r3, [sp, #124]	; 0x7c
  RCC_OscInitStruct.PLL.RPDFN_DIS = RCC_RPDFN_DIS_DISABLED;
1000080a:	f44f 4080 	mov.w	r0, #16384	; 0x4000
1000080e:	9021      	str	r0, [sp, #132]	; 0x84
  RCC_OscInitStruct.PLL.TPDFN_DIS = RCC_TPDFN_DIS_DISABLED;
10000810:	f44f 5100 	mov.w	r1, #8192	; 0x2000
10000814:	9122      	str	r1, [sp, #136]	; 0x88
  RCC_OscInitStruct.PLL2.PLLState = RCC_PLL_ON;
10000816:	9225      	str	r2, [sp, #148]	; 0x94
  RCC_OscInitStruct.PLL2.PLLSource = RCC_PLL12SOURCE_HSE;
10000818:	9326      	str	r3, [sp, #152]	; 0x98
  RCC_OscInitStruct.PLL2.PLLM = 3;
1000081a:	9527      	str	r5, [sp, #156]	; 0x9c
  RCC_OscInitStruct.PLL2.PLLN = 66;
1000081c:	2542      	movs	r5, #66	; 0x42
1000081e:	9528      	str	r5, [sp, #160]	; 0xa0
  RCC_OscInitStruct.PLL2.PLLP = 2;
10000820:	9229      	str	r2, [sp, #164]	; 0xa4
  RCC_OscInitStruct.PLL2.PLLQ = 1;
10000822:	932a      	str	r3, [sp, #168]	; 0xa8
  RCC_OscInitStruct.PLL2.PLLR = 1;
10000824:	932b      	str	r3, [sp, #172]	; 0xac
  RCC_OscInitStruct.PLL2.PLLFRACV = 0x1400;
10000826:	f44f 55a0 	mov.w	r5, #5120	; 0x1400
1000082a:	952d      	str	r5, [sp, #180]	; 0xb4
  RCC_OscInitStruct.PLL2.PLLMODE = RCC_PLL_FRACTIONAL;
1000082c:	932e      	str	r3, [sp, #184]	; 0xb8
  RCC_OscInitStruct.PLL2.RPDFN_DIS = RCC_RPDFN_DIS_DISABLED;
1000082e:	9030      	str	r0, [sp, #192]	; 0xc0
  RCC_OscInitStruct.PLL2.TPDFN_DIS = RCC_TPDFN_DIS_DISABLED;
10000830:	9131      	str	r1, [sp, #196]	; 0xc4
  RCC_OscInitStruct.PLL3.PLLState = RCC_PLL_ON;
10000832:	9234      	str	r2, [sp, #208]	; 0xd0
  RCC_OscInitStruct.PLL3.PLLSource = RCC_PLL3SOURCE_HSE;
10000834:	9335      	str	r3, [sp, #212]	; 0xd4
  RCC_OscInitStruct.PLL3.PLLM = 2;
10000836:	9236      	str	r2, [sp, #216]	; 0xd8
  RCC_OscInitStruct.PLL3.PLLN = 34;
10000838:	2522      	movs	r5, #34	; 0x22
1000083a:	9537      	str	r5, [sp, #220]	; 0xdc
  RCC_OscInitStruct.PLL3.PLLP = 2;
1000083c:	9238      	str	r2, [sp, #224]	; 0xe0
  RCC_OscInitStruct.PLL3.PLLQ = 17;
1000083e:	2511      	movs	r5, #17
10000840:	9539      	str	r5, [sp, #228]	; 0xe4
  RCC_OscInitStruct.PLL3.PLLR = 37;
10000842:	2525      	movs	r5, #37	; 0x25
10000844:	953a      	str	r5, [sp, #232]	; 0xe8
  RCC_OscInitStruct.PLL3.PLLRGE = RCC_PLL3IFRANGE_1;
10000846:	f04f 7580 	mov.w	r5, #16777216	; 0x1000000
1000084a:	953b      	str	r5, [sp, #236]	; 0xec
  RCC_OscInitStruct.PLL3.PLLFRACV = 0x1A04;
1000084c:	f641 2504 	movw	r5, #6660	; 0x1a04
10000850:	953c      	str	r5, [sp, #240]	; 0xf0
  RCC_OscInitStruct.PLL3.PLLMODE = RCC_PLL_FRACTIONAL;
10000852:	933d      	str	r3, [sp, #244]	; 0xf4
  RCC_OscInitStruct.PLL3.RPDFN_DIS = RCC_RPDFN_DIS_DISABLED;
10000854:	903f      	str	r0, [sp, #252]	; 0xfc
  RCC_OscInitStruct.PLL3.TPDFN_DIS = RCC_TPDFN_DIS_DISABLED;
10000856:	9140      	str	r1, [sp, #256]	; 0x100
  RCC_OscInitStruct.PLL4.PLLState = RCC_PLL_ON;
10000858:	9243      	str	r2, [sp, #268]	; 0x10c
  RCC_OscInitStruct.PLL4.PLLSource = RCC_PLL4SOURCE_HSE;
1000085a:	9344      	str	r3, [sp, #272]	; 0x110
  RCC_OscInitStruct.PLL4.PLLM = 4;
1000085c:	2304      	movs	r3, #4
1000085e:	9345      	str	r3, [sp, #276]	; 0x114
  RCC_OscInitStruct.PLL4.PLLN = 99;
10000860:	2363      	movs	r3, #99	; 0x63
10000862:	9346      	str	r3, [sp, #280]	; 0x118
  RCC_OscInitStruct.PLL4.PLLP = 6;
10000864:	2306      	movs	r3, #6
10000866:	9347      	str	r3, [sp, #284]	; 0x11c
  RCC_OscInitStruct.PLL4.PLLQ = 8;
10000868:	2308      	movs	r3, #8
1000086a:	9348      	str	r3, [sp, #288]	; 0x120
  RCC_OscInitStruct.PLL4.PLLR = 8;
1000086c:	9349      	str	r3, [sp, #292]	; 0x124
  RCC_OscInitStruct.PLL4.PLLRGE = RCC_PLL4IFRANGE_0;
1000086e:	944a      	str	r4, [sp, #296]	; 0x128
  RCC_OscInitStruct.PLL4.PLLFRACV = 0;
10000870:	944b      	str	r4, [sp, #300]	; 0x12c
  RCC_OscInitStruct.PLL4.PLLMODE = RCC_PLL_INTEGER;
10000872:	944c      	str	r4, [sp, #304]	; 0x130
  RCC_OscInitStruct.PLL4.RPDFN_DIS = RCC_RPDFN_DIS_DISABLED;
10000874:	904e      	str	r0, [sp, #312]	; 0x138
  RCC_OscInitStruct.PLL4.TPDFN_DIS = RCC_TPDFN_DIS_DISABLED;
10000876:	914f      	str	r1, [sp, #316]	; 0x13c
  if (HAL_RCC_OscConfig(&RCC_OscInitStruct) != HAL_OK)
10000878:	a80d      	add	r0, sp, #52	; 0x34
1000087a:	f002 fbff 	bl	1000307c <HAL_RCC_OscConfig>
1000087e:	b9f0      	cbnz	r0, 100008be <SystemClock_Config+0x11a>
  RCC_ClkInitStruct.ClockType = RCC_CLOCKTYPE_HCLK|RCC_CLOCKTYPE_ACLK
10000880:	23ff      	movs	r3, #255	; 0xff
10000882:	9301      	str	r3, [sp, #4]
  RCC_ClkInitStruct.MPUInit.MPU_Clock = RCC_MPUSOURCE_PLL1;
10000884:	2202      	movs	r2, #2
10000886:	9202      	str	r2, [sp, #8]
  RCC_ClkInitStruct.MPUInit.MPU_Div = RCC_MPU_DIV2;
10000888:	2301      	movs	r3, #1
1000088a:	9303      	str	r3, [sp, #12]
  RCC_ClkInitStruct.AXISSInit.AXI_Clock = RCC_AXISSOURCE_PLL2;
1000088c:	9204      	str	r2, [sp, #16]
  RCC_ClkInitStruct.AXISSInit.AXI_Div = RCC_AXI_DIV1;
1000088e:	2100      	movs	r1, #0
10000890:	9105      	str	r1, [sp, #20]
  RCC_ClkInitStruct.MCUInit.MCU_Clock = RCC_MCUSSOURCE_PLL3;
10000892:	2003      	movs	r0, #3
10000894:	9006      	str	r0, [sp, #24]
  RCC_ClkInitStruct.MCUInit.MCU_Div = RCC_MCU_DIV1;
10000896:	9107      	str	r1, [sp, #28]
  RCC_ClkInitStruct.APB4_Div = RCC_APB4_DIV2;
10000898:	9308      	str	r3, [sp, #32]
  RCC_ClkInitStruct.APB5_Div = RCC_APB5_DIV4;
1000089a:	9209      	str	r2, [sp, #36]	; 0x24
  RCC_ClkInitStruct.APB1_Div = RCC_APB1_DIV2;
1000089c:	930a      	str	r3, [sp, #40]	; 0x28
  RCC_ClkInitStruct.APB2_Div = RCC_APB2_DIV2;
1000089e:	930b      	str	r3, [sp, #44]	; 0x2c
  RCC_ClkInitStruct.APB3_Div = RCC_APB3_DIV2;
100008a0:	930c      	str	r3, [sp, #48]	; 0x30
  if (HAL_RCC_ClockConfig(&RCC_ClkInitStruct) != HAL_OK)
100008a2:	a801      	add	r0, sp, #4
100008a4:	f002 feee 	bl	10003684 <HAL_RCC_ClockConfig>
100008a8:	b958      	cbnz	r0, 100008c2 <SystemClock_Config+0x11e>
  __HAL_RCC_RTC_HSEDIV(24);
100008aa:	f04f 42a0 	mov.w	r2, #1342177280	; 0x50000000
100008ae:	6c53      	ldr	r3, [r2, #68]	; 0x44
100008b0:	f023 033f 	bic.w	r3, r3, #63	; 0x3f
100008b4:	f043 0317 	orr.w	r3, r3, #23
100008b8:	6453      	str	r3, [r2, #68]	; 0x44
}
100008ba:	b053      	add	sp, #332	; 0x14c
100008bc:	bd30      	pop	{r4, r5, pc}
	Error_Handler();
100008be:	f7ff feff 	bl	100006c0 <Error_Handler>
	Error_Handler();
100008c2:	f7ff fefd 	bl	100006c0 <Error_Handler>
	...

100008c8 <Check_Sleep>:
{
100008c8:	e92d 41f0 	stmdb	sp!, {r4, r5, r6, r7, r8, lr}
100008cc:	4604      	mov	r4, r0
  if (!strncmp((char *)BuffRx, MSG_STOP, strlen(MSG_STOP)))
100008ce:	2205      	movs	r2, #5
100008d0:	4968      	ldr	r1, [pc, #416]	; (10000a74 <Check_Sleep+0x1ac>)
100008d2:	f006 fb7d 	bl	10006fd0 <strncmp>
100008d6:	b140      	cbz	r0, 100008ea <Check_Sleep+0x22>
  if (!strncmp((char *)BuffRx, MSG_STANDBY, strlen(MSG_STANDBY)))
100008d8:	2208      	movs	r2, #8
100008da:	4967      	ldr	r1, [pc, #412]	; (10000a78 <Check_Sleep+0x1b0>)
100008dc:	4620      	mov	r0, r4
100008de:	f006 fb77 	bl	10006fd0 <strncmp>
100008e2:	2800      	cmp	r0, #0
100008e4:	d07f      	beq.n	100009e6 <Check_Sleep+0x11e>
}
100008e6:	e8bd 81f0 	ldmia.w	sp!, {r4, r5, r6, r7, r8, pc}
    HAL_Delay(500); /* wait for ack message to be received */
100008ea:	f44f 70fa 	mov.w	r0, #500	; 0x1f4
100008ee:	f000 ffb7 	bl	10001860 <HAL_Delay>
    log_info("Going into CStop mode\r\n");
100008f2:	f000 ffaf 	bl	10001854 <HAL_GetTick>
100008f6:	4605      	mov	r5, r0
100008f8:	f000 ffac 	bl	10001854 <HAL_GetTick>
100008fc:	495f      	ldr	r1, [pc, #380]	; (10000a7c <Check_Sleep+0x1b4>)
100008fe:	fba1 2300 	umull	r2, r3, r1, r0
10000902:	099b      	lsrs	r3, r3, #6
10000904:	fba1 2105 	umull	r2, r1, r1, r5
10000908:	f44f 727a 	mov.w	r2, #1000	; 0x3e8
1000090c:	fb02 0213 	mls	r2, r2, r3, r0
10000910:	0989      	lsrs	r1, r1, #6
10000912:	485b      	ldr	r0, [pc, #364]	; (10000a80 <Check_Sleep+0x1b8>)
10000914:	f006 fb34 	bl	10006f80 <iprintf>
    BSP_LED_Off(LED4);    // SmartFarming
10000918:	2002      	movs	r0, #2
1000091a:	f000 fbe1 	bl	100010e0 <BSP_LED_Off>
  \details Assigns the given value to the Base Priority register.
  \param [in]    basePri  Base Priority value to set
 */
__STATIC_FORCEINLINE void __set_BASEPRI(uint32_t basePri)
{
  __ASM volatile ("MSR basepri, %0" : : "r" (basePri) : "memory");
1000091e:	2310      	movs	r3, #16
10000920:	f383 8811 	msr	BASEPRI, r3
    RCC_backupClocks();
10000924:	f7ff fd9a 	bl	1000045c <RCC_backupClocks>
  * @rmtoll MCUCR   CSSF       LL_PWR_ClearFlag_CPU
  * @retval None
  */
__STATIC_INLINE void LL_PWR_ClearFlag_MCU(void)
{
  SET_BIT(PWR->MCUCR, PWR_MCUCR_CSSF);
10000928:	4d56      	ldr	r5, [pc, #344]	; (10000a84 <Check_Sleep+0x1bc>)
1000092a:	696b      	ldr	r3, [r5, #20]
1000092c:	f443 7300 	orr.w	r3, r3, #512	; 0x200
10000930:	616b      	str	r3, [r5, #20]
    HAL_PWR_EnterSTOPMode(PWR_MAINREGULATOR_ON, PWR_STOPENTRY_WFI);
10000932:	2101      	movs	r1, #1
10000934:	2000      	movs	r0, #0
10000936:	f002 f803 	bl	10002940 <HAL_PWR_EnterSTOPMode>
  return ((READ_BIT(PWR->MCUCR, PWR_MCUCR_STOPF) == (PWR_MCUCR_STOPF)) ? 1UL : 0UL);
1000093a:	696b      	ldr	r3, [r5, #20]
1000093c:	f013 0f20 	tst.w	r3, #32
10000940:	d00a      	beq.n	10000958 <Check_Sleep+0x90>
  SET_BIT(PWR->MCUCR, PWR_MCUCR_CSSF);
10000942:	696b      	ldr	r3, [r5, #20]
10000944:	f443 7300 	orr.w	r3, r3, #512	; 0x200
10000948:	616b      	str	r3, [r5, #20]
      if (RCC_restoreClocks() != HAL_OK)
1000094a:	f7ff fd9d 	bl	10000488 <RCC_restoreClocks>
1000094e:	b908      	cbnz	r0, 10000954 <Check_Sleep+0x8c>
      Stop_Flag = SET;
10000950:	2601      	movs	r6, #1
10000952:	e002      	b.n	1000095a <Check_Sleep+0x92>
        Error_Handler();
10000954:	f7ff feb4 	bl	100006c0 <Error_Handler>
  FlagStatus Stop_Flag = RESET;
10000958:	2600      	movs	r6, #0
1000095a:	2300      	movs	r3, #0
1000095c:	f383 8811 	msr	BASEPRI, r3
    log_info("CStop mode left\r\n");
10000960:	f000 ff78 	bl	10001854 <HAL_GetTick>
10000964:	4605      	mov	r5, r0
10000966:	f000 ff75 	bl	10001854 <HAL_GetTick>
1000096a:	4944      	ldr	r1, [pc, #272]	; (10000a7c <Check_Sleep+0x1b4>)
1000096c:	fba1 2300 	umull	r2, r3, r1, r0
10000970:	099b      	lsrs	r3, r3, #6
10000972:	fba1 2105 	umull	r2, r1, r1, r5
10000976:	f44f 727a 	mov.w	r2, #1000	; 0x3e8
1000097a:	fb02 0213 	mls	r2, r2, r3, r0
1000097e:	0989      	lsrs	r1, r1, #6
10000980:	4841      	ldr	r0, [pc, #260]	; (10000a88 <Check_Sleep+0x1c0>)
10000982:	f006 fafd 	bl	10006f80 <iprintf>
    BSP_LED_On(LED4);                                                                 // SmartFarming
10000986:	2002      	movs	r0, #2
10000988:	f000 fb8a 	bl	100010a0 <BSP_LED_On>
    if (Stop_Flag == SET)
1000098c:	2e00      	cmp	r6, #0
1000098e:	d0a3      	beq.n	100008d8 <Check_Sleep+0x10>
      log_info("System was on STOP mode\r\n");
10000990:	f000 ff60 	bl	10001854 <HAL_GetTick>
10000994:	4606      	mov	r6, r0
10000996:	f000 ff5d 	bl	10001854 <HAL_GetTick>
1000099a:	f8df 80e0 	ldr.w	r8, [pc, #224]	; 10000a7c <Check_Sleep+0x1b4>
1000099e:	fba8 3200 	umull	r3, r2, r8, r0
100009a2:	0992      	lsrs	r2, r2, #6
100009a4:	f44f 777a 	mov.w	r7, #1000	; 0x3e8
100009a8:	fba8 3106 	umull	r3, r1, r8, r6
100009ac:	fb07 0212 	mls	r2, r7, r2, r0
100009b0:	0989      	lsrs	r1, r1, #6
100009b2:	4836      	ldr	r0, [pc, #216]	; (10000a8c <Check_Sleep+0x1c4>)
100009b4:	f006 fae4 	bl	10006f80 <iprintf>
      VIRT_UART_Transmit(&huart0, VirtUart0ChannelBuffRx, VirtUart0ChannelRxSize);    // SmartFarming
100009b8:	4b35      	ldr	r3, [pc, #212]	; (10000a90 <Check_Sleep+0x1c8>)
100009ba:	885a      	ldrh	r2, [r3, #2]
100009bc:	4935      	ldr	r1, [pc, #212]	; (10000a94 <Check_Sleep+0x1cc>)
100009be:	4836      	ldr	r0, [pc, #216]	; (10000a98 <Check_Sleep+0x1d0>)
100009c0:	f005 fead 	bl	1000671e <VIRT_UART_Transmit>
      log_info("Send UART \r\n");                                                     // SmartFarming
100009c4:	f000 ff46 	bl	10001854 <HAL_GetTick>
100009c8:	4605      	mov	r5, r0
100009ca:	f000 ff43 	bl	10001854 <HAL_GetTick>
100009ce:	fba8 3200 	umull	r3, r2, r8, r0
100009d2:	0992      	lsrs	r2, r2, #6
100009d4:	fba8 3105 	umull	r3, r1, r8, r5
100009d8:	fb07 0212 	mls	r2, r7, r2, r0
100009dc:	0989      	lsrs	r1, r1, #6
100009de:	482f      	ldr	r0, [pc, #188]	; (10000a9c <Check_Sleep+0x1d4>)
100009e0:	f006 face 	bl	10006f80 <iprintf>
100009e4:	e778      	b.n	100008d8 <Check_Sleep+0x10>
    HAL_Delay(500); /* wait for ack message to be received */
100009e6:	f44f 70fa 	mov.w	r0, #500	; 0x1f4
100009ea:	f000 ff39 	bl	10001860 <HAL_Delay>
    BSP_LED_Off(LED4);                                                              // SmartFarming
100009ee:	2002      	movs	r0, #2
100009f0:	f000 fb76 	bl	100010e0 <BSP_LED_Off>
    log_info("Going to Standby mode\r\n");
100009f4:	f000 ff2e 	bl	10001854 <HAL_GetTick>
100009f8:	4605      	mov	r5, r0
100009fa:	f000 ff2b 	bl	10001854 <HAL_GetTick>
100009fe:	4c1f      	ldr	r4, [pc, #124]	; (10000a7c <Check_Sleep+0x1b4>)
10000a00:	fba4 3200 	umull	r3, r2, r4, r0
10000a04:	0992      	lsrs	r2, r2, #6
10000a06:	f44f 767a 	mov.w	r6, #1000	; 0x3e8
10000a0a:	fba4 3105 	umull	r3, r1, r4, r5
10000a0e:	fb06 0212 	mls	r2, r6, r2, r0
10000a12:	0989      	lsrs	r1, r1, #6
10000a14:	4822      	ldr	r0, [pc, #136]	; (10000aa0 <Check_Sleep+0x1d8>)
10000a16:	f006 fab3 	bl	10006f80 <iprintf>
    HAL_PWR_EnterSTANDBYMode();
10000a1a:	f001 ffaf 	bl	1000297c <HAL_PWR_EnterSTANDBYMode>
    log_info("Leaving Standby mode\r\n");
10000a1e:	f000 ff19 	bl	10001854 <HAL_GetTick>
10000a22:	4605      	mov	r5, r0
10000a24:	f000 ff16 	bl	10001854 <HAL_GetTick>
10000a28:	fba4 3200 	umull	r3, r2, r4, r0
10000a2c:	0992      	lsrs	r2, r2, #6
10000a2e:	fba4 3105 	umull	r3, r1, r4, r5
10000a32:	fb06 0212 	mls	r2, r6, r2, r0
10000a36:	0989      	lsrs	r1, r1, #6
10000a38:	481a      	ldr	r0, [pc, #104]	; (10000aa4 <Check_Sleep+0x1dc>)
10000a3a:	f006 faa1 	bl	10006f80 <iprintf>
    VIRT_UART_Transmit(&huart0, VirtUart0ChannelBuffRx, VirtUart0ChannelRxSize);    // SmartFarming
10000a3e:	4b14      	ldr	r3, [pc, #80]	; (10000a90 <Check_Sleep+0x1c8>)
10000a40:	885a      	ldrh	r2, [r3, #2]
10000a42:	4914      	ldr	r1, [pc, #80]	; (10000a94 <Check_Sleep+0x1cc>)
10000a44:	4814      	ldr	r0, [pc, #80]	; (10000a98 <Check_Sleep+0x1d0>)
10000a46:	f005 fe6a 	bl	1000671e <VIRT_UART_Transmit>
    log_info("Send UART \r\n");                                                     // SmartFarming
10000a4a:	f000 ff03 	bl	10001854 <HAL_GetTick>
10000a4e:	4605      	mov	r5, r0
10000a50:	f000 ff00 	bl	10001854 <HAL_GetTick>
10000a54:	fba4 3200 	umull	r3, r2, r4, r0
10000a58:	0992      	lsrs	r2, r2, #6
10000a5a:	fba4 3105 	umull	r3, r1, r4, r5
10000a5e:	fb06 0212 	mls	r2, r6, r2, r0
10000a62:	0989      	lsrs	r1, r1, #6
10000a64:	480d      	ldr	r0, [pc, #52]	; (10000a9c <Check_Sleep+0x1d4>)
10000a66:	f006 fa8b 	bl	10006f80 <iprintf>
    BSP_LED_On(LED4);                                                               // SmartFarming
10000a6a:	2002      	movs	r0, #2
10000a6c:	f000 fb18 	bl	100010a0 <BSP_LED_On>
}
10000a70:	e739      	b.n	100008e6 <Check_Sleep+0x1e>
10000a72:	bf00      	nop
10000a74:	10007b34 	.word	0x10007b34
10000a78:	10007be4 	.word	0x10007be4
10000a7c:	10624dd3 	.word	0x10624dd3
10000a80:	10007b3c 	.word	0x10007b3c
10000a84:	50001000 	.word	0x50001000
10000a88:	10007b68 	.word	0x10007b68
10000a8c:	10007b90 	.word	0x10007b90
10000a90:	10020520 	.word	0x10020520
10000a94:	10020660 	.word	0x10020660
10000a98:	10020a70 	.word	0x10020a70
10000a9c:	10007bc0 	.word	0x10007bc0
10000aa0:	10007bf0 	.word	0x10007bf0
10000aa4:	10007c1c 	.word	0x10007c1c

10000aa8 <main>:
{
10000aa8:	e92d 43f0 	stmdb	sp!, {r4, r5, r6, r7, r8, r9, lr}
10000aac:	b08b      	sub	sp, #44	; 0x2c
  HAL_Init();
10000aae:	f000 feaf 	bl	10001810 <HAL_Init>
  if(IS_ENGINEERING_BOOT_MODE())
10000ab2:	4b52      	ldr	r3, [pc, #328]	; (10000bfc <main+0x154>)
10000ab4:	681b      	ldr	r3, [r3, #0]
10000ab6:	f003 0307 	and.w	r3, r3, #7
10000aba:	2b04      	cmp	r3, #4
10000abc:	d04e      	beq.n	10000b5c <main+0xb4>
  log_info("Cortex-M4 boot successful with STM32Cube FW version: v%ld.%ld.%ld \r\n",
10000abe:	f000 fec9 	bl	10001854 <HAL_GetTick>
10000ac2:	4604      	mov	r4, r0
10000ac4:	f000 fec6 	bl	10001854 <HAL_GetTick>
10000ac8:	4680      	mov	r8, r0
10000aca:	f000 fedd 	bl	10001888 <HAL_GetHalVersion>
10000ace:	ea4f 6910 	mov.w	r9, r0, lsr #24
10000ad2:	f000 fed9 	bl	10001888 <HAL_GetHalVersion>
10000ad6:	0c07      	lsrs	r7, r0, #16
10000ad8:	f000 fed6 	bl	10001888 <HAL_GetHalVersion>
10000adc:	4d48      	ldr	r5, [pc, #288]	; (10000c00 <main+0x158>)
10000ade:	fba5 3208 	umull	r3, r2, r5, r8
10000ae2:	0992      	lsrs	r2, r2, #6
10000ae4:	f44f 767a 	mov.w	r6, #1000	; 0x3e8
10000ae8:	fba5 3104 	umull	r3, r1, r5, r4
10000aec:	f3c0 2007 	ubfx	r0, r0, #8, #8
10000af0:	9001      	str	r0, [sp, #4]
10000af2:	b2ff      	uxtb	r7, r7
10000af4:	9700      	str	r7, [sp, #0]
10000af6:	464b      	mov	r3, r9
10000af8:	fb06 8212 	mls	r2, r6, r2, r8
10000afc:	0989      	lsrs	r1, r1, #6
10000afe:	4841      	ldr	r0, [pc, #260]	; (10000c04 <main+0x15c>)
10000b00:	f006 fa3e 	bl	10006f80 <iprintf>
  MX_IPCC_Init();
10000b04:	f7ff fe10 	bl	10000728 <MX_IPCC_Init>
  MX_OPENAMP_Init(RPMSG_REMOTE, NULL);
10000b08:	2100      	movs	r1, #0
10000b0a:	2001      	movs	r0, #1
10000b0c:	f000 f9b4 	bl	10000e78 <MX_OPENAMP_Init>
  MX_TIM2_Init();
10000b10:	f7ff fe18 	bl	10000744 <MX_TIM2_Init>
  log_info("Virtual UART0 OpenAMP-rpmsg channel creation\r\n");
10000b14:	f000 fe9e 	bl	10001854 <HAL_GetTick>
10000b18:	4604      	mov	r4, r0
10000b1a:	f000 fe9b 	bl	10001854 <HAL_GetTick>
10000b1e:	fba5 3200 	umull	r3, r2, r5, r0
10000b22:	0992      	lsrs	r2, r2, #6
10000b24:	fba5 3104 	umull	r3, r1, r5, r4
10000b28:	fb06 0212 	mls	r2, r6, r2, r0
10000b2c:	0989      	lsrs	r1, r1, #6
10000b2e:	4836      	ldr	r0, [pc, #216]	; (10000c08 <main+0x160>)
10000b30:	f006 fa26 	bl	10006f80 <iprintf>
  if (VIRT_UART_Init(&huart0) != VIRT_UART_OK) {
10000b34:	4835      	ldr	r0, [pc, #212]	; (10000c0c <main+0x164>)
10000b36:	f005 fdd5 	bl	100066e4 <VIRT_UART_Init>
10000b3a:	b1b0      	cbz	r0, 10000b6a <main+0xc2>
    log_err("VIRT_UART_Init UART0 failed.\r\n");
10000b3c:	f000 fe8a 	bl	10001854 <HAL_GetTick>
10000b40:	4604      	mov	r4, r0
10000b42:	f000 fe87 	bl	10001854 <HAL_GetTick>
10000b46:	fbb0 f2f6 	udiv	r2, r0, r6
10000b4a:	fb06 0212 	mls	r2, r6, r2, r0
10000b4e:	fbb4 f1f6 	udiv	r1, r4, r6
10000b52:	482f      	ldr	r0, [pc, #188]	; (10000c10 <main+0x168>)
10000b54:	f006 fa14 	bl	10006f80 <iprintf>
    Error_Handler();
10000b58:	f7ff fdb2 	bl	100006c0 <Error_Handler>
    SystemClock_Config();
10000b5c:	f7ff fe22 	bl	100007a4 <SystemClock_Config>
    BSP_PMIC_Init();
10000b60:	f000 fcd4 	bl	1000150c <BSP_PMIC_Init>
    BSP_PMIC_InitRegulators();
10000b64:	f000 fcf6 	bl	10001554 <BSP_PMIC_InitRegulators>
10000b68:	e7a9      	b.n	10000abe <main+0x16>
  if(VIRT_UART_RegisterCallback(&huart0, VIRT_UART_RXCPLT_CB_ID, VIRT_UART0_RxCpltCallback) != VIRT_UART_OK)
10000b6a:	4a2a      	ldr	r2, [pc, #168]	; (10000c14 <main+0x16c>)
10000b6c:	2100      	movs	r1, #0
10000b6e:	4827      	ldr	r0, [pc, #156]	; (10000c0c <main+0x164>)
10000b70:	f005 fdce 	bl	10006710 <VIRT_UART_RegisterCallback>
10000b74:	b908      	cbnz	r0, 10000b7a <main+0xd2>
  for (tmp_index_adc_converted_data = 0; tmp_index_adc_converted_data < ADC_CONVERTED_DATA_BUFFER_SIZE; tmp_index_adc_converted_data++)
10000b76:	2300      	movs	r3, #0
10000b78:	e007      	b.n	10000b8a <main+0xe2>
    Error_Handler();
10000b7a:	f7ff fda1 	bl	100006c0 <Error_Handler>
    aADCxConvertedData[tmp_index_adc_converted_data] = VAR_CONVERTED_DATA_INIT_VALUE;
10000b7e:	4a26      	ldr	r2, [pc, #152]	; (10000c18 <main+0x170>)
10000b80:	f44f 5180 	mov.w	r1, #4096	; 0x1000
10000b84:	f822 1013 	strh.w	r1, [r2, r3, lsl #1]
  for (tmp_index_adc_converted_data = 0; tmp_index_adc_converted_data < ADC_CONVERTED_DATA_BUFFER_SIZE; tmp_index_adc_converted_data++)
10000b88:	3301      	adds	r3, #1
10000b8a:	2b3f      	cmp	r3, #63	; 0x3f
10000b8c:	d9f7      	bls.n	10000b7e <main+0xd6>
  BSP_LED_Init(LED4);
10000b8e:	2002      	movs	r0, #2
10000b90:	f000 fac6 	bl	10001120 <BSP_LED_Init>
  BSP_LED_On(LED4);               // SmartFarming
10000b94:	2002      	movs	r0, #2
10000b96:	f000 fa83 	bl	100010a0 <BSP_LED_On>
  EXTI14_IRQHandler_Config();
10000b9a:	f7ff fbe7 	bl	1000036c <EXTI14_IRQHandler_Config>
  EXTI_ConfigStructure.Line = EXTI_LINE_62;
10000b9e:	4b1f      	ldr	r3, [pc, #124]	; (10000c1c <main+0x174>)
10000ba0:	9306      	str	r3, [sp, #24]
  EXTI_ConfigStructure.Mode = EXTI_MODE_C2_INTERRUPT;
10000ba2:	2321      	movs	r3, #33	; 0x21
10000ba4:	9307      	str	r3, [sp, #28]
  PERIPH_LOCK(EXTI);
10000ba6:	4c1e      	ldr	r4, [pc, #120]	; (10000c20 <main+0x178>)
10000ba8:	2164      	movs	r1, #100	; 0x64
10000baa:	4620      	mov	r0, r4
10000bac:	f7ff fb02 	bl	100001b4 <Periph_Lock>
  HAL_EXTI_SetConfigLine(&hexti62, &EXTI_ConfigStructure);
10000bb0:	a906      	add	r1, sp, #24
10000bb2:	a803      	add	r0, sp, #12
10000bb4:	f000 ffda 	bl	10001b6c <HAL_EXTI_SetConfigLine>
  PERIPH_UNLOCK(EXTI);
10000bb8:	4620      	mov	r0, r4
10000bba:	f7ff fb63 	bl	10000284 <Periph_Unlock>
    OPENAMP_check_for_message();
10000bbe:	f000 f9cf 	bl	10000f60 <OPENAMP_check_for_message>
    if (VirtUart0RxMsg) {
10000bc2:	4b18      	ldr	r3, [pc, #96]	; (10000c24 <main+0x17c>)
10000bc4:	791b      	ldrb	r3, [r3, #4]
10000bc6:	b943      	cbnz	r3, 10000bda <main+0x132>
    if ((ubUserButtonClickEvent) == SET)
10000bc8:	4b16      	ldr	r3, [pc, #88]	; (10000c24 <main+0x17c>)
10000bca:	781b      	ldrb	r3, [r3, #0]
10000bcc:	b2db      	uxtb	r3, r3
10000bce:	2b01      	cmp	r3, #1
10000bd0:	d1f5      	bne.n	10000bbe <main+0x116>
      ubUserButtonClickEvent = RESET;
10000bd2:	4b14      	ldr	r3, [pc, #80]	; (10000c24 <main+0x17c>)
10000bd4:	2200      	movs	r2, #0
10000bd6:	701a      	strb	r2, [r3, #0]
10000bd8:	e7f1      	b.n	10000bbe <main+0x116>
      VirtUart0RxMsg = RESET;
10000bda:	4d12      	ldr	r5, [pc, #72]	; (10000c24 <main+0x17c>)
10000bdc:	2300      	movs	r3, #0
10000bde:	712b      	strb	r3, [r5, #4]
      Check_Delay(VirtUart0ChannelBuffRx, VirtUart0ChannelRxSize);
10000be0:	4c11      	ldr	r4, [pc, #68]	; (10000c28 <main+0x180>)
10000be2:	8869      	ldrh	r1, [r5, #2]
10000be4:	4620      	mov	r0, r4
10000be6:	f7ff fd39 	bl	1000065c <Check_Delay>
      VIRT_UART_Transmit(&huart0, VirtUart0ChannelBuffRx, VirtUart0ChannelRxSize);
10000bea:	886a      	ldrh	r2, [r5, #2]
10000bec:	4621      	mov	r1, r4
10000bee:	4807      	ldr	r0, [pc, #28]	; (10000c0c <main+0x164>)
10000bf0:	f005 fd95 	bl	1000671e <VIRT_UART_Transmit>
      Check_Sleep(VirtUart0ChannelBuffRx);
10000bf4:	4620      	mov	r0, r4
10000bf6:	f7ff fe67 	bl	100008c8 <Check_Sleep>
10000bfa:	e7e5      	b.n	10000bc8 <main+0x120>
10000bfc:	50020000 	.word	0x50020000
10000c00:	10624dd3 	.word	0x10624dd3
10000c04:	10007c48 	.word	0x10007c48
10000c08:	10007ca4 	.word	0x10007ca4
10000c0c:	10020a70 	.word	0x10020a70
10000c10:	10007ce8 	.word	0x10007ce8
10000c14:	10000401 	.word	0x10000401
10000c18:	10020ac0 	.word	0x10020ac0
10000c1c:	0101001e 	.word	0x0101001e
10000c20:	5000d000 	.word	0x5000d000
10000c24:	10020520 	.word	0x10020520
10000c28:	10020660 	.word	0x10020660

10000c2c <IPCC_channel1_callback>:

/* USER CODE END 0 */
/* Callback from IPCC Interrupt Handler: Master Processor informs that there are some free buffers */
void IPCC_channel1_callback(IPCC_HandleTypeDef * hipcc,
         uint32_t ChannelIndex, IPCC_CHANNELDirTypeDef ChannelDir)
{
10000c2c:	b508      	push	{r3, lr}
  /* USER CODE END  PRE_MAILBOX_CHANNEL1_CALLBACK */

  if (msg_received_ch1 != MBOX_NO_MSG)
    OPENAMP_log_dbg("IPCC_channel1_callback: previous IRQ not treated (status = %d)\r\n", msg_received_ch1);

  msg_received_ch1 = MBOX_BUF_FREE;
10000c2e:	4b03      	ldr	r3, [pc, #12]	; (10000c3c <IPCC_channel1_callback+0x10>)
10000c30:	2202      	movs	r2, #2
10000c32:	601a      	str	r2, [r3, #0]

  /* Inform A7 that we have received the 'buff free' msg */
  OPENAMP_log_dbg("Ack 'buff free' message on ch1\r\n");
  HAL_IPCC_NotifyCPU(hipcc, ChannelIndex, IPCC_CHANNEL_DIR_RX);
10000c34:	2201      	movs	r2, #1
10000c36:	f001 fe1d 	bl	10002874 <HAL_IPCC_NotifyCPU>

  /* USER CODE BEGIN POST_MAILBOX_CHANNEL1_CALLBACK */

  /* USER CODE END  POST_MAILBOX_CHANNEL1_CALLBACK */
}
10000c3a:	bd08      	pop	{r3, pc}
10000c3c:	10020528 	.word	0x10020528

10000c40 <IPCC_channel2_callback>:

/* Callback from IPCC Interrupt Handler: new message received from Master Processor */
void IPCC_channel2_callback(IPCC_HandleTypeDef * hipcc,
         uint32_t ChannelIndex, IPCC_CHANNELDirTypeDef ChannelDir)
{
10000c40:	b508      	push	{r3, lr}
  /* USER CODE END  PRE_MAILBOX_CHANNEL2_CALLBACK */

  if (msg_received_ch2 != MBOX_NO_MSG)
    OPENAMP_log_dbg("IPCC_channel2_callback: previous IRQ not treated (status = %d)\r\n", msg_received_ch2);

  msg_received_ch2 = MBOX_NEW_MSG;
10000c42:	2201      	movs	r2, #1
10000c44:	4b02      	ldr	r3, [pc, #8]	; (10000c50 <IPCC_channel2_callback+0x10>)
10000c46:	605a      	str	r2, [r3, #4]

  /* Inform A7 that we have received the new msg */
  OPENAMP_log_dbg("Ack new message on ch2\r\n");
  HAL_IPCC_NotifyCPU(hipcc, ChannelIndex, IPCC_CHANNEL_DIR_RX);
10000c48:	f001 fe14 	bl	10002874 <HAL_IPCC_NotifyCPU>

  /* USER CODE BEGIN POST_MAILBOX_CHANNEL2_CALLBACK */

  /* USER CODE END  POST_MAILBOX_CHANNEL2_CALLBACK */
}
10000c4c:	bd08      	pop	{r3, pc}
10000c4e:	bf00      	nop
10000c50:	10020528 	.word	0x10020528

10000c54 <MAILBOX_Init>:
{
10000c54:	b510      	push	{r4, lr}
  if (HAL_IPCC_ActivateNotification(&hipcc, IPCC_CHANNEL_1, IPCC_CHANNEL_DIR_RX,
10000c56:	4b1f      	ldr	r3, [pc, #124]	; (10000cd4 <MAILBOX_Init+0x80>)
10000c58:	2201      	movs	r2, #1
10000c5a:	2100      	movs	r1, #0
10000c5c:	481e      	ldr	r0, [pc, #120]	; (10000cd8 <MAILBOX_Init+0x84>)
10000c5e:	f001 fdd9 	bl	10002814 <HAL_IPCC_ActivateNotification>
10000c62:	b940      	cbnz	r0, 10000c76 <MAILBOX_Init+0x22>
  if (HAL_IPCC_ActivateNotification(&hipcc, IPCC_CHANNEL_2, IPCC_CHANNEL_DIR_RX,
10000c64:	4b1d      	ldr	r3, [pc, #116]	; (10000cdc <MAILBOX_Init+0x88>)
10000c66:	2201      	movs	r2, #1
10000c68:	4611      	mov	r1, r2
10000c6a:	481b      	ldr	r0, [pc, #108]	; (10000cd8 <MAILBOX_Init+0x84>)
10000c6c:	f001 fdd2 	bl	10002814 <HAL_IPCC_ActivateNotification>
10000c70:	b9c0      	cbnz	r0, 10000ca4 <MAILBOX_Init+0x50>
  return 0;
10000c72:	2000      	movs	r0, #0
}
10000c74:	bd10      	pop	{r4, pc}
	  OPENAMP_log_err("%s: ch_1 RX fail\n", __func__);
10000c76:	f000 fded 	bl	10001854 <HAL_GetTick>
10000c7a:	4604      	mov	r4, r0
10000c7c:	f000 fdea 	bl	10001854 <HAL_GetTick>
10000c80:	4917      	ldr	r1, [pc, #92]	; (10000ce0 <MAILBOX_Init+0x8c>)
10000c82:	fba1 3200 	umull	r3, r2, r1, r0
10000c86:	0992      	lsrs	r2, r2, #6
10000c88:	fba1 3104 	umull	r3, r1, r1, r4
10000c8c:	4b15      	ldr	r3, [pc, #84]	; (10000ce4 <MAILBOX_Init+0x90>)
10000c8e:	f44f 747a 	mov.w	r4, #1000	; 0x3e8
10000c92:	fb04 0212 	mls	r2, r4, r2, r0
10000c96:	0989      	lsrs	r1, r1, #6
10000c98:	4813      	ldr	r0, [pc, #76]	; (10000ce8 <MAILBOX_Init+0x94>)
10000c9a:	f006 f971 	bl	10006f80 <iprintf>
    return -1;
10000c9e:	f04f 30ff 	mov.w	r0, #4294967295	; 0xffffffff
10000ca2:	e7e7      	b.n	10000c74 <MAILBOX_Init+0x20>
	  OPENAMP_log_err("%s: ch_2 RX fail\n", __func__);
10000ca4:	f000 fdd6 	bl	10001854 <HAL_GetTick>
10000ca8:	4604      	mov	r4, r0
10000caa:	f000 fdd3 	bl	10001854 <HAL_GetTick>
10000cae:	490c      	ldr	r1, [pc, #48]	; (10000ce0 <MAILBOX_Init+0x8c>)
10000cb0:	fba1 3200 	umull	r3, r2, r1, r0
10000cb4:	0992      	lsrs	r2, r2, #6
10000cb6:	fba1 3104 	umull	r3, r1, r1, r4
10000cba:	4b0a      	ldr	r3, [pc, #40]	; (10000ce4 <MAILBOX_Init+0x90>)
10000cbc:	f44f 747a 	mov.w	r4, #1000	; 0x3e8
10000cc0:	fb04 0212 	mls	r2, r4, r2, r0
10000cc4:	0989      	lsrs	r1, r1, #6
10000cc6:	4809      	ldr	r0, [pc, #36]	; (10000cec <MAILBOX_Init+0x98>)
10000cc8:	f006 f95a 	bl	10006f80 <iprintf>
    return -1;
10000ccc:	f04f 30ff 	mov.w	r0, #4294967295	; 0xffffffff
10000cd0:	e7d0      	b.n	10000c74 <MAILBOX_Init+0x20>
10000cd2:	bf00      	nop
10000cd4:	10000c2d 	.word	0x10000c2d
10000cd8:	100208d8 	.word	0x100208d8
10000cdc:	10000c41 	.word	0x10000c41
10000ce0:	10624dd3 	.word	0x10624dd3
10000ce4:	10007970 	.word	0x10007970
10000ce8:	10007d1c 	.word	0x10007d1c
10000cec:	10007d44 	.word	0x10007d44

10000cf0 <MAILBOX_Poll>:
{
10000cf0:	b510      	push	{r4, lr}
10000cf2:	4604      	mov	r4, r0
  if (msg_received_ch1 == MBOX_BUF_FREE) {
10000cf4:	4b0c      	ldr	r3, [pc, #48]	; (10000d28 <MAILBOX_Poll+0x38>)
10000cf6:	681b      	ldr	r3, [r3, #0]
10000cf8:	2b02      	cmp	r3, #2
10000cfa:	d006      	beq.n	10000d0a <MAILBOX_Poll+0x1a>
  int ret = -1;
10000cfc:	f04f 30ff 	mov.w	r0, #4294967295	; 0xffffffff
  if (msg_received_ch2 == MBOX_NEW_MSG) {
10000d00:	4b09      	ldr	r3, [pc, #36]	; (10000d28 <MAILBOX_Poll+0x38>)
10000d02:	685b      	ldr	r3, [r3, #4]
10000d04:	2b01      	cmp	r3, #1
10000d06:	d007      	beq.n	10000d18 <MAILBOX_Poll+0x28>
}
10000d08:	bd10      	pop	{r4, pc}
    rproc_virtio_notified(vdev, VRING0_ID);
10000d0a:	2100      	movs	r1, #0
10000d0c:	f004 ff2e 	bl	10005b6c <rproc_virtio_notified>
    msg_received_ch1 = MBOX_NO_MSG;
10000d10:	2000      	movs	r0, #0
10000d12:	4b05      	ldr	r3, [pc, #20]	; (10000d28 <MAILBOX_Poll+0x38>)
10000d14:	6018      	str	r0, [r3, #0]
10000d16:	e7f3      	b.n	10000d00 <MAILBOX_Poll+0x10>
    rproc_virtio_notified(vdev, VRING1_ID);
10000d18:	2101      	movs	r1, #1
10000d1a:	4620      	mov	r0, r4
10000d1c:	f004 ff26 	bl	10005b6c <rproc_virtio_notified>
    msg_received_ch2 = MBOX_NO_MSG;
10000d20:	2000      	movs	r0, #0
10000d22:	4b01      	ldr	r3, [pc, #4]	; (10000d28 <MAILBOX_Poll+0x38>)
10000d24:	6058      	str	r0, [r3, #4]
  return ret;
10000d26:	e7ef      	b.n	10000d08 <MAILBOX_Poll+0x18>
10000d28:	10020528 	.word	0x10020528

10000d2c <MAILBOX_Notify>:
{
10000d2c:	b538      	push	{r3, r4, r5, lr}
  if (id == VRING0_ID) {
10000d2e:	460c      	mov	r4, r1
10000d30:	b109      	cbz	r1, 10000d36 <MAILBOX_Notify+0xa>
  else if (id == VRING1_ID) {
10000d32:	2901      	cmp	r1, #1
10000d34:	d10d      	bne.n	10000d52 <MAILBOX_Notify+0x26>
  if (HAL_IPCC_GetChannelStatus(&hipcc, channel, IPCC_CHANNEL_DIR_TX) == IPCC_CHANNEL_STATUS_OCCUPIED) {
10000d36:	2200      	movs	r2, #0
10000d38:	4621      	mov	r1, r4
10000d3a:	4815      	ldr	r0, [pc, #84]	; (10000d90 <MAILBOX_Notify+0x64>)
10000d3c:	f001 fd0c 	bl	10002758 <HAL_IPCC_GetChannelStatus>
10000d40:	2801      	cmp	r0, #1
10000d42:	d01d      	beq.n	10000d80 <MAILBOX_Notify+0x54>
  HAL_IPCC_NotifyCPU(&hipcc, channel, IPCC_CHANNEL_DIR_TX);
10000d44:	2200      	movs	r2, #0
10000d46:	4621      	mov	r1, r4
10000d48:	4811      	ldr	r0, [pc, #68]	; (10000d90 <MAILBOX_Notify+0x64>)
10000d4a:	f001 fd93 	bl	10002874 <HAL_IPCC_NotifyCPU>
  return 0;
10000d4e:	2000      	movs	r0, #0
}
10000d50:	bd38      	pop	{r3, r4, r5, pc}
    OPENAMP_log_err("invalid vring (%d)\r\n", (int)id);
10000d52:	f000 fd7f 	bl	10001854 <HAL_GetTick>
10000d56:	4605      	mov	r5, r0
10000d58:	f000 fd7c 	bl	10001854 <HAL_GetTick>
10000d5c:	490d      	ldr	r1, [pc, #52]	; (10000d94 <MAILBOX_Notify+0x68>)
10000d5e:	fba1 3200 	umull	r3, r2, r1, r0
10000d62:	0992      	lsrs	r2, r2, #6
10000d64:	fba1 3105 	umull	r3, r1, r1, r5
10000d68:	4623      	mov	r3, r4
10000d6a:	f44f 747a 	mov.w	r4, #1000	; 0x3e8
10000d6e:	fb04 0212 	mls	r2, r4, r2, r0
10000d72:	0989      	lsrs	r1, r1, #6
10000d74:	4808      	ldr	r0, [pc, #32]	; (10000d98 <MAILBOX_Notify+0x6c>)
10000d76:	f006 f903 	bl	10006f80 <iprintf>
    return -1;
10000d7a:	f04f 30ff 	mov.w	r0, #4294967295	; 0xffffffff
10000d7e:	e7e7      	b.n	10000d50 <MAILBOX_Notify+0x24>
    while (HAL_IPCC_GetChannelStatus(&hipcc, channel, IPCC_CHANNEL_DIR_TX) == IPCC_CHANNEL_STATUS_OCCUPIED)
10000d80:	2200      	movs	r2, #0
10000d82:	4621      	mov	r1, r4
10000d84:	4802      	ldr	r0, [pc, #8]	; (10000d90 <MAILBOX_Notify+0x64>)
10000d86:	f001 fce7 	bl	10002758 <HAL_IPCC_GetChannelStatus>
10000d8a:	2801      	cmp	r0, #1
10000d8c:	d0f8      	beq.n	10000d80 <MAILBOX_Notify+0x54>
10000d8e:	e7d9      	b.n	10000d44 <MAILBOX_Notify+0x18>
10000d90:	100208d8 	.word	0x100208d8
10000d94:	10624dd3 	.word	0x10624dd3
10000d98:	10007d6c 	.word	0x10007d6c

10000d9c <OPENAMP_shmem_init>:
/* USER CODE BEGIN PFP */

/* USER CODE END PFP */

static int OPENAMP_shmem_init(int RPMsgRole)
{
10000d9c:	b530      	push	{r4, r5, lr}
10000d9e:	b08b      	sub	sp, #44	; 0x2c
10000da0:	4605      	mov	r5, r0
  int status = 0;
  struct metal_device *device = NULL;
10000da2:	2200      	movs	r2, #0
10000da4:	9209      	str	r2, [sp, #36]	; 0x24
  struct metal_init_params metal_params = METAL_INIT_DEFAULTS;
10000da6:	492d      	ldr	r1, [pc, #180]	; (10000e5c <OPENAMP_shmem_init+0xc0>)
10000da8:	ab07      	add	r3, sp, #28
10000daa:	c903      	ldmia	r1, {r0, r1}
10000dac:	e883 0003 	stmia.w	r3, {r0, r1}
  void* rsc_tab_addr = NULL;
10000db0:	9206      	str	r2, [sp, #24]
  int rsc_size = 0;
10000db2:	9205      	str	r2, [sp, #20]


  /* USER CODE BEGIN PRE_LIB_METAL_INIT */

  /* USER CODE END  PRE_LIB_METAL_INIT */
  metal_init(&metal_params);
10000db4:	4618      	mov	r0, r3
10000db6:	f004 fc55 	bl	10005664 <metal_init>

  status = metal_register_generic_device(&shm_device);
10000dba:	4829      	ldr	r0, [pc, #164]	; (10000e60 <OPENAMP_shmem_init+0xc4>)
10000dbc:	f004 fc2c 	bl	10005618 <metal_register_generic_device>
  if (status != 0) {
10000dc0:	4604      	mov	r4, r0
10000dc2:	b110      	cbz	r0, 10000dca <OPENAMP_shmem_init+0x2e>

  /* USER CODE BEGIN POST_RSC_IO_INIT */

  /* USER CODE END  POST_RSC_IO_INIT */
  return 0;
}
10000dc4:	4620      	mov	r0, r4
10000dc6:	b00b      	add	sp, #44	; 0x2c
10000dc8:	bd30      	pop	{r4, r5, pc}
  status = metal_device_open("generic", SHM_DEVICE_NAME, &device);
10000dca:	aa09      	add	r2, sp, #36	; 0x24
10000dcc:	4925      	ldr	r1, [pc, #148]	; (10000e64 <OPENAMP_shmem_init+0xc8>)
10000dce:	4826      	ldr	r0, [pc, #152]	; (10000e68 <OPENAMP_shmem_init+0xcc>)
10000dd0:	f004 fbf8 	bl	100055c4 <metal_device_open>
  if (status != 0) {
10000dd4:	4604      	mov	r4, r0
10000dd6:	2800      	cmp	r0, #0
10000dd8:	d1f4      	bne.n	10000dc4 <OPENAMP_shmem_init+0x28>
  shm_physmap = SHM_START_ADDRESS;
10000dda:	4924      	ldr	r1, [pc, #144]	; (10000e6c <OPENAMP_shmem_init+0xd0>)
10000ddc:	4a24      	ldr	r2, [pc, #144]	; (10000e70 <OPENAMP_shmem_init+0xd4>)
10000dde:	6011      	str	r1, [r2, #0]
  metal_io_init(&device->regions[0], (void *)SHM_START_ADDRESS, &shm_physmap,
10000de0:	2300      	movs	r3, #0
10000de2:	9302      	str	r3, [sp, #8]
10000de4:	9301      	str	r3, [sp, #4]
10000de6:	f04f 33ff 	mov.w	r3, #4294967295	; 0xffffffff
10000dea:	9300      	str	r3, [sp, #0]
10000dec:	4b21      	ldr	r3, [pc, #132]	; (10000e74 <OPENAMP_shmem_init+0xd8>)
10000dee:	1a5b      	subs	r3, r3, r1
10000df0:	9809      	ldr	r0, [sp, #36]	; 0x24
10000df2:	300c      	adds	r0, #12
10000df4:	f004 fc54 	bl	100056a0 <metal_io_init>
  shm_io = metal_device_io_region(device, 0);
10000df8:	9b09      	ldr	r3, [sp, #36]	; 0x24
 * @return I/O accessor handle, or NULL on failure.
 */
static inline struct metal_io_region *
metal_device_io_region(struct metal_device *device, unsigned int index)
{
	return (index < device->num_regions
10000dfa:	689a      	ldr	r2, [r3, #8]
		? &device->regions[index]
		: NULL);
10000dfc:	b322      	cbz	r2, 10000e48 <OPENAMP_shmem_init+0xac>
10000dfe:	330c      	adds	r3, #12
10000e00:	4a1b      	ldr	r2, [pc, #108]	; (10000e70 <OPENAMP_shmem_init+0xd4>)
10000e02:	6053      	str	r3, [r2, #4]
  if (shm_io == NULL) {
10000e04:	b323      	cbz	r3, 10000e50 <OPENAMP_shmem_init+0xb4>
  resource_table_init(RPMsgRole, &rsc_tab_addr, &rsc_size);
10000e06:	aa05      	add	r2, sp, #20
10000e08:	a906      	add	r1, sp, #24
10000e0a:	4628      	mov	r0, r5
10000e0c:	f000 f8ce 	bl	10000fac <resource_table_init>
  rsc_table = (struct shared_resource_table *)rsc_tab_addr;
10000e10:	9906      	ldr	r1, [sp, #24]
10000e12:	4b17      	ldr	r3, [pc, #92]	; (10000e70 <OPENAMP_shmem_init+0xd4>)
10000e14:	6099      	str	r1, [r3, #8]
  if (!rsc_table)
10000e16:	b1f1      	cbz	r1, 10000e56 <OPENAMP_shmem_init+0xba>
  metal_io_init(&device->regions[1], rsc_table,
10000e18:	2300      	movs	r3, #0
10000e1a:	9302      	str	r3, [sp, #8]
10000e1c:	9301      	str	r3, [sp, #4]
10000e1e:	f04f 33ff 	mov.w	r3, #4294967295	; 0xffffffff
10000e22:	9300      	str	r3, [sp, #0]
10000e24:	9b05      	ldr	r3, [sp, #20]
10000e26:	460a      	mov	r2, r1
10000e28:	9809      	ldr	r0, [sp, #36]	; 0x24
10000e2a:	3044      	adds	r0, #68	; 0x44
10000e2c:	f004 fc38 	bl	100056a0 <metal_io_init>
  rsc_io = metal_device_io_region(device, 1);
10000e30:	9b09      	ldr	r3, [sp, #36]	; 0x24
	return (index < device->num_regions
10000e32:	689a      	ldr	r2, [r3, #8]
		: NULL);
10000e34:	2a01      	cmp	r2, #1
10000e36:	d909      	bls.n	10000e4c <OPENAMP_shmem_init+0xb0>
10000e38:	3344      	adds	r3, #68	; 0x44
10000e3a:	4a0d      	ldr	r2, [pc, #52]	; (10000e70 <OPENAMP_shmem_init+0xd4>)
10000e3c:	60d3      	str	r3, [r2, #12]
  if (rsc_io == NULL) {
10000e3e:	2b00      	cmp	r3, #0
10000e40:	d1c0      	bne.n	10000dc4 <OPENAMP_shmem_init+0x28>
    return -1;
10000e42:	f04f 34ff 	mov.w	r4, #4294967295	; 0xffffffff
10000e46:	e7bd      	b.n	10000dc4 <OPENAMP_shmem_init+0x28>
10000e48:	2300      	movs	r3, #0
10000e4a:	e7d9      	b.n	10000e00 <OPENAMP_shmem_init+0x64>
10000e4c:	2300      	movs	r3, #0
10000e4e:	e7f4      	b.n	10000e3a <OPENAMP_shmem_init+0x9e>
    return -1;
10000e50:	f04f 34ff 	mov.w	r4, #4294967295	; 0xffffffff
10000e54:	e7b6      	b.n	10000dc4 <OPENAMP_shmem_init+0x28>
    return -1;
10000e56:	f04f 34ff 	mov.w	r4, #4294967295	; 0xffffffff
10000e5a:	e7b3      	b.n	10000dc4 <OPENAMP_shmem_init+0x28>
10000e5c:	10007980 	.word	0x10007980
10000e60:	10020000 	.word	0x10020000
10000e64:	10007d98 	.word	0x10007d98
10000e68:	10007da4 	.word	0x10007da4
10000e6c:	10040000 	.word	0x10040000
10000e70:	10020534 	.word	0x10020534
10000e74:	10048000 	.word	0x10048000

10000e78 <MX_OPENAMP_Init>:

int MX_OPENAMP_Init(int RPMsgRole, rpmsg_ns_bind_cb ns_bind_cb)
{
10000e78:	e92d 41f0 	stmdb	sp!, {r4, r5, r6, r7, r8, lr}
10000e7c:	b084      	sub	sp, #16
10000e7e:	4604      	mov	r4, r0
10000e80:	460e      	mov	r6, r1

  /* USER CODE BEGIN MAILBOX_Init */

  /* USER CODE END MAIL_BOX_Init */

  MAILBOX_Init();
10000e82:	f7ff fee7 	bl	10000c54 <MAILBOX_Init>

  /* Libmetal Initilalization */
  status = OPENAMP_shmem_init(RPMsgRole);
10000e86:	4620      	mov	r0, r4
10000e88:	f7ff ff88 	bl	10000d9c <OPENAMP_shmem_init>
  if(status)
10000e8c:	4605      	mov	r5, r0
10000e8e:	b118      	cbz	r0, 10000e98 <MX_OPENAMP_Init+0x20>
  /* USER CODE BEGIN POST_RPMSG_INIT */

  /* USER CODE END POST_RPMSG_INIT */

  return 0;
}
10000e90:	4628      	mov	r0, r5
10000e92:	b004      	add	sp, #16
10000e94:	e8bd 81f0 	ldmia.w	sp!, {r4, r5, r6, r7, r8, pc}
  vdev = rproc_virtio_create_vdev(RPMsgRole, VDEV_ID, &rsc_table->vdev,
10000e98:	4b25      	ldr	r3, [pc, #148]	; (10000f30 <MX_OPENAMP_Init+0xb8>)
10000e9a:	689a      	ldr	r2, [r3, #8]
10000e9c:	2100      	movs	r1, #0
10000e9e:	9102      	str	r1, [sp, #8]
10000ea0:	4824      	ldr	r0, [pc, #144]	; (10000f34 <MX_OPENAMP_Init+0xbc>)
10000ea2:	9001      	str	r0, [sp, #4]
10000ea4:	9100      	str	r1, [sp, #0]
10000ea6:	68db      	ldr	r3, [r3, #12]
10000ea8:	3218      	adds	r2, #24
10000eaa:	21ff      	movs	r1, #255	; 0xff
10000eac:	4620      	mov	r0, r4
10000eae:	f004 fdc5 	bl	10005a3c <rproc_virtio_create_vdev>
  if (vdev == NULL)
10000eb2:	4604      	mov	r4, r0
10000eb4:	2800      	cmp	r0, #0
10000eb6:	d038      	beq.n	10000f2a <MX_OPENAMP_Init+0xb2>
  rproc_virtio_wait_remote_ready(vdev);
10000eb8:	f004 fe7c 	bl	10005bb4 <rproc_virtio_wait_remote_ready>
  vring_rsc = &rsc_table->vring0;
10000ebc:	491c      	ldr	r1, [pc, #112]	; (10000f30 <MX_OPENAMP_Init+0xb8>)
10000ebe:	6888      	ldr	r0, [r1, #8]
  status = rproc_virtio_init_vring(vdev, 0, vring_rsc->notifyid,
10000ec0:	6c02      	ldr	r2, [r0, #64]	; 0x40
                                   (void *)vring_rsc->da, shm_io,
10000ec2:	6b43      	ldr	r3, [r0, #52]	; 0x34
                                   vring_rsc->num, vring_rsc->align);
10000ec4:	6bc5      	ldr	r5, [r0, #60]	; 0x3c
10000ec6:	6b80      	ldr	r0, [r0, #56]	; 0x38
  status = rproc_virtio_init_vring(vdev, 0, vring_rsc->notifyid,
10000ec8:	9002      	str	r0, [sp, #8]
10000eca:	9501      	str	r5, [sp, #4]
10000ecc:	6849      	ldr	r1, [r1, #4]
10000ece:	9100      	str	r1, [sp, #0]
10000ed0:	2100      	movs	r1, #0
10000ed2:	4620      	mov	r0, r4
10000ed4:	f004 fe32 	bl	10005b3c <rproc_virtio_init_vring>
  if (status != 0)
10000ed8:	4605      	mov	r5, r0
10000eda:	2800      	cmp	r0, #0
10000edc:	d1d8      	bne.n	10000e90 <MX_OPENAMP_Init+0x18>
  vring_rsc = &rsc_table->vring1;
10000ede:	4814      	ldr	r0, [pc, #80]	; (10000f30 <MX_OPENAMP_Init+0xb8>)
10000ee0:	6881      	ldr	r1, [r0, #8]
  status = rproc_virtio_init_vring(vdev, 1, vring_rsc->notifyid,
10000ee2:	6d4a      	ldr	r2, [r1, #84]	; 0x54
                                   (void *)vring_rsc->da, shm_io,
10000ee4:	6c8b      	ldr	r3, [r1, #72]	; 0x48
                                   vring_rsc->num, vring_rsc->align);
10000ee6:	6d0d      	ldr	r5, [r1, #80]	; 0x50
10000ee8:	6cc9      	ldr	r1, [r1, #76]	; 0x4c
  status = rproc_virtio_init_vring(vdev, 1, vring_rsc->notifyid,
10000eea:	9102      	str	r1, [sp, #8]
10000eec:	9501      	str	r5, [sp, #4]
10000eee:	6841      	ldr	r1, [r0, #4]
10000ef0:	9100      	str	r1, [sp, #0]
10000ef2:	2101      	movs	r1, #1
10000ef4:	4620      	mov	r0, r4
10000ef6:	f004 fe21 	bl	10005b3c <rproc_virtio_init_vring>
  if (status != 0)
10000efa:	4605      	mov	r5, r0
10000efc:	2800      	cmp	r0, #0
10000efe:	d1c7      	bne.n	10000e90 <MX_OPENAMP_Init+0x18>
  rpmsg_virtio_init_shm_pool(&shpool, (void *)VRING_BUFF_ADDRESS,
10000f00:	4f0b      	ldr	r7, [pc, #44]	; (10000f30 <MX_OPENAMP_Init+0xb8>)
10000f02:	f107 0810 	add.w	r8, r7, #16
10000f06:	4a0c      	ldr	r2, [pc, #48]	; (10000f38 <MX_OPENAMP_Init+0xc0>)
10000f08:	4b0c      	ldr	r3, [pc, #48]	; (10000f3c <MX_OPENAMP_Init+0xc4>)
10000f0a:	1ad2      	subs	r2, r2, r3
10000f0c:	f04f 31ff 	mov.w	r1, #4294967295	; 0xffffffff
10000f10:	4640      	mov	r0, r8
10000f12:	f005 fa75 	bl	10006400 <rpmsg_virtio_init_shm_pool>
  rpmsg_init_vdev(&rvdev, vdev, ns_bind_cb, shm_io, &shpool);
10000f16:	f8cd 8000 	str.w	r8, [sp]
10000f1a:	687b      	ldr	r3, [r7, #4]
10000f1c:	4632      	mov	r2, r6
10000f1e:	4621      	mov	r1, r4
10000f20:	f107 001c 	add.w	r0, r7, #28
10000f24:	f005 f838 	bl	10005f98 <rpmsg_init_vdev>
  return 0;
10000f28:	e7b2      	b.n	10000e90 <MX_OPENAMP_Init+0x18>
    return -1;
10000f2a:	f04f 35ff 	mov.w	r5, #4294967295	; 0xffffffff
10000f2e:	e7af      	b.n	10000e90 <MX_OPENAMP_Init+0x18>
10000f30:	10020534 	.word	0x10020534
10000f34:	10000d2d 	.word	0x10000d2d
10000f38:	10048000 	.word	0x10048000
10000f3c:	10040000 	.word	0x10040000

10000f40 <OPENAMP_create_endpoint>:
}

int OPENAMP_create_endpoint(struct rpmsg_endpoint *ept, const char *name,
                            uint32_t dest, rpmsg_ept_cb cb,
                            rpmsg_ns_unbind_cb unbind_cb)
{
10000f40:	b510      	push	{r4, lr}
10000f42:	b084      	sub	sp, #16
  int ret = 0;
  /* USER CODE BEGIN PRE_EP_CREATE */

  /* USER CODE END PRE_EP_CREATE */

  ret = rpmsg_create_ept(ept, &rvdev.rdev, name, RPMSG_ADDR_ANY, dest, cb,
10000f44:	9c06      	ldr	r4, [sp, #24]
10000f46:	9402      	str	r4, [sp, #8]
10000f48:	9301      	str	r3, [sp, #4]
10000f4a:	9200      	str	r2, [sp, #0]
10000f4c:	f04f 33ff 	mov.w	r3, #4294967295	; 0xffffffff
10000f50:	460a      	mov	r2, r1
10000f52:	4902      	ldr	r1, [pc, #8]	; (10000f5c <OPENAMP_create_endpoint+0x1c>)
10000f54:	f004 ff28 	bl	10005da8 <rpmsg_create_ept>

  /* USER CODE BEGIN POST_EP_CREATE */

  /* USER CODE END POST_EP_CREATE */
  return ret;
}
10000f58:	b004      	add	sp, #16
10000f5a:	bd10      	pop	{r4, pc}
10000f5c:	10020550 	.word	0x10020550

10000f60 <OPENAMP_check_for_message>:

void OPENAMP_check_for_message(void)
{
10000f60:	b508      	push	{r3, lr}
  /* USER CODE BEGIN MSG_CHECK */

  /* USER CODE END MSG_CHECK */
  MAILBOX_Poll(rvdev.vdev);
10000f62:	4b03      	ldr	r3, [pc, #12]	; (10000f70 <OPENAMP_check_for_message+0x10>)
10000f64:	f8d3 0084 	ldr.w	r0, [r3, #132]	; 0x84
10000f68:	f7ff fec2 	bl	10000cf0 <MAILBOX_Poll>
}
10000f6c:	bd08      	pop	{r3, pc}
10000f6e:	bf00      	nop
10000f70:	10020534 	.word	0x10020534

10000f74 <log_buff>:
{
  /* Place your implementation of fputc here */
  /* e.g. write a character to the USART1 and Loop until the end of transmission */
 static int offset = 0;

	if (offset + 1 >= SYSTEM_TRACE_BUF_SZ)
10000f74:	4b08      	ldr	r3, [pc, #32]	; (10000f98 <log_buff+0x24>)
10000f76:	681a      	ldr	r2, [r3, #0]
10000f78:	f240 73fe 	movw	r3, #2046	; 0x7fe
10000f7c:	429a      	cmp	r2, r3
10000f7e:	dd02      	ble.n	10000f86 <log_buff+0x12>
		offset = 0;
10000f80:	4b05      	ldr	r3, [pc, #20]	; (10000f98 <log_buff+0x24>)
10000f82:	2200      	movs	r2, #0
10000f84:	601a      	str	r2, [r3, #0]

	system_log_buf[offset] = ch;
10000f86:	4904      	ldr	r1, [pc, #16]	; (10000f98 <log_buff+0x24>)
10000f88:	680b      	ldr	r3, [r1, #0]
10000f8a:	4a04      	ldr	r2, [pc, #16]	; (10000f9c <log_buff+0x28>)
10000f8c:	54d0      	strb	r0, [r2, r3]
	system_log_buf[offset++ + 1] = '\0';
10000f8e:	3301      	adds	r3, #1
10000f90:	600b      	str	r3, [r1, #0]
10000f92:	2100      	movs	r1, #0
10000f94:	54d1      	strb	r1, [r2, r3]
}
10000f96:	4770      	bx	lr
10000f98:	100205cc 	.word	0x100205cc
10000f9c:	10020b8c 	.word	0x10020b8c

10000fa0 <__io_putchar>:
#define PUTCHAR_PROTOTYPE int __attribute__(( weak )) fputc(int ch, FILE *f)
#endif /* __GNUC__ */

#if defined (__LOG_UART_IO_) || defined (__LOG_TRACE_IO_)
PUTCHAR_PROTOTYPE
{
10000fa0:	b510      	push	{r4, lr}
10000fa2:	4604      	mov	r4, r0
#if defined (__LOG_UART_IO_)
extern UART_HandleTypeDef huart;
  HAL_UART_Transmit(&huart, (uint8_t *)&ch, 1, HAL_MAX_DELAY);
#endif
#if defined (__LOG_TRACE_IO_)
	log_buff(ch);
10000fa4:	f7ff ffe6 	bl	10000f74 <log_buff>
#endif
	return ch;
}
10000fa8:	4620      	mov	r0, r4
10000faa:	bd10      	pop	{r4, pc}

10000fac <resource_table_init>:
#endif
#endif
#endif

  (void)RPMsgRole;
  *length = sizeof(resource_table);
10000fac:	238c      	movs	r3, #140	; 0x8c
10000fae:	6013      	str	r3, [r2, #0]
  *table_ptr = (void *)&resource_table;
10000fb0:	4b01      	ldr	r3, [pc, #4]	; (10000fb8 <resource_table_init+0xc>)
10000fb2:	600b      	str	r3, [r1, #0]
}
10000fb4:	4770      	bx	lr
10000fb6:	bf00      	nop
10000fb8:	10020474 	.word	0x10020474

10000fbc <HAL_MspInit>:
/* USER CODE END 0 */
/**
  * Initializes the Global MSP.
  */
void HAL_MspInit(void)
{
10000fbc:	b510      	push	{r4, lr}
  /* USER CODE BEGIN MspInit 0 */
  /*HW semaphore Clock enable*/
  __HAL_RCC_HSEM_CLK_ENABLE();
10000fbe:	f04f 44a0 	mov.w	r4, #1342177280	; 0x50000000
10000fc2:	f44f 6300 	mov.w	r3, #2048	; 0x800
10000fc6:	f8c4 3aa0 	str.w	r3, [r4, #2720]	; 0xaa0

  /* System interrupt init*/

  /* Peripheral interrupt init */
  /* RCC_WAKEUP_IRQn interrupt configuration */
  HAL_NVIC_SetPriority(RCC_WAKEUP_IRQn, RCC_WAKEUP_IRQ_PRIO, 0);
10000fca:	2200      	movs	r2, #0
10000fcc:	4611      	mov	r1, r2
10000fce:	2091      	movs	r0, #145	; 0x91
10000fd0:	f000 fc70 	bl	100018b4 <HAL_NVIC_SetPriority>
  HAL_NVIC_EnableIRQ(RCC_WAKEUP_IRQn);
10000fd4:	2091      	movs	r0, #145	; 0x91
10000fd6:	f000 fca1 	bl	1000191c <HAL_NVIC_EnableIRQ>
  __HAL_RCC_ENABLE_IT(RCC_IT_WKUP);
10000fda:	f8d4 3c14 	ldr.w	r3, [r4, #3092]	; 0xc14
10000fde:	f443 1380 	orr.w	r3, r3, #1048576	; 0x100000
10000fe2:	f8c4 3c14 	str.w	r3, [r4, #3092]	; 0xc14

  /* USER CODE BEGIN MspInit 1 */

  /* USER CODE END MspInit 1 */
}
10000fe6:	bd10      	pop	{r4, pc}

10000fe8 <HAL_IPCC_MspInit>:
* This function configures the hardware resources used in this example
* @param hipcc: IPCC handle pointer
* @retval None
*/
void HAL_IPCC_MspInit(IPCC_HandleTypeDef* hipcc)
{
10000fe8:	b508      	push	{r3, lr}

  if(hipcc->Instance==IPCC)
10000fea:	6802      	ldr	r2, [r0, #0]
10000fec:	4b09      	ldr	r3, [pc, #36]	; (10001014 <HAL_IPCC_MspInit+0x2c>)
10000fee:	429a      	cmp	r2, r3
10000ff0:	d000      	beq.n	10000ff4 <HAL_IPCC_MspInit+0xc>
  /* USER CODE BEGIN IPCC_MspInit 1 */

  /* USER CODE END IPCC_MspInit 1 */
}

}
10000ff2:	bd08      	pop	{r3, pc}
    __HAL_RCC_IPCC_CLK_ENABLE();
10000ff4:	f04f 43a0 	mov.w	r3, #1342177280	; 0x50000000
10000ff8:	f44f 5280 	mov.w	r2, #4096	; 0x1000
10000ffc:	f8c3 2aa0 	str.w	r2, [r3, #2720]	; 0xaa0
    HAL_NVIC_SetPriority(IPCC_RX1_IRQn, DEFAULT_IRQ_PRIO, 0);
10001000:	2200      	movs	r2, #0
10001002:	2101      	movs	r1, #1
10001004:	2067      	movs	r0, #103	; 0x67
10001006:	f000 fc55 	bl	100018b4 <HAL_NVIC_SetPriority>
    HAL_NVIC_EnableIRQ(IPCC_RX1_IRQn);
1000100a:	2067      	movs	r0, #103	; 0x67
1000100c:	f000 fc86 	bl	1000191c <HAL_NVIC_EnableIRQ>
}
10001010:	e7ef      	b.n	10000ff2 <HAL_IPCC_MspInit+0xa>
10001012:	bf00      	nop
10001014:	4c001000 	.word	0x4c001000

10001018 <HAL_TIM_Base_MspInit>:
  }

}

void HAL_TIM_Base_MspInit(TIM_HandleTypeDef* htim_base)
{
10001018:	b508      	push	{r3, lr}

  if(htim_base->Instance==TIM2)
1000101a:	6803      	ldr	r3, [r0, #0]
1000101c:	f1b3 4f80 	cmp.w	r3, #1073741824	; 0x40000000
10001020:	d000      	beq.n	10001024 <HAL_TIM_Base_MspInit+0xc>
  /* USER CODE BEGIN TIM2_MspInit 1 */

  /* USER CODE END TIM2_MspInit 1 */
  }

}
10001022:	bd08      	pop	{r3, pc}
    __HAL_RCC_TIM2_CLK_ENABLE();
10001024:	2101      	movs	r1, #1
10001026:	f04f 43a0 	mov.w	r3, #1342177280	; 0x50000000
1000102a:	f8c3 1a80 	str.w	r1, [r3, #2688]	; 0xa80
    HAL_NVIC_SetPriority(TIM2_IRQn, DEFAULT_IRQ_PRIO, 0);
1000102e:	2200      	movs	r2, #0
10001030:	201c      	movs	r0, #28
10001032:	f000 fc3f 	bl	100018b4 <HAL_NVIC_SetPriority>
    HAL_NVIC_EnableIRQ(TIM2_IRQn);
10001036:	201c      	movs	r0, #28
10001038:	f000 fc70 	bl	1000191c <HAL_NVIC_EnableIRQ>
}
1000103c:	e7f1      	b.n	10001022 <HAL_TIM_Base_MspInit+0xa>

1000103e <NMI_Handler>:

  /* USER CODE END NonMaskableInt_IRQn 0 */
  /* USER CODE BEGIN NonMaskableInt_IRQn 1 */

  /* USER CODE END NonMaskableInt_IRQn 1 */
}
1000103e:	4770      	bx	lr

10001040 <HardFault_Handler>:
void HardFault_Handler(void)
{
  /* USER CODE BEGIN HardFault_IRQn 0 */

  /* USER CODE END HardFault_IRQn 0 */
  while (1)
10001040:	e7fe      	b.n	10001040 <HardFault_Handler>

10001042 <MemManage_Handler>:
void MemManage_Handler(void)
{
  /* USER CODE BEGIN MemoryManagement_IRQn 0 */

  /* USER CODE END MemoryManagement_IRQn 0 */
  while (1)
10001042:	e7fe      	b.n	10001042 <MemManage_Handler>

10001044 <BusFault_Handler>:
void BusFault_Handler(void)
{
  /* USER CODE BEGIN BusFault_IRQn 0 */

  /* USER CODE END BusFault_IRQn 0 */
  while (1)
10001044:	e7fe      	b.n	10001044 <BusFault_Handler>

10001046 <UsageFault_Handler>:
void UsageFault_Handler(void)
{
  /* USER CODE BEGIN UsageFault_IRQn 0 */

  /* USER CODE END UsageFault_IRQn 0 */
  while (1)
10001046:	e7fe      	b.n	10001046 <UsageFault_Handler>

10001048 <SVC_Handler>:

  /* USER CODE END SVCall_IRQn 0 */
  /* USER CODE BEGIN SVCall_IRQn 1 */

  /* USER CODE END SVCall_IRQn 1 */
}
10001048:	4770      	bx	lr

1000104a <DebugMon_Handler>:

  /* USER CODE END DebugMonitor_IRQn 0 */
  /* USER CODE BEGIN DebugMonitor_IRQn 1 */

  /* USER CODE END DebugMonitor_IRQn 1 */
}
1000104a:	4770      	bx	lr

1000104c <PendSV_Handler>:

  /* USER CODE END PendSV_IRQn 0 */
  /* USER CODE BEGIN PendSV_IRQn 1 */

  /* USER CODE END PendSV_IRQn 1 */
}
1000104c:	4770      	bx	lr

1000104e <SysTick_Handler>:

/**
* @brief This function handles System tick timer.
*/
void SysTick_Handler(void)
{
1000104e:	b508      	push	{r3, lr}
  /* USER CODE BEGIN SysTick_IRQn 0 */

  /* USER CODE END SysTick_IRQn 0 */
  HAL_IncTick();
10001050:	f000 fbf4 	bl	1000183c <HAL_IncTick>
  /* USER CODE BEGIN SysTick_IRQn 1 */

  /* USER CODE END SysTick_IRQn 1 */
}
10001054:	bd08      	pop	{r3, pc}

10001056 <RCC_WAKEUP_IRQHandler>:

/**
  * @brief This function handles RCC wake-up interrupt.
  */
void RCC_WAKEUP_IRQHandler(void)
{
10001056:	b508      	push	{r3, lr}
  /* USER CODE BEGIN RCC_WAKEUP_IRQn 0 */

  /* USER CODE END RCC_WAKEUP_IRQn 0 */
  HAL_RCC_WAKEUP_IRQHandler();
10001058:	f002 fbd5 	bl	10003806 <HAL_RCC_WAKEUP_IRQHandler>
  /* USER CODE BEGIN RCC_WAKEUP_IRQn 1 */

  /* USER CODE END RCC_WAKEUP_IRQn 1 */
}
1000105c:	bd08      	pop	{r3, pc}
	...

10001060 <IPCC_RX1_IRQHandler>:

/**
  * @brief This function handles IPCC RX1 occupied interrupt.
  */
void IPCC_RX1_IRQHandler(void)
{
10001060:	b508      	push	{r3, lr}
  /* USER CODE BEGIN IPCC_RX1_IRQn 0 */
  log_dbg("%s: IT RX1\r\n", __func__);
  /* USER CODE END IPCC_RX1_IRQn 0 */
  HAL_IPCC_RX_IRQHandler(&hipcc);
10001062:	4802      	ldr	r0, [pc, #8]	; (1000106c <IPCC_RX1_IRQHandler+0xc>)
10001064:	f001 fb92 	bl	1000278c <HAL_IPCC_RX_IRQHandler>
  /* USER CODE BEGIN IPCC_RX1_IRQn 1 */
}
10001068:	bd08      	pop	{r3, pc}
1000106a:	bf00      	nop
1000106c:	100208d8 	.word	0x100208d8

10001070 <TIM2_IRQHandler>:

/**
* @brief This function handles TIM2 global interrupt.
*/
void TIM2_IRQHandler(void)
{
10001070:	b508      	push	{r3, lr}
  /* USER CODE BEGIN TIM2_IRQn 0 */

  /* USER CODE END TIM2_IRQn 0 */
  HAL_TIM_IRQHandler(&htim2);
10001072:	4802      	ldr	r0, [pc, #8]	; (1000107c <TIM2_IRQHandler+0xc>)
10001074:	f003 fffa 	bl	1000506c <HAL_TIM_IRQHandler>
  /* USER CODE BEGIN TIM2_IRQn 1 */

  /* USER CODE END TIM2_IRQn 1 */
}
10001078:	bd08      	pop	{r3, pc}
1000107a:	bf00      	nop
1000107c:	10020b40 	.word	0x10020b40

10001080 <DMA2_Stream1_IRQHandler>:
  * @brief  This function handles DMA interrupt request.
  * @param  None
  * @retval None
  */
void ADCx_DMA_IRQHandler(void)
{
10001080:	b508      	push	{r3, lr}
  HAL_DMA_IRQHandler(hadc2.DMA_Handle);
10001082:	4b02      	ldr	r3, [pc, #8]	; (1000108c <DMA2_Stream1_IRQHandler+0xc>)
10001084:	6cd8      	ldr	r0, [r3, #76]	; 0x4c
10001086:	f000 fc6d 	bl	10001964 <HAL_DMA_IRQHandler>
}
1000108a:	bd08      	pop	{r3, pc}
1000108c:	10020874 	.word	0x10020874

10001090 <EXTI14_IRQHandler>:
  * @brief  This function handles external line 14 interrupt request.
  * @param  None
  * @retval None
  */
void EXTI14_IRQHandler(void)
{
10001090:	b508      	push	{r3, lr}
  HAL_EXTI_IRQHandler(&hexti14);
10001092:	4802      	ldr	r0, [pc, #8]	; (1000109c <EXTI14_IRQHandler+0xc>)
10001094:	f000 fe00 	bl	10001c98 <HAL_EXTI_IRQHandler>
}
10001098:	bd08      	pop	{r3, pc}
1000109a:	bf00      	nop
1000109c:	10020b80 	.word	0x10020b80

100010a0 <BSP_LED_On>:
  *            @arg  LED3
  *            @arg  LED4
  *            @arg  LED5
  */
int32_t BSP_LED_On(Led_TypeDef Led)
{
100010a0:	b510      	push	{r4, lr}
  int32_t  status = BSP_ERROR_NONE;
  if((Led == LED2) || (Led == LED3))
100010a2:	2801      	cmp	r0, #1
100010a4:	d905      	bls.n	100010b2 <BSP_LED_On+0x12>
  {
    HAL_GPIO_WritePin(LED_PORT[Led], LED_PIN[Led], GPIO_PIN_RESET);
  }
  else if ((Led == LED4) || (Led == LED5))
100010a6:	1e83      	subs	r3, r0, #2
100010a8:	b2db      	uxtb	r3, r3
100010aa:	2b01      	cmp	r3, #1
100010ac:	d90b      	bls.n	100010c6 <BSP_LED_On+0x26>
  {
    HAL_GPIO_WritePin(LED_PORT[Led], LED_PIN[Led], GPIO_PIN_SET);
  }
  return status;
}
100010ae:	2000      	movs	r0, #0
100010b0:	bd10      	pop	{r4, pc}
    HAL_GPIO_WritePin(LED_PORT[Led], LED_PIN[Led], GPIO_PIN_RESET);
100010b2:	4b0a      	ldr	r3, [pc, #40]	; (100010dc <BSP_LED_On+0x3c>)
100010b4:	eb03 0480 	add.w	r4, r3, r0, lsl #2
100010b8:	2200      	movs	r2, #0
100010ba:	f833 1020 	ldrh.w	r1, [r3, r0, lsl #2]
100010be:	6920      	ldr	r0, [r4, #16]
100010c0:	f000 fefa 	bl	10001eb8 <HAL_GPIO_WritePin>
100010c4:	e7f3      	b.n	100010ae <BSP_LED_On+0xe>
    HAL_GPIO_WritePin(LED_PORT[Led], LED_PIN[Led], GPIO_PIN_SET);
100010c6:	4b05      	ldr	r3, [pc, #20]	; (100010dc <BSP_LED_On+0x3c>)
100010c8:	eb03 0480 	add.w	r4, r3, r0, lsl #2
100010cc:	2201      	movs	r2, #1
100010ce:	f833 1020 	ldrh.w	r1, [r3, r0, lsl #2]
100010d2:	6920      	ldr	r0, [r4, #16]
100010d4:	f000 fef0 	bl	10001eb8 <HAL_GPIO_WritePin>
100010d8:	e7e9      	b.n	100010ae <BSP_LED_On+0xe>
100010da:	bf00      	nop
100010dc:	10007988 	.word	0x10007988

100010e0 <BSP_LED_Off>:
  *            @arg  LED3
  *            @arg  LED4
  *            @arg  LED5
  */
int32_t BSP_LED_Off(Led_TypeDef Led)
{
100010e0:	b510      	push	{r4, lr}
  int32_t  status = BSP_ERROR_NONE;
  if((Led == LED2) || (Led == LED3))
100010e2:	2801      	cmp	r0, #1
100010e4:	d905      	bls.n	100010f2 <BSP_LED_Off+0x12>
  {
    HAL_GPIO_WritePin(LED_PORT[Led], LED_PIN[Led], GPIO_PIN_SET);
  }
  else if ((Led == LED4) || (Led == LED5))
100010e6:	1e83      	subs	r3, r0, #2
100010e8:	b2db      	uxtb	r3, r3
100010ea:	2b01      	cmp	r3, #1
100010ec:	d90b      	bls.n	10001106 <BSP_LED_Off+0x26>
  {
    HAL_GPIO_WritePin(LED_PORT[Led], LED_PIN[Led], GPIO_PIN_RESET);
  }

  return status;
}
100010ee:	2000      	movs	r0, #0
100010f0:	bd10      	pop	{r4, pc}
    HAL_GPIO_WritePin(LED_PORT[Led], LED_PIN[Led], GPIO_PIN_SET);
100010f2:	4b0a      	ldr	r3, [pc, #40]	; (1000111c <BSP_LED_Off+0x3c>)
100010f4:	eb03 0480 	add.w	r4, r3, r0, lsl #2
100010f8:	2201      	movs	r2, #1
100010fa:	f833 1020 	ldrh.w	r1, [r3, r0, lsl #2]
100010fe:	6920      	ldr	r0, [r4, #16]
10001100:	f000 feda 	bl	10001eb8 <HAL_GPIO_WritePin>
10001104:	e7f3      	b.n	100010ee <BSP_LED_Off+0xe>
    HAL_GPIO_WritePin(LED_PORT[Led], LED_PIN[Led], GPIO_PIN_RESET);
10001106:	4b05      	ldr	r3, [pc, #20]	; (1000111c <BSP_LED_Off+0x3c>)
10001108:	eb03 0480 	add.w	r4, r3, r0, lsl #2
1000110c:	2200      	movs	r2, #0
1000110e:	f833 1020 	ldrh.w	r1, [r3, r0, lsl #2]
10001112:	6920      	ldr	r0, [r4, #16]
10001114:	f000 fed0 	bl	10001eb8 <HAL_GPIO_WritePin>
10001118:	e7e9      	b.n	100010ee <BSP_LED_Off+0xe>
1000111a:	bf00      	nop
1000111c:	10007988 	.word	0x10007988

10001120 <BSP_LED_Init>:
{
10001120:	b530      	push	{r4, r5, lr}
10001122:	b087      	sub	sp, #28
  if(Led == LED2)
10001124:	4604      	mov	r4, r0
10001126:	bb08      	cbnz	r0, 1000116c <BSP_LED_Init+0x4c>
    LED2_GPIO_CLK_ENABLE();
10001128:	f04f 43a0 	mov.w	r3, #1342177280	; 0x50000000
1000112c:	2201      	movs	r2, #1
1000112e:	f8c3 2aa8 	str.w	r2, [r3, #2728]	; 0xaa8
  gpio_init_structure.Pin = LED_PIN[Led];
10001132:	4b1a      	ldr	r3, [pc, #104]	; (1000119c <BSP_LED_Init+0x7c>)
10001134:	f853 2024 	ldr.w	r2, [r3, r4, lsl #2]
10001138:	9201      	str	r2, [sp, #4]
  gpio_init_structure.Mode = GPIO_MODE_OUTPUT_PP;
1000113a:	2201      	movs	r2, #1
1000113c:	9202      	str	r2, [sp, #8]
  gpio_init_structure.Pull = GPIO_PULLUP;
1000113e:	9203      	str	r2, [sp, #12]
  gpio_init_structure.Speed = GPIO_SPEED_FREQ_VERY_HIGH;
10001140:	2203      	movs	r2, #3
10001142:	9204      	str	r2, [sp, #16]
  BSP_ENTER_CRITICAL_SECTION(LED_PORT[Led]);
10001144:	eb03 0384 	add.w	r3, r3, r4, lsl #2
10001148:	691d      	ldr	r5, [r3, #16]
1000114a:	2164      	movs	r1, #100	; 0x64
1000114c:	4628      	mov	r0, r5
1000114e:	f7ff f831 	bl	100001b4 <Periph_Lock>
  HAL_GPIO_Init(LED_PORT[Led], &gpio_init_structure);
10001152:	a901      	add	r1, sp, #4
10001154:	4628      	mov	r0, r5
10001156:	f000 fdbf 	bl	10001cd8 <HAL_GPIO_Init>
  BSP_EXIT_CRITICAL_SECTION(LED_PORT[Led]);
1000115a:	4628      	mov	r0, r5
1000115c:	f7ff f892 	bl	10000284 <Periph_Unlock>
  BSP_LED_Off(Led);
10001160:	4620      	mov	r0, r4
10001162:	f7ff ffbd 	bl	100010e0 <BSP_LED_Off>
}
10001166:	2000      	movs	r0, #0
10001168:	b007      	add	sp, #28
1000116a:	bd30      	pop	{r4, r5, pc}
  else if (Led == LED3)
1000116c:	2801      	cmp	r0, #1
1000116e:	d009      	beq.n	10001184 <BSP_LED_Init+0x64>
  else if (Led == LED4)
10001170:	2802      	cmp	r0, #2
10001172:	d00d      	beq.n	10001190 <BSP_LED_Init+0x70>
  else if (Led == LED5)
10001174:	2803      	cmp	r0, #3
10001176:	d1dc      	bne.n	10001132 <BSP_LED_Init+0x12>
    LED5_GPIO_CLK_ENABLE();
10001178:	f04f 43a0 	mov.w	r3, #1342177280	; 0x50000000
1000117c:	2208      	movs	r2, #8
1000117e:	f8c3 2aa8 	str.w	r2, [r3, #2728]	; 0xaa8
10001182:	e7d6      	b.n	10001132 <BSP_LED_Init+0x12>
    LED3_GPIO_CLK_ENABLE();
10001184:	f04f 43a0 	mov.w	r3, #1342177280	; 0x50000000
10001188:	2201      	movs	r2, #1
1000118a:	f8c3 2aa8 	str.w	r2, [r3, #2728]	; 0xaa8
1000118e:	e7d0      	b.n	10001132 <BSP_LED_Init+0x12>
    LED4_GPIO_CLK_ENABLE();
10001190:	f04f 43a0 	mov.w	r3, #1342177280	; 0x50000000
10001194:	2208      	movs	r2, #8
10001196:	f8c3 2aa8 	str.w	r2, [r3, #2728]	; 0xaa8
1000119a:	e7ca      	b.n	10001132 <BSP_LED_Init+0x12>
1000119c:	10007988 	.word	0x10007988

100011a0 <BSP_PB_Callback>:
  /* Prevent unused argument(s) compilation warning */
  UNUSED(Button);

  /* This function should be implemented by the user application.
     It is called into this driver when an event on Button is triggered. */
}
100011a0:	4770      	bx	lr

100011a2 <BUTTON_USER2_EXTI_Callback>:
{
100011a2:	b508      	push	{r3, lr}
  BSP_PB_Callback(BUTTON_USER2);
100011a4:	2002      	movs	r0, #2
100011a6:	f7ff fffb 	bl	100011a0 <BSP_PB_Callback>
}
100011aa:	bd08      	pop	{r3, pc}

100011ac <BUTTON_USER_EXTI_Callback>:
{
100011ac:	b508      	push	{r3, lr}
  BSP_PB_Callback(BUTTON_USER);
100011ae:	2001      	movs	r0, #1
100011b0:	f7ff fff6 	bl	100011a0 <BSP_PB_Callback>
}
100011b4:	bd08      	pop	{r3, pc}

100011b6 <BUTTON_WAKEUP_EXTI_Callback>:
{
100011b6:	b508      	push	{r3, lr}
  BSP_PB_Callback(BUTTON_WAKEUP);
100011b8:	2000      	movs	r0, #0
100011ba:	f7ff fff1 	bl	100011a0 <BSP_PB_Callback>
}
100011be:	bd08      	pop	{r3, pc}

100011c0 <I2C4_MspInit>:
  * @brief  Initializes I2C MSP.
  * @param  hI2c : I2C handler
  * @retval None
  */
static void I2C4_MspInit(I2C_HandleTypeDef *hI2c)
{
100011c0:	e92d 41f0 	stmdb	sp!, {r4, r5, r6, r7, r8, lr}
100011c4:	b0dc      	sub	sp, #368	; 0x170
  /* Prevent unused argument(s) compilation warning */
  UNUSED(hI2c);
  
  /*** Configure the GPIOs ***/  
  /* Enable GPIO clock */
  EVAL_I2C4_GPIO_CLK_ENABLE();
100011c6:	f04f 45a0 	mov.w	r5, #1342177280	; 0x50000000
100011ca:	f04f 0801 	mov.w	r8, #1
100011ce:	f8c5 8290 	str.w	r8, [r5, #656]	; 0x290

  /* Configure I2C Tx as alternate function */
  gpio_init_structure.Pin = EVAL_I2C4_SCL_PIN;
100011d2:	2310      	movs	r3, #16
100011d4:	9357      	str	r3, [sp, #348]	; 0x15c
  gpio_init_structure.Mode = GPIO_MODE_AF_OD;
100011d6:	2312      	movs	r3, #18
100011d8:	9358      	str	r3, [sp, #352]	; 0x160
  gpio_init_structure.Pull = GPIO_NOPULL;
100011da:	2600      	movs	r6, #0
100011dc:	9659      	str	r6, [sp, #356]	; 0x164
  gpio_init_structure.Speed = GPIO_SPEED_FREQ_HIGH;
100011de:	2702      	movs	r7, #2
100011e0:	975a      	str	r7, [sp, #360]	; 0x168
  gpio_init_structure.Alternate = EVAL_I2C4_SCL_SDA_AF;
100011e2:	2306      	movs	r3, #6
100011e4:	935b      	str	r3, [sp, #364]	; 0x16c
  BSP_ENTER_CRITICAL_SECTION(EVAL_I2C4_SCL_SDA_GPIO_PORT);
100011e6:	4c1d      	ldr	r4, [pc, #116]	; (1000125c <I2C4_MspInit+0x9c>)
100011e8:	2164      	movs	r1, #100	; 0x64
100011ea:	4620      	mov	r0, r4
100011ec:	f7fe ffe2 	bl	100001b4 <Periph_Lock>
  HAL_GPIO_Init(EVAL_I2C4_SCL_SDA_GPIO_PORT, &gpio_init_structure);
100011f0:	a957      	add	r1, sp, #348	; 0x15c
100011f2:	4620      	mov	r0, r4
100011f4:	f000 fd70 	bl	10001cd8 <HAL_GPIO_Init>
  BSP_EXIT_CRITICAL_SECTION(EVAL_I2C4_SCL_SDA_GPIO_PORT);
100011f8:	4620      	mov	r0, r4
100011fa:	f7ff f843 	bl	10000284 <Periph_Unlock>

  /* Configure I2C Rx as alternate function */
  gpio_init_structure.Pin = EVAL_I2C4_SDA_PIN;
100011fe:	2320      	movs	r3, #32
10001200:	9357      	str	r3, [sp, #348]	; 0x15c
  BSP_ENTER_CRITICAL_SECTION(EVAL_I2C4_SCL_SDA_GPIO_PORT);
10001202:	2164      	movs	r1, #100	; 0x64
10001204:	4620      	mov	r0, r4
10001206:	f7fe ffd5 	bl	100001b4 <Periph_Lock>
  HAL_GPIO_Init(EVAL_I2C4_SCL_SDA_GPIO_PORT, &gpio_init_structure);
1000120a:	a957      	add	r1, sp, #348	; 0x15c
1000120c:	4620      	mov	r0, r4
1000120e:	f000 fd63 	bl	10001cd8 <HAL_GPIO_Init>
  BSP_EXIT_CRITICAL_SECTION(EVAL_I2C4_SCL_SDA_GPIO_PORT);
10001212:	4620      	mov	r0, r4
10001214:	f7ff f836 	bl	10000284 <Periph_Unlock>

  /* Enable I2C clock */
  EVAL_I2C4_CLK_ENABLE();
10001218:	2304      	movs	r3, #4
1000121a:	f8c5 3288 	str.w	r3, [r5, #648]	; 0x288
  
  /* Force the I2C peripheral clock reset */  
  EVAL_I2C4_FORCE_RESET();
1000121e:	f8c5 3188 	str.w	r3, [r5, #392]	; 0x188
  
  /* Release the I2C peripheral clock reset */  
  EVAL_I2C4_RELEASE_RESET();
10001222:	f8c5 318c 	str.w	r3, [r5, #396]	; 0x18c

  /*** Configure the I2C peripheral clock ***/ 
  I2C4_clock_source_config.I2c46ClockSelection = RCC_I2C46CLKSOURCE_HSI;
10001226:	9731      	str	r7, [sp, #196]	; 0xc4
  I2C4_clock_source_config.PeriphClockSelection = RCC_PERIPHCLK_I2C46;
10001228:	2200      	movs	r2, #0
1000122a:	2320      	movs	r3, #32
1000122c:	e9cd 2300 	strd	r2, r3, [sp]
  HAL_RCCEx_PeriphCLKConfig(&I2C4_clock_source_config); 
10001230:	4668      	mov	r0, sp
10001232:	f002 fe33 	bl	10003e9c <HAL_RCCEx_PeriphCLKConfig>
  IRQ_SetPriority(I2C4_ER_IRQn, 0);
  IRQ_Enable(I2C4_ER_IRQn);
  IRQ_SetPriority(I2C4_EV_IRQn, 0);
  IRQ_Enable(I2C4_EV_IRQn);
#elif defined(CORE_CM4)
  HAL_NVIC_SetPriority(EVAL_I2C4_ER_IRQn, 0, 1);
10001236:	4642      	mov	r2, r8
10001238:	4631      	mov	r1, r6
1000123a:	2060      	movs	r0, #96	; 0x60
1000123c:	f000 fb3a 	bl	100018b4 <HAL_NVIC_SetPriority>
  HAL_NVIC_EnableIRQ(EVAL_I2C4_ER_IRQn);
10001240:	2060      	movs	r0, #96	; 0x60
10001242:	f000 fb6b 	bl	1000191c <HAL_NVIC_EnableIRQ>
  HAL_NVIC_SetPriority(EVAL_I2C4_EV_IRQn, 0, 2);
10001246:	463a      	mov	r2, r7
10001248:	4631      	mov	r1, r6
1000124a:	205f      	movs	r0, #95	; 0x5f
1000124c:	f000 fb32 	bl	100018b4 <HAL_NVIC_SetPriority>
  HAL_NVIC_EnableIRQ(EVAL_I2C4_EV_IRQn);
10001250:	205f      	movs	r0, #95	; 0x5f
10001252:	f000 fb63 	bl	1000191c <HAL_NVIC_EnableIRQ>
#else
#error "No core specified !!!"
#endif
}
10001256:	b05c      	add	sp, #368	; 0x170
10001258:	e8bd 81f0 	ldmia.w	sp!, {r4, r5, r6, r7, r8, pc}
1000125c:	54004000 	.word	0x54004000

10001260 <I2C4_WriteReg>:
  * @param  pData      The target register values to be written.
  * @param  Length     data length in bytes.
  * @retval BSP status.
  */
static int32_t I2C4_WriteReg(uint16_t DevAddr, uint16_t Reg, uint16_t MemAddSize, uint8_t *pData, uint16_t Length)
{  
10001260:	b510      	push	{r4, lr}
10001262:	b084      	sub	sp, #16
  int32_t status = BSP_ERROR_BUS_FAILURE;

  if(HAL_I2C_Mem_Write(&hI2c4, DevAddr, Reg, MemAddSize, pData, Length, 10000) == HAL_OK)
10001264:	f242 7410 	movw	r4, #10000	; 0x2710
10001268:	9402      	str	r4, [sp, #8]
1000126a:	f8bd 4018 	ldrh.w	r4, [sp, #24]
1000126e:	9401      	str	r4, [sp, #4]
10001270:	9300      	str	r3, [sp, #0]
10001272:	4613      	mov	r3, r2
10001274:	460a      	mov	r2, r1
10001276:	4601      	mov	r1, r0
10001278:	4804      	ldr	r0, [pc, #16]	; (1000128c <I2C4_WriteReg+0x2c>)
1000127a:	f001 f804 	bl	10002286 <HAL_I2C_Mem_Write>
1000127e:	b910      	cbnz	r0, 10001286 <I2C4_WriteReg+0x26>
  {
    status = BSP_ERROR_NONE;
10001280:	2000      	movs	r0, #0
  }
  
  return status;
}
10001282:	b004      	add	sp, #16
10001284:	bd10      	pop	{r4, pc}
  int32_t status = BSP_ERROR_BUS_FAILURE;
10001286:	f06f 0007 	mvn.w	r0, #7
1000128a:	e7fa      	b.n	10001282 <I2C4_WriteReg+0x22>
1000128c:	1002138c 	.word	0x1002138c

10001290 <I2C4_ReadReg>:
  * @param  pData      The target register values to be read.
  * @param  Length     data length in bytes.
  * @retval BSP status.
  */
static int32_t I2C4_ReadReg(uint16_t DevAddr, uint16_t Reg, uint16_t MemAddSize, uint8_t *pData, uint16_t Length)
{  
10001290:	b510      	push	{r4, lr}
10001292:	b084      	sub	sp, #16
  int32_t status = BSP_ERROR_BUS_FAILURE;

  if (HAL_I2C_Mem_Read(&hI2c4, DevAddr, Reg, MemAddSize, pData, Length, 10000) == HAL_OK)
10001294:	f242 7410 	movw	r4, #10000	; 0x2710
10001298:	9402      	str	r4, [sp, #8]
1000129a:	f8bd 4018 	ldrh.w	r4, [sp, #24]
1000129e:	9401      	str	r4, [sp, #4]
100012a0:	9300      	str	r3, [sp, #0]
100012a2:	4613      	mov	r3, r2
100012a4:	460a      	mov	r2, r1
100012a6:	4601      	mov	r1, r0
100012a8:	4804      	ldr	r0, [pc, #16]	; (100012bc <I2C4_ReadReg+0x2c>)
100012aa:	f001 f8c1 	bl	10002430 <HAL_I2C_Mem_Read>
100012ae:	b910      	cbnz	r0, 100012b6 <I2C4_ReadReg+0x26>
  {
	status = BSP_ERROR_NONE;
100012b0:	2000      	movs	r0, #0
  }
  
  return status;
}
100012b2:	b004      	add	sp, #16
100012b4:	bd10      	pop	{r4, pc}
  int32_t status = BSP_ERROR_BUS_FAILURE;
100012b6:	f06f 0007 	mvn.w	r0, #7
100012ba:	e7fa      	b.n	100012b2 <I2C4_ReadReg+0x22>
100012bc:	1002138c 	.word	0x1002138c

100012c0 <MX_I2C4_Init>:
{
100012c0:	b508      	push	{r3, lr}
  hI2c->Init.Timing           = EVAL_I2Cx_TIMING;
100012c2:	4a07      	ldr	r2, [pc, #28]	; (100012e0 <MX_I2C4_Init+0x20>)
100012c4:	6042      	str	r2, [r0, #4]
  hI2c->Init.OwnAddress1      = 0;  //STPMU1_I2C_ADDRESS
100012c6:	2200      	movs	r2, #0
100012c8:	6082      	str	r2, [r0, #8]
  hI2c->Init.AddressingMode   = I2C_ADDRESSINGMODE_7BIT;
100012ca:	2101      	movs	r1, #1
100012cc:	60c1      	str	r1, [r0, #12]
  hI2c->Init.DualAddressMode  = I2C_DUALADDRESS_DISABLE;
100012ce:	6102      	str	r2, [r0, #16]
  hI2c->Init.OwnAddress2      = 0;
100012d0:	6142      	str	r2, [r0, #20]
  hI2c->Init.OwnAddress2Masks = I2C_OA2_NOMASK;
100012d2:	6182      	str	r2, [r0, #24]
  hI2c->Init.GeneralCallMode  = I2C_GENERALCALL_DISABLE;
100012d4:	61c2      	str	r2, [r0, #28]
  hI2c->Init.NoStretchMode    = I2C_NOSTRETCH_DISABLE;
100012d6:	6202      	str	r2, [r0, #32]
  return HAL_I2C_Init(hI2c);
100012d8:	f000 ff77 	bl	100021ca <HAL_I2C_Init>
}
100012dc:	bd08      	pop	{r3, pc}
100012de:	bf00      	nop
100012e0:	10805e89 	.word	0x10805e89

100012e4 <BSP_I2C4_Init>:
{
100012e4:	b510      	push	{r4, lr}
  hI2c4.Instance              = EVAL_I2C4;
100012e6:	480a      	ldr	r0, [pc, #40]	; (10001310 <BSP_I2C4_Init+0x2c>)
100012e8:	4b0a      	ldr	r3, [pc, #40]	; (10001314 <BSP_I2C4_Init+0x30>)
100012ea:	6003      	str	r3, [r0, #0]
  if(HAL_I2C_GetState(&hI2c4) == HAL_I2C_STATE_RESET)
100012ec:	f001 fa2e 	bl	1000274c <HAL_I2C_GetState>
100012f0:	b108      	cbz	r0, 100012f6 <BSP_I2C4_Init+0x12>
  int32_t status = BSP_ERROR_NONE;
100012f2:	2000      	movs	r0, #0
}
100012f4:	bd10      	pop	{r4, pc}
    I2C4_MspInit(&hI2c4);
100012f6:	4c06      	ldr	r4, [pc, #24]	; (10001310 <BSP_I2C4_Init+0x2c>)
100012f8:	4620      	mov	r0, r4
100012fa:	f7ff ff61 	bl	100011c0 <I2C4_MspInit>
    if( MX_I2C4_Init(&hI2c4) != HAL_OK)
100012fe:	4620      	mov	r0, r4
10001300:	f7ff ffde 	bl	100012c0 <MX_I2C4_Init>
10001304:	2800      	cmp	r0, #0
10001306:	d0f5      	beq.n	100012f4 <BSP_I2C4_Init+0x10>
        status = BSP_ERROR_BUS_FAILURE;
10001308:	f06f 0007 	mvn.w	r0, #7
  return status;
1000130c:	e7f2      	b.n	100012f4 <BSP_I2C4_Init+0x10>
1000130e:	bf00      	nop
10001310:	1002138c 	.word	0x1002138c
10001314:	5c002000 	.word	0x5c002000

10001318 <BSP_I2C4_WriteReg>:
{
10001318:	b500      	push	{lr}
1000131a:	b083      	sub	sp, #12
  return I2C4_WriteReg(DevAddr, Reg, I2C_MEMADD_SIZE_8BIT, pData, Length);
1000131c:	9300      	str	r3, [sp, #0]
1000131e:	4613      	mov	r3, r2
10001320:	2201      	movs	r2, #1
10001322:	f7ff ff9d 	bl	10001260 <I2C4_WriteReg>
}
10001326:	b003      	add	sp, #12
10001328:	f85d fb04 	ldr.w	pc, [sp], #4

1000132c <BSP_I2C4_ReadReg>:
{
1000132c:	b500      	push	{lr}
1000132e:	b083      	sub	sp, #12
  return I2C4_ReadReg(DevAddr, Reg, I2C_MEMADD_SIZE_8BIT, pData, Length);
10001330:	9300      	str	r3, [sp, #0]
10001332:	4613      	mov	r3, r2
10001334:	2201      	movs	r2, #1
10001336:	f7ff ffab 	bl	10001290 <I2C4_ReadReg>
}
1000133a:	b003      	add	sp, #12
1000133c:	f85d fb04 	ldr.w	pc, [sp], #4

10001340 <BSP_I2C4_IsReady>:
{
10001340:	b508      	push	{r3, lr}
10001342:	460a      	mov	r2, r1
  if(HAL_I2C_IsDeviceReady(&hI2c4, DevAddr, Trials, 1000) != HAL_OK)
10001344:	f44f 737a 	mov.w	r3, #1000	; 0x3e8
10001348:	4601      	mov	r1, r0
1000134a:	4804      	ldr	r0, [pc, #16]	; (1000135c <BSP_I2C4_IsReady+0x1c>)
1000134c:	f001 f948 	bl	100025e0 <HAL_I2C_IsDeviceReady>
10001350:	b900      	cbnz	r0, 10001354 <BSP_I2C4_IsReady+0x14>
}
10001352:	bd08      	pop	{r3, pc}
    status = BSP_ERROR_BUSY;
10001354:	f06f 0002 	mvn.w	r0, #2
  return status;
10001358:	e7fb      	b.n	10001352 <BSP_I2C4_IsReady+0x12>
1000135a:	bf00      	nop
1000135c:	1002138c 	.word	0x1002138c

10001360 <My_Error_Handler>:
/**
  * @brief  This function is executed in case of error occurrence.
  * @retval None
  */
static void My_Error_Handler(void)
{
10001360:	b508      	push	{r3, lr}
  /* Error if LED1 is slowly blinking (1 sec. period) */
  while(1)
  {    
    //BSP_LED_Toggle(LED4);
    HAL_Delay(500);
10001362:	f44f 70fa 	mov.w	r0, #500	; 0x1f4
10001366:	f000 fa7b 	bl	10001860 <HAL_Delay>
  while(1)
1000136a:	e7fa      	b.n	10001362 <My_Error_Handler+0x2>

1000136c <STPMU1_Get_Regulator_Data>:
{
1000136c:	b510      	push	{r4, lr}
  for (i = 0 ; i < MAX_REGUL ; i++ )
1000136e:	2300      	movs	r3, #0
10001370:	2b0a      	cmp	r3, #10
10001372:	d80a      	bhi.n	1000138a <STPMU1_Get_Regulator_Data+0x1e>
    if (id == regulators_table[i].id)
10001374:	011a      	lsls	r2, r3, #4
10001376:	4906      	ldr	r1, [pc, #24]	; (10001390 <STPMU1_Get_Regulator_Data+0x24>)
10001378:	5c8a      	ldrb	r2, [r1, r2]
1000137a:	4282      	cmp	r2, r0
1000137c:	d002      	beq.n	10001384 <STPMU1_Get_Regulator_Data+0x18>
  for (i = 0 ; i < MAX_REGUL ; i++ )
1000137e:	3301      	adds	r3, #1
10001380:	b2db      	uxtb	r3, r3
10001382:	e7f5      	b.n	10001370 <STPMU1_Get_Regulator_Data+0x4>
      return &regulators_table[i];
10001384:	eb01 1003 	add.w	r0, r1, r3, lsl #4
}
10001388:	bd10      	pop	{r4, pc}
  My_Error_Handler();
1000138a:	f7ff ffe9 	bl	10001360 <My_Error_Handler>
1000138e:	bf00      	nop
10001390:	1002008c 	.word	0x1002008c

10001394 <STPMU1_Voltage_Find_Index>:
{
10001394:	b510      	push	{r4, lr}
10001396:	460c      	mov	r4, r1
  regul_struct *regul = STPMU1_Get_Regulator_Data(id);
10001398:	f7ff ffe8 	bl	1000136c <STPMU1_Get_Regulator_Data>
1000139c:	4603      	mov	r3, r0
  for ( i = 0 ; i < regul->voltage_table_size ; i++)
1000139e:	2000      	movs	r0, #0
100013a0:	7a1a      	ldrb	r2, [r3, #8]
100013a2:	4282      	cmp	r2, r0
100013a4:	d907      	bls.n	100013b6 <STPMU1_Voltage_Find_Index+0x22>
    if ( regul->voltage_table[i] == milivolts ) {
100013a6:	685a      	ldr	r2, [r3, #4]
100013a8:	f832 2010 	ldrh.w	r2, [r2, r0, lsl #1]
100013ac:	42a2      	cmp	r2, r4
100013ae:	d004      	beq.n	100013ba <STPMU1_Voltage_Find_Index+0x26>
  for ( i = 0 ; i < regul->voltage_table_size ; i++)
100013b0:	3001      	adds	r0, #1
100013b2:	b2c0      	uxtb	r0, r0
100013b4:	e7f4      	b.n	100013a0 <STPMU1_Voltage_Find_Index+0xc>
  My_Error_Handler();
100013b6:	f7ff ffd3 	bl	10001360 <My_Error_Handler>
}
100013ba:	bd10      	pop	{r4, pc}

100013bc <BSP_PMIC_MspInit>:
 *
 */


static uint32_t BSP_PMIC_MspInit(I2C_HandleTypeDef *hi2c)
{
100013bc:	b530      	push	{r4, r5, lr}
100013be:	b087      	sub	sp, #28
  uint32_t  status = BSP_ERROR_NONE;
  GPIO_InitTypeDef  GPIO_InitStruct;

  /*##-1- Configure the I2C clock source, GPIO and Interrupt #*/
  BSP_I2C4_Init();
100013c0:	f7ff ff90 	bl	100012e4 <BSP_I2C4_Init>

  /*##-2- Configure PMIC GPIOs Interface ########################################*/

  /* INTn - Interrupt Line - Active Low (Falling Edge) */
  PMIC_INTn_CLK_ENABLE();
100013c4:	2301      	movs	r3, #1
100013c6:	f04f 42a0 	mov.w	r2, #1342177280	; 0x50000000
100013ca:	f8c2 3aa8 	str.w	r3, [r2, #2728]	; 0xaa8
  GPIO_InitStruct.Pin       = PMIC_INTn_PIN;
100013ce:	9301      	str	r3, [sp, #4]
  GPIO_InitStruct.Mode = GPIO_MODE_IT_FALLING;
100013d0:	4a0e      	ldr	r2, [pc, #56]	; (1000140c <BSP_PMIC_MspInit+0x50>)
100013d2:	9202      	str	r2, [sp, #8]
  GPIO_InitStruct.Pull      = GPIO_PULLUP; //GPIO_NOPULL;
100013d4:	9303      	str	r3, [sp, #12]
  GPIO_InitStruct.Speed     = GPIO_SPEED_FREQ_HIGH;
100013d6:	2302      	movs	r3, #2
100013d8:	9304      	str	r3, [sp, #16]
  GPIO_InitStruct.Alternate = 0 ;
100013da:	2400      	movs	r4, #0
100013dc:	9405      	str	r4, [sp, #20]
  BSP_ENTER_CRITICAL_SECTION(PMIC_INTn_PORT);
100013de:	4d0c      	ldr	r5, [pc, #48]	; (10001410 <BSP_PMIC_MspInit+0x54>)
100013e0:	2164      	movs	r1, #100	; 0x64
100013e2:	4628      	mov	r0, r5
100013e4:	f7fe fee6 	bl	100001b4 <Periph_Lock>
  HAL_GPIO_Init(PMIC_INTn_PORT, &GPIO_InitStruct);
100013e8:	a901      	add	r1, sp, #4
100013ea:	4628      	mov	r0, r5
100013ec:	f000 fc74 	bl	10001cd8 <HAL_GPIO_Init>
  BSP_EXIT_CRITICAL_SECTION(PMIC_INTn_PORT);
100013f0:	4628      	mov	r0, r5
100013f2:	f7fe ff47 	bl	10000284 <Periph_Unlock>
  /* Enable and set INTn EXTI Interrupt  */
#if defined(CORE_CA7)
  IRQ_SetPriority(EXTI0_IRQn, 0);
  IRQ_Enable(EXTI0_IRQn);
#elif defined(CORE_CM4)
  HAL_NVIC_SetPriority(EXTI0_IRQn, BSP_PMU1_IT_PRIORITY, 0x00);
100013f6:	4622      	mov	r2, r4
100013f8:	2103      	movs	r1, #3
100013fa:	2006      	movs	r0, #6
100013fc:	f000 fa5a 	bl	100018b4 <HAL_NVIC_SetPriority>
  HAL_NVIC_EnableIRQ(EXTI0_IRQn);
10001400:	2006      	movs	r0, #6
10001402:	f000 fa8b 	bl	1000191c <HAL_NVIC_EnableIRQ>
#endif

  return status;
}
10001406:	4620      	mov	r0, r4
10001408:	b007      	add	sp, #28
1000140a:	bd30      	pop	{r4, r5, pc}
1000140c:	10210000 	.word	0x10210000
10001410:	50002000 	.word	0x50002000

10001414 <STPMU1_Register_Read>:
{
10001414:	b500      	push	{lr}
10001416:	b083      	sub	sp, #12
10001418:	4601      	mov	r1, r0
  uint8_t Value = 0;
1000141a:	2300      	movs	r3, #0
1000141c:	f88d 3007 	strb.w	r3, [sp, #7]
  status = BSP_I2C4_ReadReg(STPMU1_I2C_ADDRESS, (uint16_t)register_id, &Value, 1);
10001420:	2301      	movs	r3, #1
10001422:	f10d 0207 	add.w	r2, sp, #7
10001426:	2066      	movs	r0, #102	; 0x66
10001428:	f7ff ff80 	bl	1000132c <BSP_I2C4_ReadReg>
  if(status != BSP_ERROR_NONE)
1000142c:	b920      	cbnz	r0, 10001438 <STPMU1_Register_Read+0x24>
}
1000142e:	f89d 0007 	ldrb.w	r0, [sp, #7]
10001432:	b003      	add	sp, #12
10001434:	f85d fb04 	ldr.w	pc, [sp], #4
    My_Error_Handler();
10001438:	f7ff ff92 	bl	10001360 <My_Error_Handler>

1000143c <STPMU1_Register_Write>:
{
1000143c:	b510      	push	{r4, lr}
1000143e:	b082      	sub	sp, #8
10001440:	4604      	mov	r4, r0
10001442:	f88d 1007 	strb.w	r1, [sp, #7]
  status = BSP_I2C4_WriteReg(STPMU1_I2C_ADDRESS, (uint16_t)register_id, &value, 1);
10001446:	2301      	movs	r3, #1
10001448:	f10d 0207 	add.w	r2, sp, #7
1000144c:	4601      	mov	r1, r0
1000144e:	2066      	movs	r0, #102	; 0x66
10001450:	f7ff ff62 	bl	10001318 <BSP_I2C4_WriteReg>
  if(status != BSP_ERROR_NONE)
10001454:	b928      	cbnz	r0, 10001462 <STPMU1_Register_Write+0x26>
  if ((register_id!=WATCHDOG_CONTROL_REG) && (register_id<=0x40))
10001456:	2c1b      	cmp	r4, #27
10001458:	d001      	beq.n	1000145e <STPMU1_Register_Write+0x22>
1000145a:	2c40      	cmp	r4, #64	; 0x40
1000145c:	d903      	bls.n	10001466 <STPMU1_Register_Write+0x2a>
}
1000145e:	b002      	add	sp, #8
10001460:	bd10      	pop	{r4, pc}
    My_Error_Handler();
10001462:	f7ff ff7d 	bl	10001360 <My_Error_Handler>
    uint8_t readval = STPMU1_Register_Read(register_id);
10001466:	4620      	mov	r0, r4
10001468:	f7ff ffd4 	bl	10001414 <STPMU1_Register_Read>
    if (readval != value)
1000146c:	f89d 3007 	ldrb.w	r3, [sp, #7]
10001470:	4283      	cmp	r3, r0
10001472:	d0f4      	beq.n	1000145e <STPMU1_Register_Write+0x22>
      My_Error_Handler();
10001474:	f7ff ff74 	bl	10001360 <My_Error_Handler>

10001478 <STPMU1_Enable_Interrupt>:
  if (IRQn >= IRQ_NR)
10001478:	281f      	cmp	r0, #31
1000147a:	d900      	bls.n	1000147e <STPMU1_Enable_Interrupt+0x6>
1000147c:	4770      	bx	lr
{
1000147e:	b538      	push	{r3, r4, r5, lr}
  irq_reg = IRQn >> 3 ;
10001480:	08c5      	lsrs	r5, r0, #3
  irq_reg_value = 1 << ( 7 - ( IRQn%8 ) );
10001482:	43c0      	mvns	r0, r0
10001484:	f000 0007 	and.w	r0, r0, #7
10001488:	2401      	movs	r4, #1
1000148a:	fa04 f000 	lsl.w	r0, r4, r0
1000148e:	b2c4      	uxtb	r4, r0
  STPMU1_Register_Write(ITCLEARLATCH1_REG+irq_reg, irq_reg_value );
10001490:	4621      	mov	r1, r4
10001492:	f105 0070 	add.w	r0, r5, #112	; 0x70
10001496:	f7ff ffd1 	bl	1000143c <STPMU1_Register_Write>
  STPMU1_Register_Write(ITCLEARMASK1_REG+irq_reg, irq_reg_value );
1000149a:	f1a5 0060 	sub.w	r0, r5, #96	; 0x60
1000149e:	4621      	mov	r1, r4
100014a0:	b2c0      	uxtb	r0, r0
100014a2:	f7ff ffcb 	bl	1000143c <STPMU1_Register_Write>
}
100014a6:	bd38      	pop	{r3, r4, r5, pc}

100014a8 <STPMU1_Register_Update>:
{
100014a8:	b570      	push	{r4, r5, r6, lr}
100014aa:	4605      	mov	r5, r0
100014ac:	460e      	mov	r6, r1
100014ae:	4614      	mov	r4, r2
  initial_value = STPMU1_Register_Read(register_id);
100014b0:	f7ff ffb0 	bl	10001414 <STPMU1_Register_Read>
  initial_value &= ~mask;
100014b4:	ea20 0304 	bic.w	r3, r0, r4
100014b8:	b2db      	uxtb	r3, r3
  initial_value |= ( value & mask );
100014ba:	4034      	ands	r4, r6
  STPMU1_Register_Write(register_id, initial_value);
100014bc:	ea43 0104 	orr.w	r1, r3, r4
100014c0:	4628      	mov	r0, r5
100014c2:	f7ff ffbb 	bl	1000143c <STPMU1_Register_Write>
}
100014c6:	bd70      	pop	{r4, r5, r6, pc}

100014c8 <STPMU1_Regulator_Enable>:
{
100014c8:	b508      	push	{r3, lr}
  regul_struct *regul = STPMU1_Get_Regulator_Data(id);
100014ca:	f7ff ff4f 	bl	1000136c <STPMU1_Get_Regulator_Data>
  STPMU1_Register_Update(regul->control_reg,BIT(0),BIT(0));
100014ce:	2201      	movs	r2, #1
100014d0:	4611      	mov	r1, r2
100014d2:	7a40      	ldrb	r0, [r0, #9]
100014d4:	f7ff ffe8 	bl	100014a8 <STPMU1_Register_Update>
}
100014d8:	bd08      	pop	{r3, pc}

100014da <STPMU1_Regulator_Voltage_Set>:
{
100014da:	b538      	push	{r3, r4, r5, lr}
100014dc:	4605      	mov	r5, r0
  uint8_t voltage_index = STPMU1_Voltage_Find_Index(id,milivolts);
100014de:	f7ff ff59 	bl	10001394 <STPMU1_Voltage_Find_Index>
100014e2:	4604      	mov	r4, r0
  regul_struct *regul = STPMU1_Get_Regulator_Data(id);
100014e4:	4628      	mov	r0, r5
100014e6:	f7ff ff41 	bl	1000136c <STPMU1_Get_Regulator_Data>
  STPMU1_Register_Update(regul->control_reg, voltage_index<<2 , 0xFC );
100014ea:	00a1      	lsls	r1, r4, #2
100014ec:	22fc      	movs	r2, #252	; 0xfc
100014ee:	4011      	ands	r1, r2
100014f0:	7a40      	ldrb	r0, [r0, #9]
100014f2:	f7ff ffd9 	bl	100014a8 <STPMU1_Register_Update>
}
100014f6:	bd38      	pop	{r3, r4, r5, pc}

100014f8 <BSP_PMIC_Is_Device_Ready>:

  return status;
}

uint32_t BSP_PMIC_Is_Device_Ready(void)
{
100014f8:	b508      	push	{r3, lr}
  int32_t  status = BSP_ERROR_NONE;

  /* Write the TxBuffer1 at @0, then read @0 when device ready */
  if (BSP_I2C4_IsReady(STPMU1_I2C_ADDRESS, 1) != BSP_ERROR_NONE)
100014fa:	2101      	movs	r1, #1
100014fc:	2066      	movs	r0, #102	; 0x66
100014fe:	f7ff ff1f 	bl	10001340 <BSP_I2C4_IsReady>
10001502:	b108      	cbz	r0, 10001508 <BSP_PMIC_Is_Device_Ready+0x10>
  {
    status = BSP_ERROR_BUSY;
10001504:	f06f 0002 	mvn.w	r0, #2
  }
  return status ;
}
10001508:	bd08      	pop	{r3, pc}
	...

1000150c <BSP_PMIC_Init>:

/* Use Xls I2C COnfiguration Tools with I2C Clock config + output clocks requirement */
#define I2C_TIMING     0x10805E89

uint32_t BSP_PMIC_Init(void)
{
1000150c:	b538      	push	{r3, r4, r5, lr}
  int32_t status = BSP_ERROR_NONE;
  PMIC_IRQn irq;
	

  /*##-1- Configure the I2C peripheral ######################################*/
  BSP_PMIC_MspInit(&hI2c4);
1000150e:	4810      	ldr	r0, [pc, #64]	; (10001550 <BSP_PMIC_Init+0x44>)
10001510:	f7ff ff54 	bl	100013bc <BSP_PMIC_MspInit>

  status = BSP_PMIC_Is_Device_Ready();
10001514:	f7ff fff0 	bl	100014f8 <BSP_PMIC_Is_Device_Ready>
  if ( status != BSP_ERROR_NONE )
10001518:	4605      	mov	r5, r0
1000151a:	b108      	cbz	r0, 10001520 <BSP_PMIC_Init+0x14>
  for (irq = IT_SWOUT_R; irq < IRQ_NR; irq++) {
    STPMU1_Enable_Interrupt(irq);
  }

  return BSP_ERROR_NONE;
}
1000151c:	4628      	mov	r0, r5
1000151e:	bd38      	pop	{r3, r4, r5, pc}
  if (STPMU1_Register_Read(VERSION_STATUS_REG) != 0x00)
10001520:	2006      	movs	r0, #6
10001522:	f7ff ff77 	bl	10001414 <STPMU1_Register_Read>
10001526:	4604      	mov	r4, r0
10001528:	b970      	cbnz	r0, 10001548 <BSP_PMIC_Init+0x3c>
  STPMU1_Enable_Interrupt(IT_PONKEY_R);
1000152a:	2006      	movs	r0, #6
1000152c:	f7ff ffa4 	bl	10001478 <STPMU1_Enable_Interrupt>
  STPMU1_Enable_Interrupt(IT_PONKEY_F);
10001530:	2007      	movs	r0, #7
10001532:	f7ff ffa1 	bl	10001478 <STPMU1_Enable_Interrupt>
  for (irq = IT_SWOUT_R; irq < IRQ_NR; irq++) {
10001536:	e004      	b.n	10001542 <BSP_PMIC_Init+0x36>
    STPMU1_Enable_Interrupt(irq);
10001538:	4620      	mov	r0, r4
1000153a:	f7ff ff9d 	bl	10001478 <STPMU1_Enable_Interrupt>
  for (irq = IT_SWOUT_R; irq < IRQ_NR; irq++) {
1000153e:	3401      	adds	r4, #1
10001540:	b2e4      	uxtb	r4, r4
10001542:	2c1f      	cmp	r4, #31
10001544:	d9f8      	bls.n	10001538 <BSP_PMIC_Init+0x2c>
10001546:	e7e9      	b.n	1000151c <BSP_PMIC_Init+0x10>
    return status;
10001548:	f06f 0507 	mvn.w	r5, #7
1000154c:	e7e6      	b.n	1000151c <BSP_PMIC_Init+0x10>
1000154e:	bf00      	nop
10001550:	1002138c 	.word	0x1002138c

10001554 <BSP_PMIC_InitRegulators>:
 *
 *
 */
/* following are configurations */
uint32_t BSP_PMIC_InitRegulators(void)
{
10001554:	b508      	push	{r3, lr}
  uint32_t  status = BSP_ERROR_NONE;

  STPMU1_Register_Write(MAIN_CONTROL_REG, 0x04);
10001556:	2104      	movs	r1, #4
10001558:	2010      	movs	r0, #16
1000155a:	f7ff ff6f 	bl	1000143c <STPMU1_Register_Write>
  STPMU1_Register_Write(VIN_CONTROL_REG, 0xc0);
1000155e:	21c0      	movs	r1, #192	; 0xc0
10001560:	2015      	movs	r0, #21
10001562:	f7ff ff6b 	bl	1000143c <STPMU1_Register_Write>
  STPMU1_Register_Write(USB_CONTROL_REG, 0x30);
10001566:	2130      	movs	r1, #48	; 0x30
10001568:	2040      	movs	r0, #64	; 0x40
1000156a:	f7ff ff67 	bl	1000143c <STPMU1_Register_Write>

  STPMU1_Register_Write(MASK_RESET_BUCK_REG, 0x04);
1000156e:	2104      	movs	r1, #4
10001570:	2018      	movs	r0, #24
10001572:	f7ff ff63 	bl	1000143c <STPMU1_Register_Write>
  STPMU1_Register_Write(MASK_RESET_LDO_REG, 0x00);
10001576:	2100      	movs	r1, #0
10001578:	201a      	movs	r0, #26
1000157a:	f7ff ff5f 	bl	1000143c <STPMU1_Register_Write>
  STPMU1_Register_Write(MASK_RANK_BUCK_REG, 0x00);
1000157e:	2100      	movs	r1, #0
10001580:	2017      	movs	r0, #23
10001582:	f7ff ff5b 	bl	1000143c <STPMU1_Register_Write>
  STPMU1_Register_Write(MASK_RANK_LDO_REG, 0x00);
10001586:	2100      	movs	r1, #0
10001588:	2019      	movs	r0, #25
1000158a:	f7ff ff57 	bl	1000143c <STPMU1_Register_Write>
  STPMU1_Register_Write(BUCK_PULL_DOWN_REG, 0x00);
1000158e:	2100      	movs	r1, #0
10001590:	2012      	movs	r0, #18
10001592:	f7ff ff53 	bl	1000143c <STPMU1_Register_Write>
  STPMU1_Register_Write(LDO14_PULL_DOWN_REG, 0x00);
10001596:	2100      	movs	r1, #0
10001598:	2013      	movs	r0, #19
1000159a:	f7ff ff4f 	bl	1000143c <STPMU1_Register_Write>
  STPMU1_Register_Write(LDO56_PULL_DOWN_REG, 0x00);
1000159e:	2100      	movs	r1, #0
100015a0:	2014      	movs	r0, #20
100015a2:	f7ff ff4b 	bl	1000143c <STPMU1_Register_Write>
  STPMU1_Register_Write(BUCK_ICC_TURNOFF_REG, 0x30);
100015a6:	2130      	movs	r1, #48	; 0x30
100015a8:	201d      	movs	r0, #29
100015aa:	f7ff ff47 	bl	1000143c <STPMU1_Register_Write>
  STPMU1_Register_Write(LDO_ICC_TURNOFF_REG, 0x3b);
100015ae:	213b      	movs	r1, #59	; 0x3b
100015b0:	201e      	movs	r0, #30
100015b2:	f7ff ff43 	bl	1000143c <STPMU1_Register_Write>

  /* vddcore */
  STPMU1_Regulator_Voltage_Set(STPMU1_BUCK1, 1200);
100015b6:	f44f 6196 	mov.w	r1, #1200	; 0x4b0
100015ba:	2001      	movs	r0, #1
100015bc:	f7ff ff8d 	bl	100014da <STPMU1_Regulator_Voltage_Set>
  STPMU1_Regulator_Enable(STPMU1_BUCK1);
100015c0:	2001      	movs	r0, #1
100015c2:	f7ff ff81 	bl	100014c8 <STPMU1_Regulator_Enable>

  /* vddddr */
  STPMU1_Regulator_Voltage_Set(STPMU1_BUCK2, 1350);
100015c6:	f240 5146 	movw	r1, #1350	; 0x546
100015ca:	2002      	movs	r0, #2
100015cc:	f7ff ff85 	bl	100014da <STPMU1_Regulator_Voltage_Set>
  STPMU1_Regulator_Enable(STPMU1_BUCK2);
100015d0:	2002      	movs	r0, #2
100015d2:	f7ff ff79 	bl	100014c8 <STPMU1_Regulator_Enable>

  /* vdd */
  STPMU1_Regulator_Voltage_Set(STPMU1_BUCK3, 3300);
100015d6:	f640 41e4 	movw	r1, #3300	; 0xce4
100015da:	2003      	movs	r0, #3
100015dc:	f7ff ff7d 	bl	100014da <STPMU1_Regulator_Voltage_Set>
  STPMU1_Regulator_Enable(STPMU1_BUCK3);
100015e0:	2003      	movs	r0, #3
100015e2:	f7ff ff71 	bl	100014c8 <STPMU1_Regulator_Enable>

  /* 3v3 */
  STPMU1_Regulator_Voltage_Set(STPMU1_BUCK4, 3300);
100015e6:	f640 41e4 	movw	r1, #3300	; 0xce4
100015ea:	2004      	movs	r0, #4
100015ec:	f7ff ff75 	bl	100014da <STPMU1_Regulator_Voltage_Set>
  STPMU1_Regulator_Enable(STPMU1_BUCK4);
100015f0:	2004      	movs	r0, #4
100015f2:	f7ff ff69 	bl	100014c8 <STPMU1_Regulator_Enable>

  /* vdda */
  STPMU1_Regulator_Voltage_Set(STPMU1_LDO1, 2900);
100015f6:	f640 3154 	movw	r1, #2900	; 0xb54
100015fa:	2005      	movs	r0, #5
100015fc:	f7ff ff6d 	bl	100014da <STPMU1_Regulator_Voltage_Set>
  STPMU1_Regulator_Enable(STPMU1_LDO1);
10001600:	2005      	movs	r0, #5
10001602:	f7ff ff61 	bl	100014c8 <STPMU1_Regulator_Enable>

  /* 2v8 */
  STPMU1_Regulator_Voltage_Set(STPMU1_LDO2, 2800);
10001606:	f44f 612f 	mov.w	r1, #2800	; 0xaf0
1000160a:	2006      	movs	r0, #6
1000160c:	f7ff ff65 	bl	100014da <STPMU1_Regulator_Voltage_Set>
  STPMU1_Regulator_Enable(STPMU1_LDO2);
10001610:	2006      	movs	r0, #6
10001612:	f7ff ff59 	bl	100014c8 <STPMU1_Regulator_Enable>

  /* vtt_ddr  lod3 mode buck2/2 */
  STPMU1_Regulator_Voltage_Set(STPMU1_LDO3, 0xFFFF);
10001616:	f64f 71ff 	movw	r1, #65535	; 0xffff
1000161a:	2007      	movs	r0, #7
1000161c:	f7ff ff5d 	bl	100014da <STPMU1_Regulator_Voltage_Set>
  STPMU1_Regulator_Enable(STPMU1_LDO3);
10001620:	2007      	movs	r0, #7
10001622:	f7ff ff51 	bl	100014c8 <STPMU1_Regulator_Enable>

  /* vdd_usb */
  STPMU1_Regulator_Voltage_Set(STPMU1_LDO4, 3300);
10001626:	f640 41e4 	movw	r1, #3300	; 0xce4
1000162a:	2008      	movs	r0, #8
1000162c:	f7ff ff55 	bl	100014da <STPMU1_Regulator_Voltage_Set>
  STPMU1_Regulator_Enable(STPMU1_LDO4);
10001630:	2008      	movs	r0, #8
10001632:	f7ff ff49 	bl	100014c8 <STPMU1_Regulator_Enable>

  /* vdd_sd */
  STPMU1_Regulator_Voltage_Set(STPMU1_LDO5, 2900);
10001636:	f640 3154 	movw	r1, #2900	; 0xb54
1000163a:	2009      	movs	r0, #9
1000163c:	f7ff ff4d 	bl	100014da <STPMU1_Regulator_Voltage_Set>
  STPMU1_Regulator_Enable(STPMU1_LDO5);
10001640:	2009      	movs	r0, #9
10001642:	f7ff ff41 	bl	100014c8 <STPMU1_Regulator_Enable>

  /* 1v8 */
  STPMU1_Regulator_Voltage_Set(STPMU1_LDO6, 1800);
10001646:	f44f 61e1 	mov.w	r1, #1800	; 0x708
1000164a:	200a      	movs	r0, #10
1000164c:	f7ff ff45 	bl	100014da <STPMU1_Regulator_Voltage_Set>
  STPMU1_Regulator_Enable(STPMU1_LDO6);
10001650:	200a      	movs	r0, #10
10001652:	f7ff ff39 	bl	100014c8 <STPMU1_Regulator_Enable>

  STPMU1_Regulator_Enable(STPMU1_VREFDDR);
10001656:	200b      	movs	r0, #11
10001658:	f7ff ff36 	bl	100014c8 <STPMU1_Regulator_Enable>

  return status;
}
1000165c:	2000      	movs	r0, #0
1000165e:	bd08      	pop	{r3, pc}

10001660 <SystemInit>:
void SystemInit (void)
{
  /* FPU settings ------------------------------------------------------------*/
#if defined (CORE_CM4)
  #if (__FPU_PRESENT == 1) && (__FPU_USED == 1)
   SCB->CPACR |= ((3UL << 10*2)|(3UL << 11*2));  /* set CP10 and CP11 Full Access */
10001660:	4a07      	ldr	r2, [pc, #28]	; (10001680 <SystemInit+0x20>)
10001662:	f8d2 3088 	ldr.w	r3, [r2, #136]	; 0x88
10001666:	f443 0370 	orr.w	r3, r3, #15728640	; 0xf00000
1000166a:	f8c2 3088 	str.w	r3, [r2, #136]	; 0x88
  /* Configure the Vector Table location add offset address ------------------*/
#if defined (VECT_TAB_SRAM)
  SCB->VTOR = MCU_AHB_SRAM | VECT_TAB_OFFSET; /* Vector Table Relocation in Internal SRAM */
#endif
  /* Disable all interrupts and events */
  CLEAR_REG(EXTI_C2->IMR1);
1000166e:	4b05      	ldr	r3, [pc, #20]	; (10001684 <SystemInit+0x24>)
10001670:	2200      	movs	r2, #0
10001672:	601a      	str	r2, [r3, #0]
  CLEAR_REG(EXTI_C2->IMR2);
10001674:	611a      	str	r2, [r3, #16]
  CLEAR_REG(EXTI_C2->IMR3);
10001676:	621a      	str	r2, [r3, #32]
  CLEAR_REG(EXTI_C2->EMR1);
10001678:	605a      	str	r2, [r3, #4]
  CLEAR_REG(EXTI_C2->EMR2);
1000167a:	615a      	str	r2, [r3, #20]
  CLEAR_REG(EXTI_C2->EMR3);
1000167c:	625a      	str	r2, [r3, #36]	; 0x24
#else
#error Please #define CORE_CM4
#endif	                         

}
1000167e:	4770      	bx	lr
10001680:	e000ed00 	.word	0xe000ed00
10001684:	5000d0c0 	.word	0x5000d0c0

10001688 <SystemCoreClockUpdate>:
  *
  * @param  None
  * @retval None
  */
void SystemCoreClockUpdate (void)
{
10001688:	b410      	push	{r4}
  uint32_t   pllsource, pll3m, pll3fracen;
  float fracn1, pll3vco;

  switch (RCC->MSSCKSELR & RCC_MSSCKSELR_MCUSSRC)
1000168a:	f04f 43a0 	mov.w	r3, #1342177280	; 0x50000000
1000168e:	6c9b      	ldr	r3, [r3, #72]	; 0x48
10001690:	f003 0303 	and.w	r3, r3, #3
10001694:	2b03      	cmp	r3, #3
10001696:	d80c      	bhi.n	100016b2 <SystemCoreClockUpdate+0x2a>
10001698:	e8df f003 	tbb	[pc, r3]
1000169c:	201c1802 	.word	0x201c1802
  {
  case 0x00:  /* HSI used as system clock source */
    SystemCoreClock = (HSI_VALUE >> (RCC->HSICFGR & RCC_HSICFGR_HSIDIV));
100016a0:	f04f 43a0 	mov.w	r3, #1342177280	; 0x50000000
100016a4:	699a      	ldr	r2, [r3, #24]
100016a6:	f002 0203 	and.w	r2, r2, #3
100016aa:	4b40      	ldr	r3, [pc, #256]	; (100017ac <SystemCoreClockUpdate+0x124>)
100016ac:	40d3      	lsrs	r3, r2
100016ae:	4a40      	ldr	r2, [pc, #256]	; (100017b0 <SystemCoreClockUpdate+0x128>)
100016b0:	6013      	str	r3, [r2, #0]
    }
    break;
  }

  /* Compute mcu_ck */
  SystemCoreClock = SystemCoreClock >> (RCC->MCUDIVR & RCC_MCUDIVR_MCUDIV);
100016b2:	f04f 43a0 	mov.w	r3, #1342177280	; 0x50000000
100016b6:	f8d3 2830 	ldr.w	r2, [r3, #2096]	; 0x830
100016ba:	f002 020f 	and.w	r2, r2, #15
100016be:	493c      	ldr	r1, [pc, #240]	; (100017b0 <SystemCoreClockUpdate+0x128>)
100016c0:	680b      	ldr	r3, [r1, #0]
100016c2:	40d3      	lsrs	r3, r2
100016c4:	600b      	str	r3, [r1, #0]
}
100016c6:	f85d 4b04 	ldr.w	r4, [sp], #4
100016ca:	4770      	bx	lr
    SystemCoreClock = HSE_VALUE;
100016cc:	4b38      	ldr	r3, [pc, #224]	; (100017b0 <SystemCoreClockUpdate+0x128>)
100016ce:	4a39      	ldr	r2, [pc, #228]	; (100017b4 <SystemCoreClockUpdate+0x12c>)
100016d0:	601a      	str	r2, [r3, #0]
    break;
100016d2:	e7ee      	b.n	100016b2 <SystemCoreClockUpdate+0x2a>
    SystemCoreClock = CSI_VALUE;
100016d4:	4b36      	ldr	r3, [pc, #216]	; (100017b0 <SystemCoreClockUpdate+0x128>)
100016d6:	4a38      	ldr	r2, [pc, #224]	; (100017b8 <SystemCoreClockUpdate+0x130>)
100016d8:	601a      	str	r2, [r3, #0]
    break;
100016da:	e7ea      	b.n	100016b2 <SystemCoreClockUpdate+0x2a>
    pllsource = (RCC->RCK3SELR & RCC_RCK3SELR_PLL3SRC);
100016dc:	f04f 42a0 	mov.w	r2, #1342177280	; 0x50000000
100016e0:	f8d2 0820 	ldr.w	r0, [r2, #2080]	; 0x820
100016e4:	f000 0003 	and.w	r0, r0, #3
    pll3m = ((RCC->PLL3CFGR1 & RCC_PLL3CFGR1_DIVM3) >> RCC_PLL3CFGR1_DIVM3_Pos) + 1U;
100016e8:	f8d2 1884 	ldr.w	r1, [r2, #2180]	; 0x884
100016ec:	f3c1 4105 	ubfx	r1, r1, #16, #6
    pll3fracen = (RCC->PLL3FRACR & RCC_PLL3FRACR_FRACLE) >> 16U;
100016f0:	f8d2 388c 	ldr.w	r3, [r2, #2188]	; 0x88c
100016f4:	f3c3 4300 	ubfx	r3, r3, #16, #1
    fracn1 = (float)(pll3fracen * ((RCC->PLL3FRACR & RCC_PLL3FRACR_FRACV) >> 3U));
100016f8:	f8d2 488c 	ldr.w	r4, [r2, #2188]	; 0x88c
100016fc:	f3c4 04cc 	ubfx	r4, r4, #3, #13
10001700:	fb03 f304 	mul.w	r3, r3, r4
10001704:	ee07 3a90 	vmov	s15, r3
10001708:	eeb8 7a67 	vcvt.f32.u32	s14, s15
    pll3vco = (float)((float)((RCC->PLL3CFGR1 & RCC_PLL3CFGR1_DIVN) + 1U) + (fracn1/(float) 0x1FFFU));
1000170c:	f8d2 3884 	ldr.w	r3, [r2, #2180]	; 0x884
10001710:	f3c3 0308 	ubfx	r3, r3, #0, #9
10001714:	3301      	adds	r3, #1
10001716:	ee07 3a90 	vmov	s15, r3
1000171a:	eef8 7a67 	vcvt.f32.u32	s15, s15
1000171e:	ed9f 6a27 	vldr	s12, [pc, #156]	; 100017bc <SystemCoreClockUpdate+0x134>
10001722:	eec7 6a06 	vdiv.f32	s13, s14, s12
10001726:	ee77 7aa6 	vadd.f32	s15, s15, s13
    if (pll3m != 0U)
1000172a:	3101      	adds	r1, #1
      switch (pllsource)
1000172c:	2803      	cmp	r0, #3
1000172e:	d812      	bhi.n	10001756 <SystemCoreClockUpdate+0xce>
10001730:	e8df f000 	tbb	[pc, r0]
10001734:	382e2402 	.word	0x382e2402
          pll3vco *= (float)((HSI_VALUE >> (RCC->HSICFGR & RCC_HSICFGR_HSIDIV)) / pll3m);
10001738:	f04f 43a0 	mov.w	r3, #1342177280	; 0x50000000
1000173c:	699a      	ldr	r2, [r3, #24]
1000173e:	f002 0203 	and.w	r2, r2, #3
10001742:	4b1a      	ldr	r3, [pc, #104]	; (100017ac <SystemCoreClockUpdate+0x124>)
10001744:	40d3      	lsrs	r3, r2
10001746:	fbb3 f1f1 	udiv	r1, r3, r1
1000174a:	ee07 1a10 	vmov	s14, r1
1000174e:	eeb8 7a47 	vcvt.f32.u32	s14, s14
10001752:	ee67 7a87 	vmul.f32	s15, s15, s14
      SystemCoreClock = (uint32_t)(pll3vco/ ((float)((RCC->PLL3CFGR2 & RCC_PLL3CFGR2_DIVP) + 1U)));
10001756:	f04f 43a0 	mov.w	r3, #1342177280	; 0x50000000
1000175a:	f8d3 3888 	ldr.w	r3, [r3, #2184]	; 0x888
1000175e:	f003 037f 	and.w	r3, r3, #127	; 0x7f
10001762:	3301      	adds	r3, #1
10001764:	ee07 3a10 	vmov	s14, r3
10001768:	eeb8 7a47 	vcvt.f32.u32	s14, s14
1000176c:	eec7 6a87 	vdiv.f32	s13, s15, s14
10001770:	eefc 6ae6 	vcvt.u32.f32	s13, s13
10001774:	4b0e      	ldr	r3, [pc, #56]	; (100017b0 <SystemCoreClockUpdate+0x128>)
10001776:	edc3 6a00 	vstr	s13, [r3]
1000177a:	e79a      	b.n	100016b2 <SystemCoreClockUpdate+0x2a>
          pll3vco *= (float)(HSE_VALUE / pll3m);
1000177c:	4b0d      	ldr	r3, [pc, #52]	; (100017b4 <SystemCoreClockUpdate+0x12c>)
1000177e:	fbb3 f1f1 	udiv	r1, r3, r1
10001782:	ee07 1a10 	vmov	s14, r1
10001786:	eeb8 7a47 	vcvt.f32.u32	s14, s14
1000178a:	ee67 7a87 	vmul.f32	s15, s15, s14
          break;
1000178e:	e7e2      	b.n	10001756 <SystemCoreClockUpdate+0xce>
          pll3vco *= (float)(CSI_VALUE / pll3m);
10001790:	4b09      	ldr	r3, [pc, #36]	; (100017b8 <SystemCoreClockUpdate+0x130>)
10001792:	fbb3 f1f1 	udiv	r1, r3, r1
10001796:	ee07 1a10 	vmov	s14, r1
1000179a:	eeb8 7a47 	vcvt.f32.u32	s14, s14
1000179e:	ee67 7a87 	vmul.f32	s15, s15, s14
          break;
100017a2:	e7d8      	b.n	10001756 <SystemCoreClockUpdate+0xce>
          pll3vco = 0;
100017a4:	eddf 7a06 	vldr	s15, [pc, #24]	; 100017c0 <SystemCoreClockUpdate+0x138>
100017a8:	e7d5      	b.n	10001756 <SystemCoreClockUpdate+0xce>
100017aa:	bf00      	nop
100017ac:	03d09000 	.word	0x03d09000
100017b0:	100203d8 	.word	0x100203d8
100017b4:	016e3600 	.word	0x016e3600
100017b8:	003d0900 	.word	0x003d0900
100017bc:	45fff800 	.word	0x45fff800
100017c0:	00000000 	.word	0x00000000

100017c4 <HAL_InitTick>:

#endif /* CORE_CA7 */


#if defined (CORE_CM4)
  if ((uint32_t)uwTickFreq == 0U)
100017c4:	4b10      	ldr	r3, [pc, #64]	; (10001808 <HAL_InitTick+0x44>)
100017c6:	781b      	ldrb	r3, [r3, #0]
100017c8:	b90b      	cbnz	r3, 100017ce <HAL_InitTick+0xa>
  {
    return HAL_ERROR;
100017ca:	2001      	movs	r0, #1



  /* Return function status */
  return HAL_OK;
}
100017cc:	4770      	bx	lr
{
100017ce:	b510      	push	{r4, lr}
100017d0:	4604      	mov	r4, r0
  if (HAL_SYSTICK_Config(SystemCoreClock /(1000U / uwTickFreq)) > 0U)
100017d2:	f44f 707a 	mov.w	r0, #1000	; 0x3e8
100017d6:	fbb0 f3f3 	udiv	r3, r0, r3
100017da:	4a0c      	ldr	r2, [pc, #48]	; (1000180c <HAL_InitTick+0x48>)
100017dc:	6810      	ldr	r0, [r2, #0]
100017de:	fbb0 f0f3 	udiv	r0, r0, r3
100017e2:	f000 f8a9 	bl	10001938 <HAL_SYSTICK_Config>
100017e6:	b968      	cbnz	r0, 10001804 <HAL_InitTick+0x40>
  if (TickPriority < (1UL << __NVIC_PRIO_BITS))
100017e8:	2c0f      	cmp	r4, #15
100017ea:	d901      	bls.n	100017f0 <HAL_InitTick+0x2c>
    return HAL_ERROR;
100017ec:	2001      	movs	r0, #1
100017ee:	e00a      	b.n	10001806 <HAL_InitTick+0x42>
    HAL_NVIC_SetPriority(SysTick_IRQn, TickPriority, 0U);
100017f0:	2200      	movs	r2, #0
100017f2:	4621      	mov	r1, r4
100017f4:	f04f 30ff 	mov.w	r0, #4294967295	; 0xffffffff
100017f8:	f000 f85c 	bl	100018b4 <HAL_NVIC_SetPriority>
    uwTickPrio = TickPriority;
100017fc:	4b02      	ldr	r3, [pc, #8]	; (10001808 <HAL_InitTick+0x44>)
100017fe:	605c      	str	r4, [r3, #4]
  return HAL_OK;
10001800:	2000      	movs	r0, #0
10001802:	e000      	b.n	10001806 <HAL_InitTick+0x42>
    return HAL_ERROR;
10001804:	2001      	movs	r0, #1
}
10001806:	bd10      	pop	{r4, pc}
10001808:	100203dc 	.word	0x100203dc
1000180c:	100203d8 	.word	0x100203d8

10001810 <HAL_Init>:
{
10001810:	b510      	push	{r4, lr}
  HAL_NVIC_SetPriorityGrouping(NVIC_PRIORITYGROUP_4);
10001812:	2003      	movs	r0, #3
10001814:	f000 f83c 	bl	10001890 <HAL_NVIC_SetPriorityGrouping>
  SystemCoreClock = HAL_RCC_GetSystemCoreClockFreq();
10001818:	f001 fc2c 	bl	10003074 <HAL_RCC_GetSystemCoreClockFreq>
1000181c:	4b06      	ldr	r3, [pc, #24]	; (10001838 <HAL_Init+0x28>)
1000181e:	6018      	str	r0, [r3, #0]
  if(HAL_InitTick(TICK_INT_PRIORITY) != HAL_OK)
10001820:	200f      	movs	r0, #15
10001822:	f7ff ffcf 	bl	100017c4 <HAL_InitTick>
10001826:	b110      	cbz	r0, 1000182e <HAL_Init+0x1e>
    return HAL_ERROR;
10001828:	2401      	movs	r4, #1
}
1000182a:	4620      	mov	r0, r4
1000182c:	bd10      	pop	{r4, pc}
1000182e:	4604      	mov	r4, r0
  HAL_MspInit();
10001830:	f7ff fbc4 	bl	10000fbc <HAL_MspInit>
  return HAL_OK;
10001834:	e7f9      	b.n	1000182a <HAL_Init+0x1a>
10001836:	bf00      	nop
10001838:	100203d8 	.word	0x100203d8

1000183c <HAL_IncTick>:
  *      implementations in user file.
  * @retval None
  */
__weak void HAL_IncTick(void)
{
  uwTick += (uint32_t)uwTickFreq;
1000183c:	4b03      	ldr	r3, [pc, #12]	; (1000184c <HAL_IncTick+0x10>)
1000183e:	781b      	ldrb	r3, [r3, #0]
10001840:	4a03      	ldr	r2, [pc, #12]	; (10001850 <HAL_IncTick+0x14>)
10001842:	6811      	ldr	r1, [r2, #0]
10001844:	440b      	add	r3, r1
10001846:	6013      	str	r3, [r2, #0]
}
10001848:	4770      	bx	lr
1000184a:	bf00      	nop
1000184c:	100203dc 	.word	0x100203dc
10001850:	10021424 	.word	0x10021424

10001854 <HAL_GetTick>:
#endif /* CORE_CA7 */


#if defined (CORE_CM4)
  /* tick is incremented in systick handler */
  return uwTick;
10001854:	4b01      	ldr	r3, [pc, #4]	; (1000185c <HAL_GetTick+0x8>)
10001856:	6818      	ldr	r0, [r3, #0]
#endif /* CORE_CM4 */

}
10001858:	4770      	bx	lr
1000185a:	bf00      	nop
1000185c:	10021424 	.word	0x10021424

10001860 <HAL_Delay>:
  *       implementations in user file.
  * @param Delay: specifies the delay time length, in milliseconds.
  * @retval None
  */
__weak void HAL_Delay(uint32_t Delay)
{
10001860:	b538      	push	{r3, r4, r5, lr}
10001862:	4604      	mov	r4, r0
  uint32_t tickstart = HAL_GetTick();
10001864:	f7ff fff6 	bl	10001854 <HAL_GetTick>
10001868:	4605      	mov	r5, r0
  uint32_t wait = Delay;

  /* Add a freq to guarantee minimum wait */
  if (wait < HAL_MAX_DELAY)
1000186a:	f1b4 3fff 	cmp.w	r4, #4294967295	; 0xffffffff
1000186e:	d002      	beq.n	10001876 <HAL_Delay+0x16>
  {
    wait += (uint32_t)(uwTickFreq);
10001870:	4b04      	ldr	r3, [pc, #16]	; (10001884 <HAL_Delay+0x24>)
10001872:	781b      	ldrb	r3, [r3, #0]
10001874:	441c      	add	r4, r3
  }

  while ((HAL_GetTick() - tickstart) < wait)
10001876:	f7ff ffed 	bl	10001854 <HAL_GetTick>
1000187a:	1b40      	subs	r0, r0, r5
1000187c:	42a0      	cmp	r0, r4
1000187e:	d3fa      	bcc.n	10001876 <HAL_Delay+0x16>
  {
  }
}
10001880:	bd38      	pop	{r3, r4, r5, pc}
10001882:	bf00      	nop
10001884:	100203dc 	.word	0x100203dc

10001888 <HAL_GetHalVersion>:
  * @retval version : 0xXYZR (8bits for each decimal, R for RC)
  */
uint32_t HAL_GetHalVersion(void)
{
 return __STM32MP1xx_HAL_VERSION;
}
10001888:	f04f 7082 	mov.w	r0, #17039360	; 0x1040000
1000188c:	4770      	bx	lr
	...

10001890 <HAL_NVIC_SetPriorityGrouping>:
__STATIC_INLINE void __NVIC_SetPriorityGrouping(uint32_t PriorityGroup)
{
  uint32_t reg_value;
  uint32_t PriorityGroupTmp = (PriorityGroup & (uint32_t)0x07UL);             /* only values 0..7 are used          */

  reg_value  =  SCB->AIRCR;                                                   /* read old register configuration    */
10001890:	4a07      	ldr	r2, [pc, #28]	; (100018b0 <HAL_NVIC_SetPriorityGrouping+0x20>)
10001892:	68d3      	ldr	r3, [r2, #12]
  reg_value &= ~((uint32_t)(SCB_AIRCR_VECTKEY_Msk | SCB_AIRCR_PRIGROUP_Msk)); /* clear bits to change               */
10001894:	f423 63e0 	bic.w	r3, r3, #1792	; 0x700
10001898:	041b      	lsls	r3, r3, #16
1000189a:	0c1b      	lsrs	r3, r3, #16
  reg_value  =  (reg_value                                   |
                ((uint32_t)0x5FAUL << SCB_AIRCR_VECTKEY_Pos) |
                (PriorityGroupTmp << SCB_AIRCR_PRIGROUP_Pos)  );              /* Insert write key and priority group */
1000189c:	0200      	lsls	r0, r0, #8
1000189e:	f400 60e0 	and.w	r0, r0, #1792	; 0x700
                ((uint32_t)0x5FAUL << SCB_AIRCR_VECTKEY_Pos) |
100018a2:	4303      	orrs	r3, r0
  reg_value  =  (reg_value                                   |
100018a4:	f043 63bf 	orr.w	r3, r3, #100139008	; 0x5f80000
100018a8:	f443 3300 	orr.w	r3, r3, #131072	; 0x20000
  SCB->AIRCR =  reg_value;
100018ac:	60d3      	str	r3, [r2, #12]
  /* Check the parameters */
  assert_param(IS_NVIC_PRIORITY_GROUP(PriorityGroup));

  /* Set the PRIGROUP[10:8] bits according to the PriorityGroup parameter value */
  NVIC_SetPriorityGrouping(PriorityGroup);
}
100018ae:	4770      	bx	lr
100018b0:	e000ed00 	.word	0xe000ed00

100018b4 <HAL_NVIC_SetPriority>:
  *         This parameter can be a value between 0 and 15
  *         A lower priority value indicates a higher priority.
  * @retval None
  */
void HAL_NVIC_SetPriority(IRQn_Type IRQn, uint32_t PreemptPriority, uint32_t SubPriority)
{
100018b4:	b430      	push	{r4, r5}
  \details Reads the priority grouping field from the NVIC Interrupt Controller.
  \return                Priority grouping field (SCB->AIRCR [10:8] PRIGROUP field).
 */
__STATIC_INLINE uint32_t __NVIC_GetPriorityGrouping(void)
{
  return ((uint32_t)((SCB->AIRCR & SCB_AIRCR_PRIGROUP_Msk) >> SCB_AIRCR_PRIGROUP_Pos));
100018b6:	4b17      	ldr	r3, [pc, #92]	; (10001914 <HAL_NVIC_SetPriority+0x60>)
100018b8:	68db      	ldr	r3, [r3, #12]
100018ba:	f3c3 2302 	ubfx	r3, r3, #8, #3
{
  uint32_t PriorityGroupTmp = (PriorityGroup & (uint32_t)0x07UL);   /* only values 0..7 are used          */
  uint32_t PreemptPriorityBits;
  uint32_t SubPriorityBits;

  PreemptPriorityBits = ((7UL - PriorityGroupTmp) > (uint32_t)(__NVIC_PRIO_BITS)) ? (uint32_t)(__NVIC_PRIO_BITS) : (uint32_t)(7UL - PriorityGroupTmp);
100018be:	f1c3 0407 	rsb	r4, r3, #7
100018c2:	2c04      	cmp	r4, #4
100018c4:	bf28      	it	cs
100018c6:	2404      	movcs	r4, #4
  SubPriorityBits     = ((PriorityGroupTmp + (uint32_t)(__NVIC_PRIO_BITS)) < (uint32_t)7UL) ? (uint32_t)0UL : (uint32_t)((PriorityGroupTmp - 7UL) + (uint32_t)(__NVIC_PRIO_BITS));
100018c8:	1d1d      	adds	r5, r3, #4
100018ca:	2d06      	cmp	r5, #6
100018cc:	d918      	bls.n	10001900 <HAL_NVIC_SetPriority+0x4c>
100018ce:	3b03      	subs	r3, #3

  return (
           ((PreemptPriority & (uint32_t)((1UL << (PreemptPriorityBits)) - 1UL)) << SubPriorityBits) |
100018d0:	f04f 35ff 	mov.w	r5, #4294967295	; 0xffffffff
100018d4:	fa05 f404 	lsl.w	r4, r5, r4
100018d8:	ea21 0104 	bic.w	r1, r1, r4
100018dc:	4099      	lsls	r1, r3
           ((SubPriority     & (uint32_t)((1UL << (SubPriorityBits    )) - 1UL)))
100018de:	fa05 f303 	lsl.w	r3, r5, r3
100018e2:	ea22 0303 	bic.w	r3, r2, r3
           ((PreemptPriority & (uint32_t)((1UL << (PreemptPriorityBits)) - 1UL)) << SubPriorityBits) |
100018e6:	4319      	orrs	r1, r3
  if ((int32_t)(IRQn) >= 0)
100018e8:	2800      	cmp	r0, #0
100018ea:	db0b      	blt.n	10001904 <HAL_NVIC_SetPriority+0x50>
    NVIC->IP[((uint32_t)IRQn)]               = (uint8_t)((priority << (8U - __NVIC_PRIO_BITS)) & (uint32_t)0xFFUL);
100018ec:	0109      	lsls	r1, r1, #4
100018ee:	b2c9      	uxtb	r1, r1
100018f0:	f100 4060 	add.w	r0, r0, #3758096384	; 0xe0000000
100018f4:	f500 4061 	add.w	r0, r0, #57600	; 0xe100
100018f8:	f880 1300 	strb.w	r1, [r0, #768]	; 0x300
  assert_param(IS_NVIC_PREEMPTION_PRIORITY(PreemptPriority));

  prioritygroup = NVIC_GetPriorityGrouping();

  NVIC_SetPriority(IRQn, NVIC_EncodePriority(prioritygroup, PreemptPriority, SubPriority));
}
100018fc:	bc30      	pop	{r4, r5}
100018fe:	4770      	bx	lr
  SubPriorityBits     = ((PriorityGroupTmp + (uint32_t)(__NVIC_PRIO_BITS)) < (uint32_t)7UL) ? (uint32_t)0UL : (uint32_t)((PriorityGroupTmp - 7UL) + (uint32_t)(__NVIC_PRIO_BITS));
10001900:	2300      	movs	r3, #0
10001902:	e7e5      	b.n	100018d0 <HAL_NVIC_SetPriority+0x1c>
    SCB->SHP[(((uint32_t)IRQn) & 0xFUL)-4UL] = (uint8_t)((priority << (8U - __NVIC_PRIO_BITS)) & (uint32_t)0xFFUL);
10001904:	f000 000f 	and.w	r0, r0, #15
10001908:	0109      	lsls	r1, r1, #4
1000190a:	b2c9      	uxtb	r1, r1
1000190c:	4b02      	ldr	r3, [pc, #8]	; (10001918 <HAL_NVIC_SetPriority+0x64>)
1000190e:	5419      	strb	r1, [r3, r0]
10001910:	e7f4      	b.n	100018fc <HAL_NVIC_SetPriority+0x48>
10001912:	bf00      	nop
10001914:	e000ed00 	.word	0xe000ed00
10001918:	e000ed14 	.word	0xe000ed14

1000191c <HAL_NVIC_EnableIRQ>:
  if ((int32_t)(IRQn) >= 0)
1000191c:	2800      	cmp	r0, #0
1000191e:	db07      	blt.n	10001930 <HAL_NVIC_EnableIRQ+0x14>
    NVIC->ISER[(((uint32_t)IRQn) >> 5UL)] = (uint32_t)(1UL << (((uint32_t)IRQn) & 0x1FUL));
10001920:	f000 021f 	and.w	r2, r0, #31
10001924:	0940      	lsrs	r0, r0, #5
10001926:	2301      	movs	r3, #1
10001928:	4093      	lsls	r3, r2
1000192a:	4a02      	ldr	r2, [pc, #8]	; (10001934 <HAL_NVIC_EnableIRQ+0x18>)
1000192c:	f842 3020 	str.w	r3, [r2, r0, lsl #2]
  /* Check the parameters */
  assert_param(IS_NVIC_DEVICE_IRQ(IRQn));
  
  /* Enable interrupt */
  NVIC_EnableIRQ(IRQn);
}
10001930:	4770      	bx	lr
10001932:	bf00      	nop
10001934:	e000e100 	.word	0xe000e100

10001938 <HAL_SYSTICK_Config>:
           function <b>SysTick_Config</b> is not included. In this case, the file <b><i>device</i>.h</b>
           must contain a vendor-specific implementation of this function.
 */
__STATIC_INLINE uint32_t SysTick_Config(uint32_t ticks)
{
  if ((ticks - 1UL) > SysTick_LOAD_RELOAD_Msk)
10001938:	3801      	subs	r0, #1
1000193a:	f1b0 7f80 	cmp.w	r0, #16777216	; 0x1000000
1000193e:	d20a      	bcs.n	10001956 <HAL_SYSTICK_Config+0x1e>
  {
    return (1UL);                                                   /* Reload value impossible */
  }

  SysTick->LOAD  = (uint32_t)(ticks - 1UL);                         /* set reload register */
10001940:	4b06      	ldr	r3, [pc, #24]	; (1000195c <HAL_SYSTICK_Config+0x24>)
10001942:	6058      	str	r0, [r3, #4]
    SCB->SHP[(((uint32_t)IRQn) & 0xFUL)-4UL] = (uint8_t)((priority << (8U - __NVIC_PRIO_BITS)) & (uint32_t)0xFFUL);
10001944:	4a06      	ldr	r2, [pc, #24]	; (10001960 <HAL_SYSTICK_Config+0x28>)
10001946:	21f0      	movs	r1, #240	; 0xf0
10001948:	f882 1023 	strb.w	r1, [r2, #35]	; 0x23
  NVIC_SetPriority (SysTick_IRQn, (1UL << __NVIC_PRIO_BITS) - 1UL); /* set Priority for Systick Interrupt */
  SysTick->VAL   = 0UL;                                             /* Load the SysTick Counter Value */
1000194c:	2000      	movs	r0, #0
1000194e:	6098      	str	r0, [r3, #8]
  SysTick->CTRL  = SysTick_CTRL_CLKSOURCE_Msk |
10001950:	2207      	movs	r2, #7
10001952:	601a      	str	r2, [r3, #0]
                   SysTick_CTRL_TICKINT_Msk   |
                   SysTick_CTRL_ENABLE_Msk;                         /* Enable SysTick IRQ and SysTick Timer */
  return (0UL);                                                     /* Function successful */
10001954:	4770      	bx	lr
    return (1UL);                                                   /* Reload value impossible */
10001956:	2001      	movs	r0, #1
  *                  - 1  Function failed.
  */
uint32_t HAL_SYSTICK_Config(uint32_t TicksNumb)
{
   return SysTick_Config(TicksNumb);
}
10001958:	4770      	bx	lr
1000195a:	bf00      	nop
1000195c:	e000e010 	.word	0xe000e010
10001960:	e000ed00 	.word	0xe000ed00

10001964 <HAL_DMA_IRQHandler>:
  * @param  hdma: pointer to a DMA_HandleTypeDef structure that contains
  *               the configuration information for the specified DMA Stream.
  * @retval None
  */
void HAL_DMA_IRQHandler(DMA_HandleTypeDef *hdma)
{
10001964:	b5f0      	push	{r4, r5, r6, r7, lr}
10001966:	b083      	sub	sp, #12
  uint32_t tmpisr;
  __IO uint32_t count = 0U;
10001968:	2300      	movs	r3, #0
1000196a:	9301      	str	r3, [sp, #4]
  uint32_t timeout = SystemCoreClock / 9600U;
1000196c:	4b7d      	ldr	r3, [pc, #500]	; (10001b64 <HAL_DMA_IRQHandler+0x200>)
1000196e:	681d      	ldr	r5, [r3, #0]
10001970:	4b7d      	ldr	r3, [pc, #500]	; (10001b68 <HAL_DMA_IRQHandler+0x204>)
10001972:	fba3 3505 	umull	r3, r5, r3, r5

  /* calculate DMA base and stream number */
  DMA_Base_Registers *regs = (DMA_Base_Registers *)hdma->StreamBaseAddress;
10001976:	6d87      	ldr	r7, [r0, #88]	; 0x58

  tmpisr = regs->ISR;
10001978:	683e      	ldr	r6, [r7, #0]

  if (IS_DMA_INSTANCE(hdma) != RESET) /*D2 domain DMA : DMA1 or DMA2*/
1000197a:	6802      	ldr	r2, [r0, #0]
1000197c:	f102 4338 	add.w	r3, r2, #3087007744	; 0xb8000000
10001980:	3b10      	subs	r3, #16
10001982:	f241 01a8 	movw	r1, #4264	; 0x10a8
10001986:	428b      	cmp	r3, r1
10001988:	f200 80e5 	bhi.w	10001b56 <HAL_DMA_IRQHandler+0x1f2>
1000198c:	4604      	mov	r4, r0
1000198e:	0aad      	lsrs	r5, r5, #10
  {
    /* Transfer Error Interrupt management ***************************************/
    if ((tmpisr & (DMA_FLAG_TEIF0_4 << hdma->StreamIndex)) != 0U)
10001990:	6dc1      	ldr	r1, [r0, #92]	; 0x5c
10001992:	2308      	movs	r3, #8
10001994:	408b      	lsls	r3, r1
10001996:	4233      	tst	r3, r6
10001998:	d00f      	beq.n	100019ba <HAL_DMA_IRQHandler+0x56>
    {
      if (__HAL_DMA_GET_IT_SOURCE(hdma, DMA_IT_TE) != 0U)
1000199a:	6813      	ldr	r3, [r2, #0]
1000199c:	f013 0f04 	tst.w	r3, #4
100019a0:	d00b      	beq.n	100019ba <HAL_DMA_IRQHandler+0x56>
      {
        /* Disable the transfer error interrupt */
        ((DMA_Stream_TypeDef *)hdma->Instance)->CR  &= ~(DMA_IT_TE);
100019a2:	6813      	ldr	r3, [r2, #0]
100019a4:	f023 0304 	bic.w	r3, r3, #4
100019a8:	6013      	str	r3, [r2, #0]

        /* Clear the transfer error flag */
        regs->IFCR = DMA_FLAG_TEIF0_4 << hdma->StreamIndex;
100019aa:	6dc2      	ldr	r2, [r0, #92]	; 0x5c
100019ac:	2308      	movs	r3, #8
100019ae:	4093      	lsls	r3, r2
100019b0:	60bb      	str	r3, [r7, #8]

        /* Update error code */
        hdma->ErrorCode |= HAL_DMA_ERROR_TE;
100019b2:	6d43      	ldr	r3, [r0, #84]	; 0x54
100019b4:	f043 0301 	orr.w	r3, r3, #1
100019b8:	6543      	str	r3, [r0, #84]	; 0x54
      }
    }
    /* FIFO Error Interrupt management ******************************************/
    if ((tmpisr & (DMA_FLAG_FEIF0_4 << hdma->StreamIndex)) != 0U)
100019ba:	6de3      	ldr	r3, [r4, #92]	; 0x5c
100019bc:	fa26 f203 	lsr.w	r2, r6, r3
100019c0:	f012 0f01 	tst.w	r2, #1
100019c4:	d00c      	beq.n	100019e0 <HAL_DMA_IRQHandler+0x7c>
    {
      if (__HAL_DMA_GET_IT_SOURCE(hdma, DMA_IT_FE) != 0U)
100019c6:	6822      	ldr	r2, [r4, #0]
100019c8:	6952      	ldr	r2, [r2, #20]
100019ca:	f012 0f80 	tst.w	r2, #128	; 0x80
100019ce:	d007      	beq.n	100019e0 <HAL_DMA_IRQHandler+0x7c>
      {
        /* Clear the FIFO error flag */
        regs->IFCR = DMA_FLAG_FEIF0_4 << hdma->StreamIndex;
100019d0:	2201      	movs	r2, #1
100019d2:	fa02 f303 	lsl.w	r3, r2, r3
100019d6:	60bb      	str	r3, [r7, #8]

        /* Update error code */
        hdma->ErrorCode |= HAL_DMA_ERROR_FE;
100019d8:	6d63      	ldr	r3, [r4, #84]	; 0x54
100019da:	f043 0302 	orr.w	r3, r3, #2
100019de:	6563      	str	r3, [r4, #84]	; 0x54
      }
    }
    /* Direct Mode Error Interrupt management ***********************************/
    if ((tmpisr & (DMA_FLAG_DMEIF0_4 << hdma->StreamIndex)) != 0U)
100019e0:	6de2      	ldr	r2, [r4, #92]	; 0x5c
100019e2:	2304      	movs	r3, #4
100019e4:	4093      	lsls	r3, r2
100019e6:	4233      	tst	r3, r6
100019e8:	d009      	beq.n	100019fe <HAL_DMA_IRQHandler+0x9a>
    {
      if (__HAL_DMA_GET_IT_SOURCE(hdma, DMA_IT_DME) != 0U)
100019ea:	6822      	ldr	r2, [r4, #0]
100019ec:	6812      	ldr	r2, [r2, #0]
100019ee:	f012 0f02 	tst.w	r2, #2
100019f2:	d004      	beq.n	100019fe <HAL_DMA_IRQHandler+0x9a>
      {
        /* Clear the direct mode error flag */
        regs->IFCR = DMA_FLAG_DMEIF0_4 << hdma->StreamIndex;
100019f4:	60bb      	str	r3, [r7, #8]

        /* Update error code */
        hdma->ErrorCode |= HAL_DMA_ERROR_DME;
100019f6:	6d63      	ldr	r3, [r4, #84]	; 0x54
100019f8:	f043 0304 	orr.w	r3, r3, #4
100019fc:	6563      	str	r3, [r4, #84]	; 0x54
      }
    }
    /* Half Transfer Complete Interrupt management ******************************/
    if ((tmpisr & (DMA_FLAG_HTIF0_4 << hdma->StreamIndex)) != 0U)
100019fe:	6de2      	ldr	r2, [r4, #92]	; 0x5c
10001a00:	2310      	movs	r3, #16
10001a02:	4093      	lsls	r3, r2
10001a04:	4233      	tst	r3, r6
10001a06:	d024      	beq.n	10001a52 <HAL_DMA_IRQHandler+0xee>
    {
      if (__HAL_DMA_GET_IT_SOURCE(hdma, DMA_IT_HT) != 0U)
10001a08:	6822      	ldr	r2, [r4, #0]
10001a0a:	6812      	ldr	r2, [r2, #0]
10001a0c:	f012 0f08 	tst.w	r2, #8
10001a10:	d01f      	beq.n	10001a52 <HAL_DMA_IRQHandler+0xee>
      {
        /* Clear the half transfer complete flag */
        regs->IFCR = DMA_FLAG_HTIF0_4 << hdma->StreamIndex;
10001a12:	60bb      	str	r3, [r7, #8]

        /* Multi_Buffering mode enabled */
        if (((((DMA_Stream_TypeDef *)hdma->Instance)->CR) & (uint32_t)(DMA_SxCR_DBM)) != 0U)
10001a14:	6823      	ldr	r3, [r4, #0]
10001a16:	681a      	ldr	r2, [r3, #0]
10001a18:	f412 2f80 	tst.w	r2, #262144	; 0x40000
10001a1c:	d00d      	beq.n	10001a3a <HAL_DMA_IRQHandler+0xd6>
        {
          /* Current memory buffer used is Memory 0 */
          if ((((DMA_Stream_TypeDef *)hdma->Instance)->CR & DMA_SxCR_CT) == 0U)
10001a1e:	681b      	ldr	r3, [r3, #0]
10001a20:	f413 2f00 	tst.w	r3, #524288	; 0x80000
10001a24:	d104      	bne.n	10001a30 <HAL_DMA_IRQHandler+0xcc>
          {
            if (hdma->XferHalfCpltCallback != NULL)
10001a26:	6c23      	ldr	r3, [r4, #64]	; 0x40
10001a28:	b19b      	cbz	r3, 10001a52 <HAL_DMA_IRQHandler+0xee>
            {
              /* Half transfer callback */
              hdma->XferHalfCpltCallback(hdma);
10001a2a:	4620      	mov	r0, r4
10001a2c:	4798      	blx	r3
10001a2e:	e010      	b.n	10001a52 <HAL_DMA_IRQHandler+0xee>
            }
          }
          /* Current memory buffer used is Memory 1 */
          else
          {
            if (hdma->XferM1HalfCpltCallback != NULL)
10001a30:	6ca3      	ldr	r3, [r4, #72]	; 0x48
10001a32:	b173      	cbz	r3, 10001a52 <HAL_DMA_IRQHandler+0xee>
            {
              /* Half transfer callback */
              hdma->XferM1HalfCpltCallback(hdma);
10001a34:	4620      	mov	r0, r4
10001a36:	4798      	blx	r3
10001a38:	e00b      	b.n	10001a52 <HAL_DMA_IRQHandler+0xee>
          }
        }
        else
        {
          /* Disable the half transfer interrupt if the DMA mode is not CIRCULAR */
          if ((((DMA_Stream_TypeDef *)hdma->Instance)->CR & DMA_SxCR_CIRC) == 0U)
10001a3a:	681a      	ldr	r2, [r3, #0]
10001a3c:	f412 7f80 	tst.w	r2, #256	; 0x100
10001a40:	d103      	bne.n	10001a4a <HAL_DMA_IRQHandler+0xe6>
          {
            /* Disable the half transfer interrupt */
            ((DMA_Stream_TypeDef *)hdma->Instance)->CR  &= ~(DMA_IT_HT);
10001a42:	681a      	ldr	r2, [r3, #0]
10001a44:	f022 0208 	bic.w	r2, r2, #8
10001a48:	601a      	str	r2, [r3, #0]
          }

          if (hdma->XferHalfCpltCallback != NULL)
10001a4a:	6c23      	ldr	r3, [r4, #64]	; 0x40
10001a4c:	b10b      	cbz	r3, 10001a52 <HAL_DMA_IRQHandler+0xee>
          {
            /* Half transfer callback */
            hdma->XferHalfCpltCallback(hdma);
10001a4e:	4620      	mov	r0, r4
10001a50:	4798      	blx	r3
          }
        }
      }
    }
    /* Transfer Complete Interrupt management ***********************************/
    if ((tmpisr & (DMA_FLAG_TCIF0_4 << hdma->StreamIndex)) != 0U)
10001a52:	6de2      	ldr	r2, [r4, #92]	; 0x5c
10001a54:	2320      	movs	r3, #32
10001a56:	4093      	lsls	r3, r2
10001a58:	4233      	tst	r3, r6
10001a5a:	d055      	beq.n	10001b08 <HAL_DMA_IRQHandler+0x1a4>
    {
      if (__HAL_DMA_GET_IT_SOURCE(hdma, DMA_IT_TC) != 0U)
10001a5c:	6822      	ldr	r2, [r4, #0]
10001a5e:	6812      	ldr	r2, [r2, #0]
10001a60:	f012 0f10 	tst.w	r2, #16
10001a64:	d050      	beq.n	10001b08 <HAL_DMA_IRQHandler+0x1a4>
      {
        /* Clear the transfer complete flag */
        regs->IFCR = DMA_FLAG_TCIF0_4 << hdma->StreamIndex;
10001a66:	60bb      	str	r3, [r7, #8]

        if (HAL_DMA_STATE_ABORT == hdma->State)
10001a68:	f894 3035 	ldrb.w	r3, [r4, #53]	; 0x35
10001a6c:	b2db      	uxtb	r3, r3
10001a6e:	2b04      	cmp	r3, #4
10001a70:	d00e      	beq.n	10001a90 <HAL_DMA_IRQHandler+0x12c>
            hdma->XferAbortCallback(hdma);
          }
          return;
        }

        if (((((DMA_Stream_TypeDef *)hdma->Instance)->CR) & (uint32_t)(DMA_SxCR_DBM)) != 0U)
10001a72:	6823      	ldr	r3, [r4, #0]
10001a74:	681a      	ldr	r2, [r3, #0]
10001a76:	f412 2f80 	tst.w	r2, #262144	; 0x40000
10001a7a:	d033      	beq.n	10001ae4 <HAL_DMA_IRQHandler+0x180>
        {
          /* Current memory buffer used is Memory 0 */
          if ((((DMA_Stream_TypeDef *)hdma->Instance)->CR & DMA_SxCR_CT) == 0U)
10001a7c:	681b      	ldr	r3, [r3, #0]
10001a7e:	f413 2f00 	tst.w	r3, #524288	; 0x80000
10001a82:	d12a      	bne.n	10001ada <HAL_DMA_IRQHandler+0x176>
          {
            if (hdma->XferM1CpltCallback != NULL)
10001a84:	6c63      	ldr	r3, [r4, #68]	; 0x44
10001a86:	2b00      	cmp	r3, #0
10001a88:	d03e      	beq.n	10001b08 <HAL_DMA_IRQHandler+0x1a4>
            {
              /* Transfer complete Callback for memory1 */
              hdma->XferM1CpltCallback(hdma);
10001a8a:	4620      	mov	r0, r4
10001a8c:	4798      	blx	r3
10001a8e:	e03b      	b.n	10001b08 <HAL_DMA_IRQHandler+0x1a4>
          ((DMA_Stream_TypeDef *)hdma->Instance)->CR  &= ~(DMA_IT_TC | DMA_IT_TE | DMA_IT_DME);
10001a90:	6822      	ldr	r2, [r4, #0]
10001a92:	6813      	ldr	r3, [r2, #0]
10001a94:	f023 0316 	bic.w	r3, r3, #22
10001a98:	6013      	str	r3, [r2, #0]
          ((DMA_Stream_TypeDef *)hdma->Instance)->FCR &= ~(DMA_IT_FE);
10001a9a:	6822      	ldr	r2, [r4, #0]
10001a9c:	6953      	ldr	r3, [r2, #20]
10001a9e:	f023 0380 	bic.w	r3, r3, #128	; 0x80
10001aa2:	6153      	str	r3, [r2, #20]
          if ((hdma->XferHalfCpltCallback != NULL) || (hdma->XferM1HalfCpltCallback != NULL))
10001aa4:	6c23      	ldr	r3, [r4, #64]	; 0x40
10001aa6:	b1a3      	cbz	r3, 10001ad2 <HAL_DMA_IRQHandler+0x16e>
            ((DMA_Stream_TypeDef *)hdma->Instance)->CR  &= ~(DMA_IT_HT);
10001aa8:	6822      	ldr	r2, [r4, #0]
10001aaa:	6813      	ldr	r3, [r2, #0]
10001aac:	f023 0308 	bic.w	r3, r3, #8
10001ab0:	6013      	str	r3, [r2, #0]
          regs->IFCR = 0x3FUL << hdma->StreamIndex;
10001ab2:	6de2      	ldr	r2, [r4, #92]	; 0x5c
10001ab4:	233f      	movs	r3, #63	; 0x3f
10001ab6:	4093      	lsls	r3, r2
10001ab8:	60bb      	str	r3, [r7, #8]
          __HAL_UNLOCK(hdma);
10001aba:	2300      	movs	r3, #0
10001abc:	f884 3034 	strb.w	r3, [r4, #52]	; 0x34
          hdma->State = HAL_DMA_STATE_READY;
10001ac0:	2301      	movs	r3, #1
10001ac2:	f884 3035 	strb.w	r3, [r4, #53]	; 0x35
          if (hdma->XferAbortCallback != NULL)
10001ac6:	6d23      	ldr	r3, [r4, #80]	; 0x50
10001ac8:	2b00      	cmp	r3, #0
10001aca:	d044      	beq.n	10001b56 <HAL_DMA_IRQHandler+0x1f2>
            hdma->XferAbortCallback(hdma);
10001acc:	4620      	mov	r0, r4
10001ace:	4798      	blx	r3
          return;
10001ad0:	e041      	b.n	10001b56 <HAL_DMA_IRQHandler+0x1f2>
          if ((hdma->XferHalfCpltCallback != NULL) || (hdma->XferM1HalfCpltCallback != NULL))
10001ad2:	6ca3      	ldr	r3, [r4, #72]	; 0x48
10001ad4:	2b00      	cmp	r3, #0
10001ad6:	d1e7      	bne.n	10001aa8 <HAL_DMA_IRQHandler+0x144>
10001ad8:	e7eb      	b.n	10001ab2 <HAL_DMA_IRQHandler+0x14e>
            }
          }
          /* Current memory buffer used is Memory 1 */
          else
          {
            if (hdma->XferCpltCallback != NULL)
10001ada:	6be3      	ldr	r3, [r4, #60]	; 0x3c
10001adc:	b1a3      	cbz	r3, 10001b08 <HAL_DMA_IRQHandler+0x1a4>
            {
              /* Transfer complete Callback for memory0 */
              hdma->XferCpltCallback(hdma);
10001ade:	4620      	mov	r0, r4
10001ae0:	4798      	blx	r3
10001ae2:	e011      	b.n	10001b08 <HAL_DMA_IRQHandler+0x1a4>
          }
        }
        /* Disable the transfer complete interrupt if the DMA mode is not CIRCULAR */
        else
        {
          if ((((DMA_Stream_TypeDef *)hdma->Instance)->CR & DMA_SxCR_CIRC) == 0U)
10001ae4:	681a      	ldr	r2, [r3, #0]
10001ae6:	f412 7f80 	tst.w	r2, #256	; 0x100
10001aea:	d109      	bne.n	10001b00 <HAL_DMA_IRQHandler+0x19c>
          {
            /* Disable the transfer complete interrupt */
            ((DMA_Stream_TypeDef *)hdma->Instance)->CR  &= ~(DMA_IT_TC);
10001aec:	681a      	ldr	r2, [r3, #0]
10001aee:	f022 0210 	bic.w	r2, r2, #16
10001af2:	601a      	str	r2, [r3, #0]

            /* Process Unlocked */
            __HAL_UNLOCK(hdma);
10001af4:	2300      	movs	r3, #0
10001af6:	f884 3034 	strb.w	r3, [r4, #52]	; 0x34

            /* Change the DMA state */
            hdma->State = HAL_DMA_STATE_READY;
10001afa:	2301      	movs	r3, #1
10001afc:	f884 3035 	strb.w	r3, [r4, #53]	; 0x35
          }

          if (hdma->XferCpltCallback != NULL)
10001b00:	6be3      	ldr	r3, [r4, #60]	; 0x3c
10001b02:	b10b      	cbz	r3, 10001b08 <HAL_DMA_IRQHandler+0x1a4>
          {
            /* Transfer complete callback */
            hdma->XferCpltCallback(hdma);
10001b04:	4620      	mov	r0, r4
10001b06:	4798      	blx	r3
        }
      }
    }

    /* manage error case */
    if (hdma->ErrorCode != HAL_DMA_ERROR_NONE)
10001b08:	6d63      	ldr	r3, [r4, #84]	; 0x54
10001b0a:	b323      	cbz	r3, 10001b56 <HAL_DMA_IRQHandler+0x1f2>
    {
      if ((hdma->ErrorCode & HAL_DMA_ERROR_TE) != 0U)
10001b0c:	6d63      	ldr	r3, [r4, #84]	; 0x54
10001b0e:	f013 0f01 	tst.w	r3, #1
10001b12:	d01c      	beq.n	10001b4e <HAL_DMA_IRQHandler+0x1ea>
      {
        hdma->State = HAL_DMA_STATE_ABORT;
10001b14:	2304      	movs	r3, #4
10001b16:	f884 3035 	strb.w	r3, [r4, #53]	; 0x35

        /* Disable the stream */
        __HAL_DMA_DISABLE(hdma);
10001b1a:	6822      	ldr	r2, [r4, #0]
10001b1c:	6813      	ldr	r3, [r2, #0]
10001b1e:	f023 0301 	bic.w	r3, r3, #1
10001b22:	6013      	str	r3, [r2, #0]

        do
        {
          if (++count > timeout)
10001b24:	9b01      	ldr	r3, [sp, #4]
10001b26:	3301      	adds	r3, #1
10001b28:	9301      	str	r3, [sp, #4]
10001b2a:	42ab      	cmp	r3, r5
10001b2c:	d804      	bhi.n	10001b38 <HAL_DMA_IRQHandler+0x1d4>
          {
            break;
          }
        }
        while ((((DMA_Stream_TypeDef *)hdma->Instance)->CR & DMA_SxCR_EN) != 0U);
10001b2e:	6823      	ldr	r3, [r4, #0]
10001b30:	681b      	ldr	r3, [r3, #0]
10001b32:	f013 0f01 	tst.w	r3, #1
10001b36:	d1f5      	bne.n	10001b24 <HAL_DMA_IRQHandler+0x1c0>

        /* Process Unlocked */
        __HAL_UNLOCK(hdma);
10001b38:	2300      	movs	r3, #0
10001b3a:	f884 3034 	strb.w	r3, [r4, #52]	; 0x34

        if ((((DMA_Stream_TypeDef *)hdma->Instance)->CR & DMA_SxCR_EN) != 0U)
10001b3e:	6823      	ldr	r3, [r4, #0]
10001b40:	681b      	ldr	r3, [r3, #0]
10001b42:	f013 0f01 	tst.w	r3, #1
10001b46:	d008      	beq.n	10001b5a <HAL_DMA_IRQHandler+0x1f6>
        {
          /* Change the DMA state to error if DMA disable fails */
          hdma->State = HAL_DMA_STATE_ERROR;
10001b48:	2303      	movs	r3, #3
10001b4a:	f884 3035 	strb.w	r3, [r4, #53]	; 0x35
          /* Change the DMA state to Ready if DMA disable success */
          hdma->State = HAL_DMA_STATE_READY;
        }
      }

      if (hdma->XferErrorCallback != NULL)
10001b4e:	6ce3      	ldr	r3, [r4, #76]	; 0x4c
10001b50:	b10b      	cbz	r3, 10001b56 <HAL_DMA_IRQHandler+0x1f2>
      {
        /* Transfer error callback */
        hdma->XferErrorCallback(hdma);
10001b52:	4620      	mov	r0, r4
10001b54:	4798      	blx	r3
  }
  else
  {
    /* Nothing To Do */
  }
}
10001b56:	b003      	add	sp, #12
10001b58:	bdf0      	pop	{r4, r5, r6, r7, pc}
          hdma->State = HAL_DMA_STATE_READY;
10001b5a:	2301      	movs	r3, #1
10001b5c:	f884 3035 	strb.w	r3, [r4, #53]	; 0x35
10001b60:	e7f5      	b.n	10001b4e <HAL_DMA_IRQHandler+0x1ea>
10001b62:	bf00      	nop
10001b64:	100203d8 	.word	0x100203d8
10001b68:	1b4e81b5 	.word	0x1b4e81b5

10001b6c <HAL_EXTI_SetConfigLine>:
  uint32_t linepos;
  uint32_t maskline;
  uint32_t offset;

  /* Check null pointer */
  if ((hexti == NULL) || (pExtiConfig == NULL))
10001b6c:	2800      	cmp	r0, #0
10001b6e:	d06f      	beq.n	10001c50 <HAL_EXTI_SetConfigLine+0xe4>
10001b70:	2900      	cmp	r1, #0
10001b72:	d06f      	beq.n	10001c54 <HAL_EXTI_SetConfigLine+0xe8>
{
10001b74:	b4f0      	push	{r4, r5, r6, r7}

  /* Check parameters */
  assert_param(IS_EXTI_LINE(pExtiConfig->Line));

  /* Assign line number to handle */
  hexti->Line = pExtiConfig->Line;
10001b76:	680b      	ldr	r3, [r1, #0]
10001b78:	6003      	str	r3, [r0, #0]

  /* compute line register offset and line mask */
  offset = ((pExtiConfig->Line & EXTI_REG_MASK) >> EXTI_REG_SHIFT);
10001b7a:	f3c3 4001 	ubfx	r0, r3, #16, #2
  linepos = (pExtiConfig->Line & EXTI_PIN_MASK);
10001b7e:	f003 041f 	and.w	r4, r3, #31
  maskline = (1uL << linepos);
10001b82:	2201      	movs	r2, #1
10001b84:	40a2      	lsls	r2, r4

  /* Configure triggers for configurable lines */
  if ((pExtiConfig->Line & EXTI_CONFIG) != 0x00u)
10001b86:	f013 7f00 	tst.w	r3, #33554432	; 0x2000000
10001b8a:	d01d      	beq.n	10001bc8 <HAL_EXTI_SetConfigLine+0x5c>
  {
    assert_param(IS_EXTI_TRIGGER(pExtiConfig->Trigger));

    /* Configure rising trigger */
    regaddr = (&EXTI->RTSR1 + (EXTI_CONFIG_OFFSET * offset));
10001b8c:	0146      	lsls	r6, r0, #5
10001b8e:	f106 45a0 	add.w	r5, r6, #1342177280	; 0x50000000
10001b92:	f505 4550 	add.w	r5, r5, #53248	; 0xd000
    regval = *regaddr;
10001b96:	f8d5 c000 	ldr.w	ip, [r5]

    /* Mask or set line */
    if ((pExtiConfig->Trigger & EXTI_TRIGGER_RISING) != 0x00u)
10001b9a:	688f      	ldr	r7, [r1, #8]
10001b9c:	f017 0f01 	tst.w	r7, #1
10001ba0:	d034      	beq.n	10001c0c <HAL_EXTI_SetConfigLine+0xa0>
    {
      regval |= maskline;
10001ba2:	ea4c 0702 	orr.w	r7, ip, r2
    {
      regval &= ~maskline;
    }

    /* Store rising trigger mode */
    *regaddr = regval;
10001ba6:	602f      	str	r7, [r5, #0]

    /* Configure falling trigger */
    regaddr = (&EXTI->FTSR1 + (EXTI_CONFIG_OFFSET * offset));
10001ba8:	4f2d      	ldr	r7, [pc, #180]	; (10001c60 <HAL_EXTI_SetConfigLine+0xf4>)
    regval = *regaddr;
10001baa:	f856 c007 	ldr.w	ip, [r6, r7]

    /* Mask or set line */
    if ((pExtiConfig->Trigger & EXTI_TRIGGER_FALLING) != 0x00u)
10001bae:	688d      	ldr	r5, [r1, #8]
10001bb0:	f015 0f02 	tst.w	r5, #2
10001bb4:	d02d      	beq.n	10001c12 <HAL_EXTI_SetConfigLine+0xa6>
    {
      regval |= maskline;
10001bb6:	ea4c 0502 	orr.w	r5, ip, r2
    {
      regval &= ~maskline;
    }

    /* Store falling trigger mode */
    *regaddr = regval;
10001bba:	51f5      	str	r5, [r6, r7]

    /* Configure gpio port selection in case of gpio exti line */
    if ((pExtiConfig->Line & EXTI_GPIO) == EXTI_GPIO)
10001bbc:	680d      	ldr	r5, [r1, #0]
10001bbe:	f005 65c0 	and.w	r5, r5, #100663296	; 0x6000000
10001bc2:	f1b5 6fc0 	cmp.w	r5, #100663296	; 0x6000000
10001bc6:	d027      	beq.n	10001c18 <HAL_EXTI_SetConfigLine+0xac>
      EXTI->EXTICR[linepos >> 2u] = regval;
    }
  }

  /*Set Interrupt And Event Mask for Core 1 if configuration for Core 1 given into parameter mode */
  if ((pExtiConfig->Mode & EXTI_MODE_C1) != 0x00u)
10001bc8:	684b      	ldr	r3, [r1, #4]
10001bca:	f013 0f10 	tst.w	r3, #16
10001bce:	d007      	beq.n	10001be0 <HAL_EXTI_SetConfigLine+0x74>
  {
    regaddr = (&EXTI->C1IMR1 + (EXTI_MODE_OFFSET * offset));
10001bd0:	0106      	lsls	r6, r0, #4
10001bd2:	4d24      	ldr	r5, [pc, #144]	; (10001c64 <HAL_EXTI_SetConfigLine+0xf8>)

    regval = *regaddr;
10001bd4:	5974      	ldr	r4, [r6, r5]

    /* Mask or set line */
    if ((pExtiConfig->Mode & EXTI_MODE_INTERRUPT) != 0x00u)
10001bd6:	f013 0f01 	tst.w	r3, #1
10001bda:	d030      	beq.n	10001c3e <HAL_EXTI_SetConfigLine+0xd2>
    {
      regval |= maskline;
10001bdc:	4314      	orrs	r4, r2
    {
      regval &= ~maskline;
    }

    /* Store interrupt mode */
    *regaddr = regval;
10001bde:	5174      	str	r4, [r6, r5]

  }

  /*Set Interrupt And Event Mask for Core 2 if configuration for Core 2 given into parameter mode  */
  if ((pExtiConfig->Mode & EXTI_MODE_C2) != 0x00u)
10001be0:	684c      	ldr	r4, [r1, #4]
10001be2:	f014 0f20 	tst.w	r4, #32
10001be6:	d037      	beq.n	10001c58 <HAL_EXTI_SetConfigLine+0xec>
  {
    regaddr = (&EXTI->C2IMR1 + (EXTI_MODE_OFFSET * offset));
10001be8:	0103      	lsls	r3, r0, #4
10001bea:	4d1f      	ldr	r5, [pc, #124]	; (10001c68 <HAL_EXTI_SetConfigLine+0xfc>)

    regval = *regaddr;
10001bec:	5958      	ldr	r0, [r3, r5]

    /* Mask or set line */
    if ((pExtiConfig->Mode & EXTI_MODE_INTERRUPT) != 0x00u)
10001bee:	f014 0f01 	tst.w	r4, #1
10001bf2:	d027      	beq.n	10001c44 <HAL_EXTI_SetConfigLine+0xd8>
    {
      regval |= maskline;
10001bf4:	4310      	orrs	r0, r2
    {
      regval &= ~maskline;
    }

    /* Store interrupt mode */
    *regaddr = regval;
10001bf6:	5158      	str	r0, [r3, r5]

    /* The event mode cannot be configured if the line does not support it */
    assert_param(((pExtiConfig->Line & EXTI_EVENT) == EXTI_EVENT) || ((pExtiConfig->Mode & EXTI_MODE_EVENT) != EXTI_MODE_EVENT));

    regaddr = (&EXTI->C2EMR1 + (EXTI_MODE_OFFSET * offset));
10001bf8:	4c1c      	ldr	r4, [pc, #112]	; (10001c6c <HAL_EXTI_SetConfigLine+0x100>)

    regval = *regaddr;
10001bfa:	5918      	ldr	r0, [r3, r4]

    /* Mask or set line */
    if ((pExtiConfig->Mode & EXTI_MODE_EVENT) != 0x00u)
10001bfc:	6849      	ldr	r1, [r1, #4]
10001bfe:	f011 0f02 	tst.w	r1, #2
10001c02:	d022      	beq.n	10001c4a <HAL_EXTI_SetConfigLine+0xde>
    {
      regval |= maskline;
10001c04:	4302      	orrs	r2, r0
    {
      regval &= ~maskline;
    }

    /* Store event mode */
    *regaddr = regval;
10001c06:	511a      	str	r2, [r3, r4]
  }

  return HAL_OK;
10001c08:	2000      	movs	r0, #0
10001c0a:	e026      	b.n	10001c5a <HAL_EXTI_SetConfigLine+0xee>
      regval &= ~maskline;
10001c0c:	ea2c 0702 	bic.w	r7, ip, r2
10001c10:	e7c9      	b.n	10001ba6 <HAL_EXTI_SetConfigLine+0x3a>
      regval &= ~maskline;
10001c12:	ea2c 0502 	bic.w	r5, ip, r2
10001c16:	e7d0      	b.n	10001bba <HAL_EXTI_SetConfigLine+0x4e>
      regval = EXTI->EXTICR[linepos >> 2u];
10001c18:	08a4      	lsrs	r4, r4, #2
10001c1a:	4f15      	ldr	r7, [pc, #84]	; (10001c70 <HAL_EXTI_SetConfigLine+0x104>)
10001c1c:	3418      	adds	r4, #24
10001c1e:	f857 6024 	ldr.w	r6, [r7, r4, lsl #2]
      regval &= ~(EXTI_EXTICR1_EXTI0 << (EXTI_EXTICR1_EXTI1_Pos * (linepos & 0x03u)));
10001c22:	f003 0303 	and.w	r3, r3, #3
10001c26:	00db      	lsls	r3, r3, #3
10001c28:	250f      	movs	r5, #15
10001c2a:	409d      	lsls	r5, r3
10001c2c:	ea26 0605 	bic.w	r6, r6, r5
      regval |= (pExtiConfig->GPIOSel << (EXTI_EXTICR1_EXTI1_Pos * (linepos & 0x03u)));
10001c30:	68cd      	ldr	r5, [r1, #12]
10001c32:	fa05 f303 	lsl.w	r3, r5, r3
10001c36:	4333      	orrs	r3, r6
      EXTI->EXTICR[linepos >> 2u] = regval;
10001c38:	f847 3024 	str.w	r3, [r7, r4, lsl #2]
10001c3c:	e7c4      	b.n	10001bc8 <HAL_EXTI_SetConfigLine+0x5c>
      regval &= ~maskline;
10001c3e:	ea24 0402 	bic.w	r4, r4, r2
10001c42:	e7cc      	b.n	10001bde <HAL_EXTI_SetConfigLine+0x72>
      regval &= ~maskline;
10001c44:	ea20 0002 	bic.w	r0, r0, r2
10001c48:	e7d5      	b.n	10001bf6 <HAL_EXTI_SetConfigLine+0x8a>
      regval &= ~maskline;
10001c4a:	ea20 0202 	bic.w	r2, r0, r2
10001c4e:	e7da      	b.n	10001c06 <HAL_EXTI_SetConfigLine+0x9a>
    return HAL_ERROR;
10001c50:	2001      	movs	r0, #1
10001c52:	4770      	bx	lr
10001c54:	2001      	movs	r0, #1
}
10001c56:	4770      	bx	lr
  return HAL_OK;
10001c58:	2000      	movs	r0, #0
}
10001c5a:	bcf0      	pop	{r4, r5, r6, r7}
10001c5c:	4770      	bx	lr
10001c5e:	bf00      	nop
10001c60:	5000d004 	.word	0x5000d004
10001c64:	5000d080 	.word	0x5000d080
10001c68:	5000d0c0 	.word	0x5000d0c0
10001c6c:	5000d0c4 	.word	0x5000d0c4
10001c70:	5000d000 	.word	0x5000d000

10001c74 <HAL_EXTI_RegisterCallback>:
  */
HAL_StatusTypeDef HAL_EXTI_RegisterCallback(EXTI_HandleTypeDef *hexti, EXTI_CallbackIDTypeDef CallbackID, void (*pPendingCbfn)(void))
{
  HAL_StatusTypeDef status = HAL_OK;

  switch (CallbackID)
10001c74:	2901      	cmp	r1, #1
10001c76:	d008      	beq.n	10001c8a <HAL_EXTI_RegisterCallback+0x16>
10001c78:	2902      	cmp	r1, #2
10001c7a:	d009      	beq.n	10001c90 <HAL_EXTI_RegisterCallback+0x1c>
10001c7c:	b109      	cbz	r1, 10001c82 <HAL_EXTI_RegisterCallback+0xe>
10001c7e:	2001      	movs	r0, #1
      status = HAL_ERROR;
      break;
  }

  return status;
}
10001c80:	4770      	bx	lr
      hexti->RisingCallback = pPendingCbfn;
10001c82:	6042      	str	r2, [r0, #4]
      hexti->FallingCallback = pPendingCbfn;
10001c84:	6082      	str	r2, [r0, #8]
  HAL_StatusTypeDef status = HAL_OK;
10001c86:	4608      	mov	r0, r1
      break;
10001c88:	4770      	bx	lr
      hexti->RisingCallback = pPendingCbfn;
10001c8a:	6042      	str	r2, [r0, #4]
  HAL_StatusTypeDef status = HAL_OK;
10001c8c:	2000      	movs	r0, #0
      break;
10001c8e:	4770      	bx	lr
      hexti->FallingCallback = pPendingCbfn;
10001c90:	6082      	str	r2, [r0, #8]
  HAL_StatusTypeDef status = HAL_OK;
10001c92:	2000      	movs	r0, #0
      break;
10001c94:	4770      	bx	lr
	...

10001c98 <HAL_EXTI_IRQHandler>:
  * @brief  Handle EXTI interrupt request.
  * @param  hexti Exti handle.
  * @retval none.
  */
void HAL_EXTI_IRQHandler(EXTI_HandleTypeDef *hexti)
{
10001c98:	b570      	push	{r4, r5, r6, lr}
10001c9a:	4606      	mov	r6, r0
  uint32_t regval;
  uint32_t maskline;
  uint32_t offset;

  /* Compute line register offset and line mask */
  offset = ((hexti->Line & EXTI_REG_MASK) >> EXTI_REG_SHIFT);
10001c9c:	6805      	ldr	r5, [r0, #0]
10001c9e:	f3c5 4401 	ubfx	r4, r5, #16, #2
  maskline = (1uL << (hexti->Line & EXTI_PIN_MASK));
10001ca2:	f005 051f 	and.w	r5, r5, #31
10001ca6:	2301      	movs	r3, #1
10001ca8:	fa03 f505 	lsl.w	r5, r3, r5

  /* Get rising edge pending bit  */
  regaddr = (&EXTI->RPR1 + (EXTI_CONFIG_OFFSET * offset));
10001cac:	0164      	lsls	r4, r4, #5
10001cae:	4b08      	ldr	r3, [pc, #32]	; (10001cd0 <HAL_EXTI_IRQHandler+0x38>)
  regval = (*regaddr & maskline);
10001cb0:	58e2      	ldr	r2, [r4, r3]

  if (regval != 0x00u)
10001cb2:	422a      	tst	r2, r5
10001cb4:	d003      	beq.n	10001cbe <HAL_EXTI_IRQHandler+0x26>
  {
    /* Clear pending bit */
    *regaddr = maskline;
10001cb6:	50e5      	str	r5, [r4, r3]

    /* Call rising callback */
    if (hexti->RisingCallback != NULL)
10001cb8:	6843      	ldr	r3, [r0, #4]
10001cba:	b103      	cbz	r3, 10001cbe <HAL_EXTI_IRQHandler+0x26>
    {
      hexti->RisingCallback();
10001cbc:	4798      	blx	r3
    }
  }

  /* Get falling edge pending bit  */
  regaddr = (&EXTI->FPR1 + (EXTI_CONFIG_OFFSET * offset));
10001cbe:	4b05      	ldr	r3, [pc, #20]	; (10001cd4 <HAL_EXTI_IRQHandler+0x3c>)
  regval = (*regaddr & maskline);
10001cc0:	58e2      	ldr	r2, [r4, r3]

  if (regval != 0x00u)
10001cc2:	422a      	tst	r2, r5
10001cc4:	d003      	beq.n	10001cce <HAL_EXTI_IRQHandler+0x36>
  {
    /* Clear pending bit */
    *regaddr = maskline;
10001cc6:	50e5      	str	r5, [r4, r3]

    /* Call rising callback */
    if (hexti->FallingCallback != NULL)
10001cc8:	68b3      	ldr	r3, [r6, #8]
10001cca:	b103      	cbz	r3, 10001cce <HAL_EXTI_IRQHandler+0x36>
    {
      hexti->FallingCallback();
10001ccc:	4798      	blx	r3
    }
  }
}
10001cce:	bd70      	pop	{r4, r5, r6, pc}
10001cd0:	5000d00c 	.word	0x5000d00c
10001cd4:	5000d010 	.word	0x5000d010

10001cd8 <HAL_GPIO_Init>:
  assert_param(IS_GPIO_PIN(GPIO_Init->Pin));
  assert_param(IS_GPIO_MODE(GPIO_Init->Mode));
  assert_param(IS_GPIO_PULL(GPIO_Init->Pull));

  /* Configure the port pins */
  for(position = 0; position < GPIO_NUMBER; position++)
10001cd8:	2300      	movs	r3, #0
10001cda:	2b0f      	cmp	r3, #15
10001cdc:	f200 80e3 	bhi.w	10001ea6 <HAL_GPIO_Init+0x1ce>
{
10001ce0:	b4f0      	push	{r4, r5, r6, r7}
10001ce2:	e03a      	b.n	10001d5a <HAL_GPIO_Init+0x82>
      /* Configure the External Interrupt or event for the current IO */
      if((GPIO_Init->Mode & EXTI_MODE) == EXTI_MODE)
      {
        temp = EXTI->EXTICR[position >> 2U];
        temp &= ~(0xFFU << (8U * (position & 0x03U)));
        temp |= (GPIO_GET_INDEX(GPIOx) << (8U * (position & 0x03U)));
10001ce4:	220b      	movs	r2, #11
10001ce6:	e000      	b.n	10001cea <HAL_GPIO_Init+0x12>
10001ce8:	2200      	movs	r2, #0
10001cea:	40b2      	lsls	r2, r6
10001cec:	433a      	orrs	r2, r7
        EXTI->EXTICR[position >> 2U] = temp;
10001cee:	3418      	adds	r4, #24
10001cf0:	4e6d      	ldr	r6, [pc, #436]	; (10001ea8 <HAL_GPIO_Init+0x1d0>)
10001cf2:	f846 2024 	str.w	r2, [r6, r4, lsl #2]

        /* Clear EXTI line configuration */
        temp = EXTI_CurrentCPU->IMR1;
10001cf6:	4a6d      	ldr	r2, [pc, #436]	; (10001eac <HAL_GPIO_Init+0x1d4>)
10001cf8:	6814      	ldr	r4, [r2, #0]
        temp &= ~((uint32_t)iocurrent);
10001cfa:	43ea      	mvns	r2, r5
10001cfc:	ea24 0605 	bic.w	r6, r4, r5
        if((GPIO_Init->Mode & GPIO_MODE_IT) == GPIO_MODE_IT)
10001d00:	684f      	ldr	r7, [r1, #4]
10001d02:	f417 3f80 	tst.w	r7, #65536	; 0x10000
10001d06:	d001      	beq.n	10001d0c <HAL_GPIO_Init+0x34>
        {
          temp |= iocurrent;
10001d08:	ea45 0604 	orr.w	r6, r5, r4
        }
        EXTI_CurrentCPU->IMR1 = temp;
10001d0c:	4c67      	ldr	r4, [pc, #412]	; (10001eac <HAL_GPIO_Init+0x1d4>)
10001d0e:	6026      	str	r6, [r4, #0]

        temp = EXTI_CurrentCPU->EMR1;
10001d10:	6866      	ldr	r6, [r4, #4]
        temp &= ~((uint32_t)iocurrent);
10001d12:	ea02 0406 	and.w	r4, r2, r6
        if((GPIO_Init->Mode & GPIO_MODE_EVT) == GPIO_MODE_EVT)
10001d16:	684f      	ldr	r7, [r1, #4]
10001d18:	f417 3f00 	tst.w	r7, #131072	; 0x20000
10001d1c:	d001      	beq.n	10001d22 <HAL_GPIO_Init+0x4a>
        {
          temp |= iocurrent;
10001d1e:	ea45 0406 	orr.w	r4, r5, r6
        }
        EXTI_CurrentCPU->EMR1 = temp;
10001d22:	4e62      	ldr	r6, [pc, #392]	; (10001eac <HAL_GPIO_Init+0x1d4>)
10001d24:	6074      	str	r4, [r6, #4]

        /* Clear Rising Falling edge configuration */
        temp = EXTI->RTSR1;
10001d26:	4c60      	ldr	r4, [pc, #384]	; (10001ea8 <HAL_GPIO_Init+0x1d0>)
10001d28:	6824      	ldr	r4, [r4, #0]
        temp &= ~((uint32_t)iocurrent);
10001d2a:	ea02 0604 	and.w	r6, r2, r4
        if((GPIO_Init->Mode & RISING_EDGE) == RISING_EDGE)
10001d2e:	684f      	ldr	r7, [r1, #4]
10001d30:	f417 1f80 	tst.w	r7, #1048576	; 0x100000
10001d34:	d001      	beq.n	10001d3a <HAL_GPIO_Init+0x62>
        {
          temp |= iocurrent;
10001d36:	ea45 0604 	orr.w	r6, r5, r4
        }
        EXTI->RTSR1 = temp;
10001d3a:	4c5b      	ldr	r4, [pc, #364]	; (10001ea8 <HAL_GPIO_Init+0x1d0>)
10001d3c:	6026      	str	r6, [r4, #0]

        temp = EXTI->FTSR1;
10001d3e:	6864      	ldr	r4, [r4, #4]
        temp &= ~((uint32_t)iocurrent);
10001d40:	4022      	ands	r2, r4
        if((GPIO_Init->Mode & FALLING_EDGE) == FALLING_EDGE)
10001d42:	684e      	ldr	r6, [r1, #4]
10001d44:	f416 1f00 	tst.w	r6, #2097152	; 0x200000
10001d48:	d001      	beq.n	10001d4e <HAL_GPIO_Init+0x76>
        {
          temp |= iocurrent;
10001d4a:	ea45 0204 	orr.w	r2, r5, r4
        }
        EXTI->FTSR1 = temp;
10001d4e:	4c56      	ldr	r4, [pc, #344]	; (10001ea8 <HAL_GPIO_Init+0x1d0>)
10001d50:	6062      	str	r2, [r4, #4]
  for(position = 0; position < GPIO_NUMBER; position++)
10001d52:	3301      	adds	r3, #1
10001d54:	2b0f      	cmp	r3, #15
10001d56:	f200 80a4 	bhi.w	10001ea2 <HAL_GPIO_Init+0x1ca>
    ioposition = ((uint32_t)0x01) << position;
10001d5a:	2201      	movs	r2, #1
10001d5c:	409a      	lsls	r2, r3
    iocurrent = (uint32_t)(GPIO_Init->Pin) & ioposition;
10001d5e:	680c      	ldr	r4, [r1, #0]
10001d60:	ea04 0502 	and.w	r5, r4, r2
    if(iocurrent == ioposition)
10001d64:	ea32 0404 	bics.w	r4, r2, r4
10001d68:	d1f3      	bne.n	10001d52 <HAL_GPIO_Init+0x7a>
      if((GPIO_Init->Mode == GPIO_MODE_AF_PP) || (GPIO_Init->Mode == GPIO_MODE_AF_OD))
10001d6a:	684c      	ldr	r4, [r1, #4]
10001d6c:	2c02      	cmp	r4, #2
10001d6e:	d001      	beq.n	10001d74 <HAL_GPIO_Init+0x9c>
10001d70:	2c12      	cmp	r4, #18
10001d72:	d110      	bne.n	10001d96 <HAL_GPIO_Init+0xbe>
        temp = GPIOx->AFR[position >> 3];
10001d74:	08de      	lsrs	r6, r3, #3
10001d76:	3608      	adds	r6, #8
10001d78:	f850 c026 	ldr.w	ip, [r0, r6, lsl #2]
        temp &= ~((uint32_t)0xF << ((uint32_t)(position & (uint32_t)0x07) * 4)) ;
10001d7c:	f003 0407 	and.w	r4, r3, #7
10001d80:	00a7      	lsls	r7, r4, #2
10001d82:	240f      	movs	r4, #15
10001d84:	40bc      	lsls	r4, r7
10001d86:	ea2c 0c04 	bic.w	ip, ip, r4
        temp |= ((uint32_t)(GPIO_Init->Alternate) << (((uint32_t)position & (uint32_t)0x07) * 4));
10001d8a:	690c      	ldr	r4, [r1, #16]
10001d8c:	40bc      	lsls	r4, r7
10001d8e:	ea44 040c 	orr.w	r4, r4, ip
        GPIOx->AFR[position >> 3] = temp;
10001d92:	f840 4026 	str.w	r4, [r0, r6, lsl #2]
      temp = GPIOx->MODER;
10001d96:	f8d0 c000 	ldr.w	ip, [r0]
      temp &= ~(GPIO_MODER_MODER0 << (position * 2));
10001d9a:	005e      	lsls	r6, r3, #1
10001d9c:	2403      	movs	r4, #3
10001d9e:	40b4      	lsls	r4, r6
10001da0:	43e7      	mvns	r7, r4
10001da2:	ea2c 0c04 	bic.w	ip, ip, r4
      temp |= ((GPIO_Init->Mode & GPIO_MODE) << (position * 2));
10001da6:	684c      	ldr	r4, [r1, #4]
10001da8:	f004 0403 	and.w	r4, r4, #3
10001dac:	40b4      	lsls	r4, r6
10001dae:	ea44 040c 	orr.w	r4, r4, ip
      GPIOx->MODER = temp;
10001db2:	6004      	str	r4, [r0, #0]
      if((GPIO_Init->Mode == GPIO_MODE_OUTPUT_PP) || (GPIO_Init->Mode == GPIO_MODE_AF_PP) ||
10001db4:	684c      	ldr	r4, [r1, #4]
10001db6:	f104 3cff 	add.w	ip, r4, #4294967295	; 0xffffffff
10001dba:	f1bc 0f01 	cmp.w	ip, #1
10001dbe:	d903      	bls.n	10001dc8 <HAL_GPIO_Init+0xf0>
10001dc0:	2c11      	cmp	r4, #17
10001dc2:	d001      	beq.n	10001dc8 <HAL_GPIO_Init+0xf0>
         (GPIO_Init->Mode == GPIO_MODE_OUTPUT_OD) || (GPIO_Init->Mode == GPIO_MODE_AF_OD))
10001dc4:	2c12      	cmp	r4, #18
10001dc6:	d110      	bne.n	10001dea <HAL_GPIO_Init+0x112>
        temp = GPIOx->OSPEEDR;
10001dc8:	6884      	ldr	r4, [r0, #8]
        temp &= ~(GPIO_OSPEEDR_OSPEEDR0 << (position * 2));
10001dca:	ea07 0c04 	and.w	ip, r7, r4
        temp |= (GPIO_Init->Speed << (position * 2));
10001dce:	68cc      	ldr	r4, [r1, #12]
10001dd0:	40b4      	lsls	r4, r6
10001dd2:	ea44 040c 	orr.w	r4, r4, ip
        GPIOx->OSPEEDR = temp;
10001dd6:	6084      	str	r4, [r0, #8]
        temp = GPIOx->OTYPER;
10001dd8:	6844      	ldr	r4, [r0, #4]
        temp &= ~(GPIO_OTYPER_OT0 << position) ;
10001dda:	ea24 0202 	bic.w	r2, r4, r2
        temp |= (((GPIO_Init->Mode & GPIO_OUTPUT_TYPE) >> 4) << position);
10001dde:	684c      	ldr	r4, [r1, #4]
10001de0:	f3c4 1400 	ubfx	r4, r4, #4, #1
10001de4:	409c      	lsls	r4, r3
10001de6:	4314      	orrs	r4, r2
        GPIOx->OTYPER = temp;
10001de8:	6044      	str	r4, [r0, #4]
      temp = GPIOx->PUPDR;
10001dea:	68c2      	ldr	r2, [r0, #12]
      temp &= ~(GPIO_PUPDR_PUPDR0 << (position * 2));
10001dec:	4017      	ands	r7, r2
      temp |= ((GPIO_Init->Pull) << (position * 2));
10001dee:	688a      	ldr	r2, [r1, #8]
10001df0:	40b2      	lsls	r2, r6
10001df2:	433a      	orrs	r2, r7
      GPIOx->PUPDR = temp;
10001df4:	60c2      	str	r2, [r0, #12]
      if((GPIO_Init->Mode & EXTI_MODE) == EXTI_MODE)
10001df6:	684a      	ldr	r2, [r1, #4]
10001df8:	f012 5f80 	tst.w	r2, #268435456	; 0x10000000
10001dfc:	d0a9      	beq.n	10001d52 <HAL_GPIO_Init+0x7a>
        temp = EXTI->EXTICR[position >> 2U];
10001dfe:	089c      	lsrs	r4, r3, #2
10001e00:	f104 0618 	add.w	r6, r4, #24
10001e04:	4a28      	ldr	r2, [pc, #160]	; (10001ea8 <HAL_GPIO_Init+0x1d0>)
10001e06:	f852 7026 	ldr.w	r7, [r2, r6, lsl #2]
        temp &= ~(0xFFU << (8U * (position & 0x03U)));
10001e0a:	f003 0203 	and.w	r2, r3, #3
10001e0e:	00d6      	lsls	r6, r2, #3
10001e10:	22ff      	movs	r2, #255	; 0xff
10001e12:	40b2      	lsls	r2, r6
10001e14:	ea27 0702 	bic.w	r7, r7, r2
        temp |= (GPIO_GET_INDEX(GPIOx) << (8U * (position & 0x03U)));
10001e18:	4a25      	ldr	r2, [pc, #148]	; (10001eb0 <HAL_GPIO_Init+0x1d8>)
10001e1a:	4290      	cmp	r0, r2
10001e1c:	f43f af64 	beq.w	10001ce8 <HAL_GPIO_Init+0x10>
10001e20:	f502 5280 	add.w	r2, r2, #4096	; 0x1000
10001e24:	4290      	cmp	r0, r2
10001e26:	d028      	beq.n	10001e7a <HAL_GPIO_Init+0x1a2>
10001e28:	f502 5280 	add.w	r2, r2, #4096	; 0x1000
10001e2c:	4290      	cmp	r0, r2
10001e2e:	d026      	beq.n	10001e7e <HAL_GPIO_Init+0x1a6>
10001e30:	f1b0 2f50 	cmp.w	r0, #1342197760	; 0x50005000
10001e34:	d025      	beq.n	10001e82 <HAL_GPIO_Init+0x1aa>
10001e36:	f502 5200 	add.w	r2, r2, #8192	; 0x2000
10001e3a:	4290      	cmp	r0, r2
10001e3c:	d023      	beq.n	10001e86 <HAL_GPIO_Init+0x1ae>
10001e3e:	f502 5280 	add.w	r2, r2, #4096	; 0x1000
10001e42:	4290      	cmp	r0, r2
10001e44:	d021      	beq.n	10001e8a <HAL_GPIO_Init+0x1b2>
10001e46:	f502 5280 	add.w	r2, r2, #4096	; 0x1000
10001e4a:	4290      	cmp	r0, r2
10001e4c:	d01f      	beq.n	10001e8e <HAL_GPIO_Init+0x1b6>
10001e4e:	f502 5280 	add.w	r2, r2, #4096	; 0x1000
10001e52:	4290      	cmp	r0, r2
10001e54:	d01d      	beq.n	10001e92 <HAL_GPIO_Init+0x1ba>
10001e56:	f502 5280 	add.w	r2, r2, #4096	; 0x1000
10001e5a:	4290      	cmp	r0, r2
10001e5c:	d01b      	beq.n	10001e96 <HAL_GPIO_Init+0x1be>
10001e5e:	f502 5280 	add.w	r2, r2, #4096	; 0x1000
10001e62:	4290      	cmp	r0, r2
10001e64:	d019      	beq.n	10001e9a <HAL_GPIO_Init+0x1c2>
10001e66:	f502 5280 	add.w	r2, r2, #4096	; 0x1000
10001e6a:	4290      	cmp	r0, r2
10001e6c:	d017      	beq.n	10001e9e <HAL_GPIO_Init+0x1c6>
10001e6e:	4a11      	ldr	r2, [pc, #68]	; (10001eb4 <HAL_GPIO_Init+0x1dc>)
10001e70:	4290      	cmp	r0, r2
10001e72:	f43f af37 	beq.w	10001ce4 <HAL_GPIO_Init+0xc>
10001e76:	2219      	movs	r2, #25
10001e78:	e737      	b.n	10001cea <HAL_GPIO_Init+0x12>
10001e7a:	2201      	movs	r2, #1
10001e7c:	e735      	b.n	10001cea <HAL_GPIO_Init+0x12>
10001e7e:	2202      	movs	r2, #2
10001e80:	e733      	b.n	10001cea <HAL_GPIO_Init+0x12>
10001e82:	2203      	movs	r2, #3
10001e84:	e731      	b.n	10001cea <HAL_GPIO_Init+0x12>
10001e86:	2204      	movs	r2, #4
10001e88:	e72f      	b.n	10001cea <HAL_GPIO_Init+0x12>
10001e8a:	2205      	movs	r2, #5
10001e8c:	e72d      	b.n	10001cea <HAL_GPIO_Init+0x12>
10001e8e:	2206      	movs	r2, #6
10001e90:	e72b      	b.n	10001cea <HAL_GPIO_Init+0x12>
10001e92:	2207      	movs	r2, #7
10001e94:	e729      	b.n	10001cea <HAL_GPIO_Init+0x12>
10001e96:	2208      	movs	r2, #8
10001e98:	e727      	b.n	10001cea <HAL_GPIO_Init+0x12>
10001e9a:	2209      	movs	r2, #9
10001e9c:	e725      	b.n	10001cea <HAL_GPIO_Init+0x12>
10001e9e:	220a      	movs	r2, #10
10001ea0:	e723      	b.n	10001cea <HAL_GPIO_Init+0x12>
      }
    }
  }
}
10001ea2:	bcf0      	pop	{r4, r5, r6, r7}
10001ea4:	4770      	bx	lr
10001ea6:	4770      	bx	lr
10001ea8:	5000d000 	.word	0x5000d000
10001eac:	5000d0c0 	.word	0x5000d0c0
10001eb0:	50002000 	.word	0x50002000
10001eb4:	54004000 	.word	0x54004000

10001eb8 <HAL_GPIO_WritePin>:
{
  /* Check the parameters */
  assert_param(IS_GPIO_PIN(GPIO_Pin));
  assert_param(IS_GPIO_PIN_ACTION(PinState));

  if (PinState != GPIO_PIN_RESET)
10001eb8:	b10a      	cbz	r2, 10001ebe <HAL_GPIO_WritePin+0x6>
  {
    GPIOx->BSRR = GPIO_Pin;
10001eba:	6181      	str	r1, [r0, #24]
10001ebc:	4770      	bx	lr
  }
  else
  {
    GPIOx->BSRR = (uint32_t)GPIO_Pin << GPIO_NUMBER;
10001ebe:	0409      	lsls	r1, r1, #16
10001ec0:	6181      	str	r1, [r0, #24]
  }
}
10001ec2:	4770      	bx	lr

10001ec4 <HAL_HSEM_FastTake>:
    /*take success when MasterID match and take bit set*/
    return HAL_OK;
  }
#else
  /* Read the RLR register to take the semaphore */
  if (HSEM->RLR[SemID] == (HSEM_CR_COREID_CURRENT | HSEM_RLR_LOCK))
10001ec4:	3020      	adds	r0, #32
10001ec6:	f04f 4398 	mov.w	r3, #1275068416	; 0x4c000000
10001eca:	f853 2020 	ldr.w	r2, [r3, r0, lsl #2]
10001ece:	4b03      	ldr	r3, [pc, #12]	; (10001edc <HAL_HSEM_FastTake+0x18>)
10001ed0:	429a      	cmp	r2, r3
10001ed2:	d001      	beq.n	10001ed8 <HAL_HSEM_FastTake+0x14>
    return HAL_OK;
  }
#endif

  /* Semaphore take fails */
  return HAL_ERROR;
10001ed4:	2001      	movs	r0, #1
10001ed6:	4770      	bx	lr
    return HAL_OK;
10001ed8:	2000      	movs	r0, #0
}
10001eda:	4770      	bx	lr
10001edc:	80000200 	.word	0x80000200

10001ee0 <HAL_HSEM_Release>:
  /* Check the parameters */
  assert_param(IS_HSEM_SEMID(SemID));
